:020000040800F2
:1000000000000320F923000881230008832300084F
:1000100085230008872300088923000800000000CA
:100020000000000000000000000000008B2300081A
:100030008D230008000000008F2300089123000892
:1000400049240008492400084924000849240008DC
:1000500049240008492400084924000849240008CC
:1000600049240008492400084924000849240008BC
:1000700049240008492400084924000849240008AC
:10008000492400084924000849240008492400089C
:10009000492400084924000849240008492400088C
:1000A000492400084924000849240008492400087C
:1000B000492400084924000849240008492400086C
:1000C000492400084924000849240008492400085C
:1000D000492400084924000849240008492400084C
:1000E000492400084924000849240008492400083C
:1000F000492400084924000849240008492400082C
:10010000492400084924000849240008492400081B
:10011000492400084924000849240008492400080B
:1001200049240008492400084924000849240008FB
:100130009D23000849240008492400084924000898
:1001400049240008492400084924000849240008DB
:1001500049240008492400084924000849240008CB
:1001600049240008492400084924000849240008BB
:100170004924000849240008492400080000000020
:10018000492400084924000849240008492400089B
:10019000492400084924000849240008492400088B
:0C01A000492400084924000849240008F4
:1001AC0010B5054C237833B9044B13B10448AFF3A5
:1001BC0000800123237010BD0C0000200000000003
:1001CC009424000808B5034B1BB103490348AFF353
:1001DC00008008BD000000001000002094240008DE
:1001EC0053B94AB9002908BF00281CBF4FF0FF3192
:1001FC004FF0FF3000F072B9ADF1080C6DE904CE90
:10020C0000F006F8DDF804E0DDE9022304B07047E5
:10021C002DE9F047089E04468846002B4BD18A42B4
:10022C00154667D9B2FA82F24AB1C2F1200701FA37
:10023C0002F320FA07F7954047EA030894404FEA87
:10024C00154E230CB8FBFEF71FFA85FC0EFB178826
:10025C0043EA084307FB0CF1994209D9EB1807F163
:10026C00FF3080F01B81994240F21881023F2B44F1
:10027C005B1AA4B2B3FBFEF00EFB103344EA03444A
:10028C0000FB0CFCA44509D92C1900F1FF3380F0BC
:10029C000781A44540F2048102382C4440EA07400F
:1002AC00A4EB0C0400271EB1D4400023C6E9004384
:1002BC003946BDE8F0878B4209D9002E00F0EB805F
:1002CC000027C6E9000138463946BDE8F087B3FA85
:1002DC0083F7002F47D18B4202D3824200F2FA807F
:1002EC00841A61EB030301209846002EE0D0C6E986
:1002FC000048DDE702B9FFDEB2FA82F2002A40F0D4
:10030C008F80491B4FEA154E1FFA85F80127B1FB68
:10031C00FEFC230C0EFB1C1143EA014308FB0CF101
:10032C00994207D9EB180CF1FF3002D2994200F236
:10033C00CD808446591AA3B2B1FBFEF00EFB10140B
:10034C0043EA044408FB00F8A04507D92C1900F136
:10035C00FF3302D2A04500F2B6801846A4EB080485
:10036C0040EA0C409FE7C7F1200CBB4022FA0CFE80
:10037C004EEA030E01FA07F420FA0CF521FA0CF3FD
:10038C004FEA1E482543B3FBF8F92C0C08FB193334
:10039C001FFA8EFA44EA034309FB0AF49C4202FA60
:1003AC0007F200FA07F10BD91EEB030309F1FF303A
:1003BC0080F087809C4240F28480A9F1020973444A
:1003CC001B1BADB2B3FBF8F008FB103345EA03443A
:1003DC0000FB0AFAA24508D91EEB040400F1FF3316
:1003EC006BD2A24569D90238744440EA0940A0FB9B
:1003FC000289A4EB0A044C45C2464B4654D351D057
:10040C00002E69D0B1EB0A0564EB030404FA0CFC72
:10041C00FD40FC404CEA0505C6E90054002747E7BF
:10042C00C2F1200320FA03F7954001FA02F021FAF9
:10043C0003F34FEA154E3843010CB3FBFEF71FFADA
:10044C0085F80EFB173341EA034107FB08F38B4297
:10045C0004FA02F407D9691807F1FF3C2FD28B423A
:10046C002DD9023F2944CB1A81B2B3FBFEF00EFB0F
:10047C00103341EA034100FB08F38B4207D969189A
:10048C0000F1FF3C17D28B4215D902382944C91A06
:10049C0040EA07473BE73746304609E70746E7E6B9
:1004AC001846FBE64145ABD2B8EB020A69EB0E02EB
:1004BC0001381346A4E76046E9E7184695E7674616
:1004CC00D1E781467CE702382C4447E7ACF1020CBB
:1004DC002B442FE7384608E73746E9E6704700BF5C
:1004EC0010B504460E4B18784FF47A73B3FBF0F347
:1004FC000C4A1068B0FBF3F000F094F868B90F2CBC
:10050C0001D901200AE0002221464FF0FF3000F013
:10051C0049F8034B5C60002000E0012010BD00BFD7
:10052C00000000200800002008B50B4B1A6842F4AC
:10053C0000721A601A6842F480621A601A6842F4F7
:10054C0080721A60032000F01BF80020FFF7C8FF30
:10055C0001F01EFE002008BD003C0240034A116859
:10056C00034B1B780B441360704700BF2C0000201A
:10057C0000000020014B1868704700BF2C000020C1
:10058C00074AD36823F4E0631B041B0C000200F43D
:10059C00E060184340F0BF6040F40030D06070471A
:1005AC0000ED00E030B4174BDB68C3F30223C3F15A
:1005BC000704042C28BF04241D1D062D18D9033B49
:1005CC004FF0FF3505FA04F421EA0401994005FACD
:1005DC0003F322EA0303194300280BDB0901C9B218
:1005EC0000F1604000F5614080F8001330BC7047AA
:1005FC000023E5E700F00F000901C9B2024B1954C2
:10060C00F4E700BF00ED00E014ED00E000F01F0285
:10061C00400901239340024A42F82030704700BF42
:10062C0000E100E00138B0F1807F0AD2064B58603F
:10063C00064AF02182F823100020986007221A60E5
:10064C0070470120704700BF10E000E000ED00E0B3
:10065C00042805D0054A136823F00403136070477F
:10066C00024A136843F004031360704710E000E083
:10067C00704708B5FFF7FCFF08BD30B405682C685F
:10068C0024F480242C60046863608368402B05D0BC
:10069C00036899600368DA6030BC704703689A603D
:1006AC000368D960F8E700000268D3B2103B0B492D
:1006BC00A1FB03131B090A49C95CC165032B06D8AE
:1006CC0022F47F7222F003028265806D704722F45F
:1006DC007F7222F0030204328265F6E7ABAAAAAA63
:1006EC00AC240008836A826992B9012B0AD01BB131
:1006FC00022B01D000207047C36A13F0807F2CD1ED
:10070C0000207047C36AB3F1C07F28D00020704727
:10071C00B2F5005F05D0022B29D9032B15D0002090
:10072C007047032B03D8DFE803F01C041C0A0020DD
:10073C007047C36A13F0807F15D100207047C36ADD
:10074C00B3F1C07F11D000207047C36A13F0807FD3
:10075C0001D0012070470020704701207047012014
:10076C00704701207047012070470120704701201D
:10077C007047000070B50446FFF7FCFE002C5BD000
:10078C000546002384F83430022384F8353022687F
:10079C00136823F00103136023681A6812F0010F29
:1007AC000AD0FFF7E7FE401B0528F5D92023636527
:1007BC00032084F8350070BD1A6820481040616829
:1007CC00A2680A43E1680A4321690A4361690A4342
:1007DC00A1690A43E1690A43216A0A430243616A37
:1007EC0004291ED01A602668756925F00705636A0E
:1007FC001D43042B07D1A36A1D43E36A1BB120469A
:10080C00FFF770FF90B975612046FFF74DFFE26D61
:10081C003F239340836000206065012384F83530CA
:10082C00C9E7E16A206B01430A43DBE740236365B8
:10083C00012084F83500BEE70120BCE73F8010F0B2
:10084C0038B5856D90F83440012C31D0012480F8F6
:10085C00344090F83540E4B2012C04D0002380F8E9
:10086C003430022038BD0446022084F835000020C4
:10087C0060652046FFF701FFE26D3F239340AB60BC
:10088C002268136843F0160313602268536943F01F
:10089C0080035361236C23B12268136843F008036F
:1008AC0013602268136843F0010313600020D9E73A
:1008BC000220D7E7F0B583B0044600230193724BB6
:1008CC001D68724BA3FB0535AD0A876D3E68C26D82
:1008DC0008239340334210D003681A6812F0040FB7
:1008EC000BD01A6822F004021A60C26D08239340E0
:1008FC00BB60436D43F001034365E26D01239340FC
:10090C00334209D02268526912F0800F04D0BB60C8
:10091C00636D43F002036365E26D0423934033423D
:10092C0009D02268126812F0020F04D0BB60636D0C
:10093C0043F004036365E26D10239340334224D0EB
:10094C002268126812F0080F1FD0BB6023681A6867
:10095C0012F4802F0DD01B6813F4002F04D1236CDC
:10096C009BB12046984710E0A36C73B12046984782
:10097C000BE01A6812F4807F03D11A6822F0080287
:10098C001A60236C0BB120469847E26D20239340EC
:10099C00334255D02268126812F0100F50D0BB6051
:1009AC0094F83530DBB2052B0ED023681A6812F49C
:1009BC00802F33D01B6813F4002F2AD1636C002BCB
:1009CC003ED0204698473BE02268136823F016037C
:1009DC0013602268536923F080035361236CA3B125
:1009EC002268136823F008031360E26D3F239340E1
:1009FC00BB60002384F83430012384F83530236D38
:100A0C00002B3FD0204698473CE0A36C002BE7D14D
:100A1C00EBE7E36BA3B12046984711E01A6812F498
:100A2C00807F09D11A6822F010021A60002384F822
:100A3C003430012384F83530E36B0BB120469847F2
:100A4C00636DFBB1636D13F0010F17D0052384F8B0
:100A5C0035302268136823F001031360019B0133C6
:100A6C000193AB4204D823681B6813F0010FF5D136
:100A7C00002384F83430012384F83530E36C0BB157
:100A8C002046984703B0F0BD08000020B5814E1BEE
:100A9C0000230F2B00F2E380F0B482B039E009227E
:100AAC0000E00022B2403A4302346D4E46F8242056
:100ABC006C4A1468EA4302EA04064F6817F4803F54
:100ACC0001D045EA0406674C2660646802EA040615
:100ADC004F6817F4003F01D045EA0406614C66608C
:100AEC00A46802EA04064F6817F4801F01D045EA97
:100AFC0004065C4CA660E46822404E6816F4001FA5
:100B0C0001D045EA0402574CE26001330F2B00F28E
:100B1C00A38001229A400C6804EA0205AA42F4D18F
:100B2C004C68022C01D0122C10D1DE08083650F87B
:100B3C0026C003F00704A7000F24BC402CEA040CC9
:100B4C000C69BC4044EA0C0440F8264004685F0081
:100B5C000326BE40F64306EA040C4C6804F003047A
:100B6C00BC4044EA0C0404604C6804F1FF3CBCF14A
:100B7C00010F03D9112C01D0122C10D1846806EA74
:100B8C00040CCC68BC4044EA0C048460446824EA3D
:100B9C0002024C68C4F300149C4014434460C268C5
:100BAC0016408A68BA403243C2604A6812F0805FCD
:100BBC00ABD0002201922C4A546C44F4804454640F
:100BCC00526C02F480420192019A9C08A61C244AA1
:100BDC0052F8267003F0030296000F22B24027EA67
:100BEC000207224A90423FF45CAF02F580629042C9
:100BFC0022D002F58062904220D002F580629042B1
:100C0C001ED002F5806290421CD002F580629042A8
:100C1C001AD002F58062904218D002F580629042A0
:100C2C0016D002F58062904214D002F58062904298
:100C3C003FF435AF0A2235E7012233E7022231E7D0
:100C4C0003222FE704222DE705222BE7062229E7B2
:100C5C00072227E7082225E702B0F0BC704770474F
:100C6C0000380140003C01400038024000000240C6
:100C7C00002800F0BB8170B582B00446036813F005
:100C8C00010F3BD0A74B9B6803F00C03042B2CD01B
:100C9C00A44B9B6803F00C03082B21D06368B3F5BD
:100CAC00803F4FD0B3F5A02F52D09E4B1A6822F440
:100CBC0080321A601A6822F480221A606368002B52
:100CCC0050D0FFF757FC0546964B1B6813F4003FBA
:100CDC0014D1FFF74FFC401B6428F5D903208AE19F
:100CEC00904B5B6813F4800FD8D08E4B1B6813F4B9
:100CFC00003F03D06368002B00F07A81236813F067
:100D0C00020F55D0874B9B6813F00C0F3ED0854BD0
:100D1C009B6803F00C03082B33D0E368002B68D0DE
:100D2C00814B01221A60FFF725FC05467D4B1B68A1
:100D3C0013F0020F54D1FFF71DFC401B0228F5D90C
:100D4C00032058E1774A136843F480331360B5E706
:100D5C00744B1A6842F480221A601A6842F480328A
:100D6C001A60ABE7FFF706FC05466E4B1B6813F4E5
:100D7C00003FC3D0FFF7FEFB401B6428F5D90320CE
:100D8C0039E1684B5B6813F4800FC6D1654B1B6867
:100D9C0013F0020F04D0E368012B01D001202AE1EB
:100DAC00604A136823F0F803216943EAC103136016
:100DBC00236813F0080F40D0636963B35B4B0122C7
:100DCC001A60FFF7D7FB0546564B5B6F13F0020F0B
:100DDC0033D1FFF7CFFB401B0228F5D903200AE1E2
:100DEC00504A136823F0F803216943EAC1031360E6
:100DFC00DEE74D4B00221A60FFF7BCFB0546494B62
:100E0C001B6813F0020FD3D0FFF7B4FB401B022872
:100E1C00F5D90320EFE0454B00221A60FFF7AAFB3F
:100E2C000546404B5B6F13F0020F06D0FFF7A2FB99
:100E3C00401B0228F5D90320DDE0236813F0040FD2
:100E4C0079D0384B1B6C13F0805F33D100230193A6
:100E5C00344B1A6C42F080521A641B6C03F08053B2
:100E6C000193019B0125324B1B6813F4807F23D027
:100E7C00A368012B34D0052B38D02A4B1A6F22F0E3
:100E8C0001021A671A6F22F004021A67A368002B7A
:100E9C0036D0FFF76FFB0646224B1B6F13F0020F89
:100EAC0048D1FFF767FB801B41F288339842F3D996
:100EBC000320A0E00025D6E71D4A136843F4807395
:100ECC001360FFF757FB0646194B1B6813F4807F22
:100EDC00CED1FFF74FFB801B0228F5D903208AE007
:100EEC00104A136F43F001031367CFE70D4B1A6FD2
:100EFC0042F004021A671A6F42F001021A67C5E742
:100F0C00FFF738FB0646074B1B6F13F0020F11D08F
:100F1C00FFF730FB801B41F288339842F3D9032052
:100F2C0069E000BF0038024000004742800E474293
:100F3C0000700040E5B9A369002B5BD0304A926881
:100F4C0002F00C02082A58D0022B17D02D4B00228D
:100F5C001A60FFF70FFB0446294B1B6813F0007F48
:100F6C0042D0FFF707FB001B0228F5D9032042E013
:100F7C00234A136C23F080531364DCE7214B0022CB
:100F8C001A60FFF7F7FA05461D4B1B6813F0007F3C
:100F9C0006D0FFF7EFFA401B0228F5D903202AE010
:100FAC00E369226A1343626A43EA8213A26A520813
:100FBC00013A43EA0243E26A43EA0263104A53608D
:100FCC00104B01221A60FFF7D5FA04460C4B1B6834
:100FDC0013F0007F06D1FFF7CDFA001B0228F5D9DC
:100FEC00032008E0002006E0002004E00120704708
:100FFC00012000E0002002B070BD0120FBE700BF23
:10100C000038024060004742264B9B6803F00C03FB
:10101C00042B44D0082B01D0234870472DE9F04B0A
:10102C00204B5A6802F03F025B6813F4800F13D018
:10103C001C4B5968C1F3881100231C48A1FB00010B
:10104C00FFF7CEF8174B5B68C3F3014301335B002A
:10105C00B0FBF3F0BDE8F08B124B5B68C3F3881365
:10106C001E4600275C010025E41A65EB0705A90163
:10107C0041EA9461A001001B61EB0501CB0043EA3E
:10108C005073C400A01943EB07018B0243EA905341
:10109C008402204619460023FFF7A2F8D2E7034842
:1010AC00704700BF003802400024F40040787D01F6
:1010BC00002800F09D8070B504464F4B1B6803F070
:1010CC000F038B4209D2CBB24B4A1370136803F057
:1010DC000F038B4201D0012070BD236813F0020F67
:1010EC0017D013F0040F04D0444A936843F4E05330
:1010FC009360236813F0080F04D0404A936843F4BC
:10110C00604393603D4A936823F0F003A068034367
:10111C0093600D46236813F0010F32D06368012BE6
:10112C0021D09A1E012A25D9344A126812F0020FD6
:10113C0060D032498A6822F0030213438B60FFF7B8
:10114C0019FA06462D4B9B6803F00C036268B3EB4F
:10115C00820F16D0FFF70EFA801B41F288339842AB
:10116C00F0D90320B8E7254A126812F4003FE0D109
:10117C000120B1E7214A126812F0007FD9D1012079
:10118C00AAE71D4B1B6803F00F03AB4209D9EAB267
:10119C00194B1A701B6803F00F03AB4201D00120EE
:1011AC009AE7236813F0040F06D0144A936823F4CB
:1011BC00E053E1680B439360236813F0080F07D0EA
:1011CC000E4A936823F46043216943EAC103936098
:1011DC00FFF71AFF094B9B68C3F30313084AD35C50
:1011EC00D840084B18600020FFF77AF9002073E70D
:1011FC000120704701206FE7003C0240003802409C
:10120C00B424000808000020014B1868704700BF88
:10121C000800002070B4036A23F001030362036A20
:10122C004268846924F073040D6845EA040623F0CF
:10123C0002048B6823430C4DA84202D00B4CA042F5
:10124C000BD123F00803CD682B4323F0040322F4C5
:10125C0040724D6915438A692A43426086614A6827
:10126C004263036270BC70470000014000040140FF
:10127C0030B4036A23F480730362036A4268C4695E
:10128C0024F073040D682C4323F400738D6843EA37
:10129C0005230E4DA84203D005F58065A8420ED15A
:1012AC0023F40063CD6843EA052323F4806322F41E
:1012BC0040524D6942EA05128D6942EA05124260BC
:1012CC00C4614A68C263036230BC704700000140CD
:1012DC0030B4036A23F480530362036A4468C2691E
:1012EC0022F4E6420D6842EA052223F400538D688D
:1012FC0043EA0533094DA84203D005F58065A842A1
:10130C0004D124F480444D6944EA85144460C261DC
:10131C004A680264036230BC704700BF00000140A1
:10132C0010B4036A046A24F001040462846924F092
:10133C00F00444EA021223F00A030B4382610362B5
:10134C005DF8044B704730B4046A24F01004046256
:10135C008469056A24F4407444EA022222F470423F
:10136C001B039BB21A4325F0A005090101F0A00153
:10137C0029438261016230BC704710B4036A23F0C8
:10138C00100303628469036A24F4704444EA023251
:10139C0023F0A00343EA0113826103625DF8044B5E
:1013AC00704730B4046A24F480740462C469056A1A
:1013BC0024F00304224322F0F0021B01DBB21A4397
:1013CC0025F42065090201F420612943C261016200
:1013DC0030BC704730B4046A24F480540462C4698D
:1013EC00056A24F4407444EA022222F470421B037E
:1013FC009BB21A4325F42045090301F420412943EB
:10140C00C261016230BC7047836823F0700341F005
:10141C00070119438160704710B4846824F47F4439
:10142C0042EA03230B43234383605DF8044B70476C
:10143C0010B50468A26822F070024B68134323F0C5
:10144C0007030A681343A3604B68502B1ED00AD9BC
:10145C00602B21D0702B05D10B698A68C968006894
:10146C00FFF7DAFF10BD402BFCD103681C6A1A6A27
:10147C0022F001021A620268936923F0F0030969F1
:10148C0043EA0113936103681C62EBE70A698968FC
:10149C000068FFF745FFE5E70A6989680068FFF710
:1014AC006CFFDFE77047704790F83830012B7DD028
:1014BC0010B50446012380F83830022380F8393007
:1014CC000268936823F47F4323F0770393600B68DF
:1014DC00402B57D010D9702B3ED01FD8502B47D053
:1014EC00602B32D1CA6849680068FFF746FF60215B
:1014FC002068FFF789FF28E0102B4DD008D9202B4E
:10150C004FD0302B21D130210068FFF77DFF1CE03C
:10151C00DBB900210068FFF777FF16E0B3F5805FB9
:10152C000ED0B3F5005F10D1CB684A6889680068AB
:10153C00FFF772FF2268936843F48043936004E0E2
:10154C000268936823F007039360012384F8393011
:10155C00002084F8380010BDCB684A6889680068A0
:10156C00FFF75AFF2268936843F077039360ECE728
:10157C00CA6849680068FFF7D3FE50212068FFF75E
:10158C0043FFE2E7CA6849680068FFF7C9FE4021DB
:10159C002068FFF739FFD8E710210068FFF734FF08
:1015AC00D3E720210068FFF72FFFCEE7022070471A
:1015BC0038B590F83830012B18D00446012580F846
:1015CC003850022380F83930FFF732FF2268D36895
:1015DC0023F04003D3602268D36823F48043D360A4
:1015EC0084F83950002084F8380038BD0220FCE71C
:1015FC00034690F83820012A1ED0012280F83820AA
:10160C000C2917D8DFE801F0071616160D1616165A
:10161C001016161613000268506B002283F838203F
:10162C0070470268906BF8E70268D06BF5E70268C8
:10163C00106CF2E70020F0E702207047704710B5FD
:10164C00846B012384F83930236A83420BD0636A9C
:10165C00834210D0A36A834210D0E36A834204D140
:10166C000823237601E0012323762046FFF7E6FFCB
:10167C000023237610BD02232376F6E7042323767A
:10168C00F3E7704708B5806B012380F83930FFF71A
:10169C00F8FF08BD03682E4A904212D0B0F1804F7B
:1016AC000FD0A2F57C4290420BD002F580629042A2
:1016BC0007D002F58062904203D002F57842904246
:1016CC0003D123F070034A681343214A90422AD075
:1016DC00B0F1804F27D0A2F57C42904223D002F586
:1016EC00806290421FD002F5806290421BD002F5BE
:1016FC007842904217D002F57052904213D002F506
:10170C00806290420FD002F5806290420BD0A2F51D
:10171C009832904207D002F58062904203D002F5D5
:10172C008062904203D123F44073CA681343036070
:10173C008B68C3620B688362054B984203D003F538
:10174C008063984201D10B690363012343617047A5
:10175C0000000140A8B110B5044690F839305BB1D7
:10176C00022384F83930211D2068FFF793FF0123F1
:10177C0084F83930002010BD80F8383000F052FD6C
:10178C00EEE701207047A8B110B5044690F8393047
:10179C005BB1022384F83930211D2068FFF77AFFF2
:1017AC00012384F83930002010BD80F83830FFF761
:1017BC0079FEEEE701207047A8B110B5044690F809
:1017CC0039305BB1022384F83930211D2068FFF7D2
:1017DC0061FF012384F83930002010BD80F83830C7
:1017EC00FFF761FEEEE701207047002847D0F8B5FF
:1017FC0005460C4690F83930002B3BD0022385F877
:10180C003930294651F8042B936823F00703936071
:10181C002868FFF73FFF29688A688E690F6A20687D
:10182C00104326F4407626F00306A268A36942EA28
:10183C000323334323F47C4323F0FC03E668E2697F
:10184C0046EA02261E43226A1303226943EA021364
:10185C00334327F0AA076268646942EA04123A43E8
:10186C00886029688B612B681A62012385F83930EE
:10187C000020F8BD80F8383000F038FDBEE70120BC
:10188C007047000070B4046A24F001040462846997
:10189C00056A1A4EB0421FD0B0F1804F1CD0A6F58D
:1018AC007C46B04218D006F58066B04214D006F5DE
:1018BC008066B04210D006F57846B0420CD006F5E2
:1018CC007056B04208D0A6F59436B04204D024F03D
:1018DC00030242F0010202E024F00304224322F04E
:1018EC00F0021B01DBB2134325F00A0201F00A01DE
:1018FC0011438361016270BC704700BF000001405E
:10190C0038B590F83830012B58D00D4604460123D9
:10191C0080F83830022380F83930DAB1042A2AD022
:10192C00082A3AD0CB684A6809680068FFF752FD6C
:10193C002268D36923F44063D3612268D369A96810
:10194C0043EA0123D361012384F83930002084F861
:10195C00380038BDCB684A6809680068FFF792FF09
:10196C002268936923F00C03936122689369A96838
:10197C000B439361E7E7CB684A6809680068FFF797
:10198C00E2FC2268936923F44063936122689369B3
:10199C00A96843EA01239361D5E7CB684A680968D3
:1019AC000068FFF7FEFC2268D36923F00C03D361B7
:1019BC002268D369A9680B43D361C4E70220C8E746
:1019CC0030B4036A23F010030362036A446882692B
:1019DC0022F4E6420D6842EA052223F020038D68CA
:1019EC0043EA05130E4DA84203D005F58065A842C5
:1019FC000ED123F08003CD6843EA051323F0400396
:101A0C0024F440644D6944EA85048D6944EA8504F4
:101A1C00446082614A688263036230BC704700BFD5
:101A2C000000014038B590F83830012B66D00D46D7
:101A3C000446012380F83830022380F839300C2A10
:101A4C001AD8DFE802F007191919201919193419D5
:101A5C00191947000068FFF7DDFB2268936943F012
:101A6C00080393612268936923F00403936122684D
:101A7C00936929690B439361012384F83930002061
:101A8C0084F8380038BD0068FFF79AFF2268936924
:101A9C0043F4006393612268936923F48063936138
:101AAC0022689369296943EA01239361E4E700689A
:101ABC00FFF7DEFB2268D36943F00803D361226889
:101ACC00D36923F00403D3612268D36929690B43DA
:101ADC00D361D1E70068FFF7FBFB2268D36943F4BD
:101AEC000063D3612268D36923F48063D3612268D5
:101AFC00D369296943EA0123D361BDE70220C1E719
:101B0C0010B4012303FA01F4036A23EA0403036209
:101B1C00036A8A40134303625DF8044B704700006C
:101B2C0070B590F83960F6B2022E7AD090F8394040
:101B3C00E4B2012C0DD016460D4604460C2922D8D1
:101B4C00DFE801F010212121392121214B21212114
:101B5C005D001AB1022480F83940ECE7002BF9D073
:101B6C00012027E0026A3049D163026A2F49D1640F
:101B7C00026834323146006AFEF762FE2268D3688E
:101B8C0043F40073D360012229462068FFF7B8FFA5
:101B9C002368274A934203D002F58062934203D113
:101BAC005A6C42F400425A642268136843F00103F1
:101BBC001360002070BD426A1B49D163426A1B4905
:101BCC00D164026838323146406AFEF739FE226829
:101BDC00D36843F48063D360D5E7826A1249D1633A
:101BEC00826A1249D16402683C323146806AFEF73F
:101BFC0027FE2268D36843F40063D360C3E7C26A4C
:101C0C000949D163C26A0949D1640268403231463C
:101C1C00C06AFEF715FE2268D36843F48053D36084
:101C2C00B1E70220C6E700BF4B160008911600086A
:101C3C000000014010B5044601220068FFF760FF68
:101C4C002268136843F001031360002010BD10B527
:101C5C00044661B1042916D0012200210068FFF767
:101C6C004FFF012204212068FFF74AFF04E0012204
:101C7C0000210068FFF744FF2268136843F001035A
:101C8C001360002010BD012204210068FFF738FF0B
:101C9C00F2E790F83830012B22D030B4012280F8D2
:101CAC003820022380F839300468636823F070030D
:101CBC006360046863680D682B4363600468A36801
:101CCC0023F08003A3600468A36849680B43A360F6
:101CDC0080F83920002380F83830184630BC704723
:101CEC000220704790F83830012B25D0012380F862
:101CFC003830CB6823F440738A68134323F4806331
:101D0C004A68134323F400630A68134323F4805393
:101D1C000A69134323F400534A69134323F48043A1
:101D2C008A69134323F4004313430268536400236A
:101D3C0080F83830184670470220704784B0002273
:101D4C000192104B196B41F001011963196B01F0F1
:101D5C000101019101990292196B41F01001196373
:101D6C00196B01F010010291029903921A6B42F067
:101D7C0008021A631B6B03F008030393039B04B064
:101D8C00704700BF0038024000B583B000210191BC
:101D9C00094B1A6B42F480021A631B6B03F4800329
:101DAC000193019B0A463C20FEF7FCFB3C20FEF70E
:101DBC002DFC03B05DF804FB00380240FEE7000088
:101DCC0000B591B03648374B036040F2F3134360D3
:101DDC000023836040F2CF72C2600361FFF7BAFC4C
:101DEC0000283AD110A94FF4805341F8103D2C48EB
:101DFC00FFF75AFB002835D12948FFF7DDFC0028F6
:101E0C0035D10423079350230893002309930A9395
:101E1C000B9307A92248FFF7CBFB68BB0022039268
:101E2C00012304930592069203A91D48FFF768FD50
:101E3C0038BB022303930493042203A91848FFF729
:101E4C005FFD18BB00230193029301A91448FFF70F
:101E5C0020FF00BB11B05DF804FB4FF4A3711248D6
:101E6C00FFF7ACFF4FF4A6710F48FFF7A7FF40F246
:101E7C0051110D48FFF7A2FF40F25B110A48FFF722
:101E8C009DFF4FF4B2710848FFF798FF40F26B11B9
:101E9C000548FFF793FF4FF4B9710348FFF78EFF26
:101EAC009400002000080040CC24000800B595B038
:101EBC003248334B036042F20F734360002383605C
:101ECC006322C26003614361FFF744FC00283BD1ED
:101EDC0014A94FF4805341F8103D2848FFF7E4FA59
:101EEC00002835D12548FFF74EFC002834D10023BB
:101EFC000E930F930EA92148FFF7CBFE00282FD18C
:101F0C006023079332230893002309930B930C93BC
:101F1C000D930C2207A91948FFF784FD20BB002361
:101F2C00009301930293039304934FF40052059290
:101F3C00069369461148FFF7D5FED0B90F4800F05B
:101F4C00FDF915B05DF804FBE3210E48FFF736FFF1
:101F5C00E9210C48FFF732FFEE210A48FFF72EFF6C
:101F6C00F5210848FFF72AFF4FF480710548FFF769
:101F7C0025FF4FF486710348FFF720FF1401002062
:101F8C0000000140CC24000810B58CB01748184B49
:101F9C00036000234360836040F29312C2600361CC
:101FAC0003220392022404940121059106930F222B
:101FBC000792089409910A930B9203A9FFF715FC59
:101FCC0048B900230193029301A90848FFF761FE69
:101FDC0030B90CB010BD4FF495710648FFF7EEFE0A
:101FEC0040F231110348FFF7E9FE00BFD400002096
:101FFC0000040040CC24000800B595B000220192EA
:10200C002B4B196C41F0805119641B6C03F08053FD
:10201C000193019B029227490B6823F4404343F43C
:10202C0080430B600B6803F440430293029B022332
:10203C00089301210B9110210C910E930F92082201
:10204C0010926422119212930423139308A8FEF7A2
:10205C000FFE20BB0F23039302230493002305934D
:10206C004FF4A05306934FF480530793032103A816
:10207C00FFF71EF8B8B9FFF7C7F80F4BA3FB0030FA
:10208C008009FEF7CFFA0420FEF7E2FA002211468F
:10209C004FF0FF30FEF786FA15B05DF804FBB52162
:1020AC000648FFF78BFEC3210448FFF787FE00BFED
:1020BC000038024000700040D34D6210CC24000860
:1020CC0008B5FEF731FAFFF797FFFFF737FEFFF77A
:1020DC005BFEFFF775FEFFF7E9FEFFF755FF0123E7
:1020EC00204A0C212048FFF71BFD18211F48FFF741
:1020FC00AEFD1F4C00212046FFF79CFD042120461D
:10210C00FFF798FD1B4B5B6AC3F38F031A4A1380CE
:10211C001288144B1A60164D00212846FFF768FAF6
:10212C00013080B2154C208004212846FFF760FA5C
:10213C0080B213490880228802EB82029300114A74
:10214C0082FB0323DB09104A13800A88642303FBF8
:10215C0002F3228892B293FBF2F39BB20B4A1380E8
:10216C00D0E700BF2800002014010020D40000207C
:10217C0094000020000400401001002050010020B9
:10218C00D0000020D34D621030000020D20000207F
:10219C0010B582B000240094214B5A6C42F480425A
:1021AC005A645A6C02F480420092009A01941A6CA0
:1021BC0042F080521A641B6C03F080530193019B14
:1021CC000320FEF7DDF9224621466FF00B00FEF7E7
:1021DC00E9F9224621466FF00A00FEF7E3F92246A0
:1021EC0021466FF00900FEF7DDF9224621466FF01B
:1021FC000400FEF7D7F9224621466FF00300FEF7E4
:10220C00D1F9224621466FF00100FEF7CBF92246A8
:10221C0021464FF0FF30FEF7C5F902B010BD00BFEC
:10222C000038024010B588B003682A4A934204D0A3
:10223C00294A934234D008B010BD044600230193C0
:10224C0002F59C32516C41F001015164526C02F068
:10225C0001020192019A2148214A02604FF040622A
:10226C00426040228260C3604FF4806202614FF48E
:10227C00006242614FF4005282614FF48072C2617D
:10228C0003624362FEF776FA28B9144BE362636388
:10229C0023639C63CFE76E211248FFF78FFDF4E7B1
:1022AC000023029302F50C32116C41F0040111640D
:1022BC00126C02F004020292029A4FF480520392C2
:1022CC000222049205930693079203A90648FEF78F
:1022DC00DFFBB0E7000001400008004034000020A4
:1022EC0070640240DC240008000C02400268114BB0
:1022FC009A4200D0704700B587B00021009103F5D9
:10230C000D331A6C42F002021A641B6C03F00203C8
:10231C000093009BC023019302230293012203929A
:10232C000491059301A90448FEF7B2FB07B05DF8D0
:10233C0004FB00BF000400400000024002680B4B8D
:10234C009A4200D0704700B587B04FF48043019398
:10235C00022302930023039304930123059301A901
:10236C000348FEF795FB07B05DF804FB0000014045
:10237C00001002407047FEE7FEE7FEE7FEE77047FD
:10238C007047704708B5FEF7E9F8FEF772F908BD1B
:10239C0008B50248FEF78EFA08BD00BF34000020D5
:1023AC000F49D1F8883043F47003C1F888300D4BD5
:1023BC001A6842F001021A60002098601A6822F034
:1023CC00847222F480321A60074A5A601A6822F426
:1023DC0080221A60D8604FF000638B60704700BF9A
:1023EC0000ED00E00038024010300024DFF834D05B
:1023FC00002103E00C4B5B58435004310B480C4B51
:10240C0042189A42F6D30B4A02E0002342F8043BEE
:10241C00094B9A42F9D3FFF7C3FF00F011F8FFF70D
:10242C004FFE704700000320082500080000002024
:10243C000C0000200C00002054010020FEE70000DE
:10244C0070B50D4E0D4CA41BA4100025A54209D14E
:10245C000B4E0C4C00F018F8A41BA4100025A54240
:10246C0005D170BD56F8253098470135EEE756F882
:10247C00253098470135F2E70025000800250008B3
:10248C000025000804250008F8B500BFF8BC08BCFE
:10249C009E467047F8B500BFF8BC08BC9E46704716
:1024AC0000061016000610160000000000000000C8
:1024BC0001020304060708090000000001020304DE
:1024CC002E2E2F5372632F6D61696E2E63000000E8
:1024DC002E2E2F5372632F73746D333266347878CB
:0C24EC005F68616C5F6D73702E63000010
:0824F80024DDFF7F010000005C
:04250000D1010008FD
:04250400AD0100081D
:0C25080001000000100000000024F4009E
:04000005080023F9D3
:00000001FF
