:020000040800F2
:1000000000280020E52F0008652F0008672F000852
:10001000692F00086B2F00086D2F000800000000FA
:100020000000000000000000000000006126000841
:100030006F2F00080000000001270008712F000842
:100040002D3000082D3000082D3000082D3000081C
:100050002D3000082D3000082D3000082D3000080C
:100060002D3000082D3000082D3000082D300008FC
:100070002D3000082D3000082D3000082D300008EC
:100080002D3000082D3000082D3000082D300008DC
:100090002D3000082D3000082D3000082D300008CC
:1000A0002D300008792F00082D3000082D30000871
:1000B0002D3000082D300008000000002D30000811
:1000C0002D30000800000000000000002D30000866
:1000D000000000002D300008892F000800000000FB
:1000E0002D3000082D3000082D30000800000000E1
:1000F0000000000000000000000000000000000000
:0C01000000000000000000005FF808F1A3
:1001100010B5054C237833B9044B13B10448AFF341
:1001200000800123237010BD10000020000000009B
:100130009030000808B5034B1BB103490348AFF3E7
:10014000008008BD0000000014000020903000086E
:1001500008B5074A136843F010031360032000F04A
:100160001BF8002002F0C2FE02F014FE002008BDC1
:1001700000200240034A1168034B1B780B441360B4
:10018000704700BF0015002000000020014B1868D8
:10019000704700BF00150020074AD36823F4E063CE
:1001A0001B041B0C000200F4E060184340F0BF6029
:1001B00040F40030D060704700ED00E030B4174BE1
:1001C000DB68C3F30223C3F10704042C28BF042413
:1001D0001D1D062D18D9033B4FF0FF3505FA04F419
:1001E00021EA0401994005FA03F322EA03031943C3
:1001F00000280BDB0901C9B200F1604000F5614045
:1002000080F8001330BC70470023E5E700F00F00D2
:100210000901C9B2024B1954F4E700BF00ED00E038
:1002200014ED00E000F01F02400901239340024A50
:1002300042F82030704700BF00E100E00138B0F123
:10024000807F0AD2064B5860064AF02182F82310BC
:100250000020986007221A6070470120704700BF95
:1002600010E000E000ED00E0042805D0054A136826
:1002700023F0040313607047024A136843F0040339
:100280001360704710E000E008B590F82130022BB1
:1002900003D004238363012008BD0268136823F0A0
:1002A0000E0313600268136823F0010313600368F0
:1002B000194A934214D0143293421FD014329342FD
:1002C0001ED0143293421ED0143293421ED01432E8
:1002D000934202D04FF0807203E04FF4801200E0AE
:1002E00001220E4B5A60012380F82130002380F850
:1002F0002030436B6BB198470020CDE71022F0E728
:100300004FF48072EDE74FF48052EAE74FF4803209
:10031000E7E70020C0E700BF0800024000000240FD
:10032000F0B482B00026354668E0002C00F09680DC
:10033000012C00D1CE68FF2B00F2A4808446FF2B55
:1003400000F2A380AC00DCF800200F27A74022EACF
:10035000070206FA04F42243CCF800204A6812F09F
:10036000805F4AD05B4A946944F0010494619269C9
:1003700002F001020192019AAC08A71C564A52F8F9
:10038000272005F00307BF004FF00F0C0CFA07FC05
:1003900022EA0C0C514A90427DD002F580629042D4
:1003A0007BD002F58062904273D00322BA4042EAC9
:1003B0000C020234484F47F824204A6812F4803F68
:1003C0006DD0474C22681A4322604A6812F4003FFD
:1003D0006BD0434C62681A4362604A6812F4801F13
:1003E00069D03F4CA2681A43A2604A6812F4001F09
:1003F00067D03B4CE2681343E36001350F2D66D8AC
:100400000122AA400B6813409A42F6D14C68122C84
:100410002ED009D8022C28D087D9032C2ED0112C0D
:1004200089D1CE68043686E72E4FBC4216D00CD94F
:100430002D4FBC4212D007F58037BC420ED0A7F535
:100440008017BC427FF477AF08E0A7F58017BC4265
:1004500004D007F58037BC427FF46DAF8C687CB167
:10046000012C08D04261082665E7CE68083662E7AD
:10047000CE680C365FE7026108265CE700265AE783
:10048000042658E700F1040C59E7A5F10804A4007C
:1004900059E702228AE7002288E7012286E7104C0A
:1004A000226822EA030222608FE70D4C626822EA8A
:1004B0000302626091E70A4CA26822EA0302A2608A
:1004C00093E7074CE26822EA0303E36095E702B092
:1004D000F0BC7047001002400000014000080140DD
:1004E00000040140000021100000311012B909047D
:1004F000016170470161704782B0084B1B68084A70
:10050000A2FB03235B0A00FB03F0019000BF019BE9
:100510005A1E0192002BF9D102B070470C00002046
:10052000D34D621070B582B00446036813F0010F1A
:100530002CD0AB4B5B6803F00C03042B1DD0A84BF5
:100540005B6803F00C03082B12D06368B3F5803F9F
:1005500041D0002B55D103F1804303F504331A68D1
:1005600022F480321A601A6822F480221A6037E07E
:100570009B4B5B6813F4803FE7D0994B1B6813F4E7
:10058000003F03D06368002B00F0AE81236813F0B6
:10059000020F76D0924B5B6813F00C0F5FD0904B3C
:1005A0005B6803F00C03082B54D02369002B00F088
:1005B0008A808C4B01221A60FFF7E8FD0546884BC4
:1005C0001B6813F0020F75D1FFF7E0FD401B0228F6
:1005D000F5D903208BE1824A136843F4803313601A
:1005E000636843B3FFF7D2FD05467D4B1B6813F4E8
:1005F000003FCBD1FFF7CAFD401B6428F5D903208B
:1006000075E1B3F5A02F09D0754B1A6822F480323A
:100610001A601A6822F480221A60E1E703F180432D
:10062000A3F53C331A6842F480221A601A6842F437
:1006300080321A60D4E7FFF7A9FD0546684B1B68B6
:1006400013F4003FA2D0FFF7A1FD401B6428F5D9A9
:1006500003204CE1624B5B6813F4803FA5D1604BF3
:100660001B6813F0020F04D02369012B01D0012075
:100670003DE15B4A136823F0F803616943EAC10373
:100680001360236813F0080F32D0A369002B5BD0EE
:10069000554B01221A60FFF779FD0546504B5B6A06
:1006A00013F0020F21D1FFF771FD401B0228F5D98D
:1006B00003201CE14A4A136823F0F803616943EA06
:1006C000C1031360DDE7474B00221A60FFF75EFDB0
:1006D0000546434B1B6813F0020FD2D0FFF756FDBF
:1006E000401B0228F5D9032001E10120FFF704FF98
:1006F000236813F0040F00F09780394BDB6913F087
:10070000805F33D1364BDA6942F08052DA61DB69BF
:1007100003F080530193019B0125344B1B6813F4B4
:10072000807F25D0E368012B36D0002B4CD103F11C
:10073000804303F504331A6A22F001021A621A6A2E
:1007400022F004021A622CE0274B00221A60FFF705
:100750001DFD0546224B5B6A13F0020FC8D0FFF760
:1007600015FD401B0228F5D90320C0E00025D4E781
:100770001E4A136843F480731360FFF707FD0646B3
:100780001A4B1B6813F4807FCCD1FFF7FFFC801B52
:100790006428F5D90320AAE0114A136A43F0010343
:1007A0001362E36873B3FFF7F1FC06460C4B1B6A58
:1007B00013F0020F37D1FFF7E9FC801B41F28833B9
:1007C0009842F3D9032092E0052B11D0044B1A6A0A
:1007D00022F001021A621A6A22F004021A62E0E7A9
:1007E000001002400000424280044242007000407B
:1007F000414B1A6A42F004021A621A6A42F001027C
:100800001A62CEE7FFF7C2FC06463B4B1B6A13F0A9
:10081000020F08D0FFF7BAFC801B41F288339842E0
:10082000F3D9032063E0E5B9E369002B5ED0324AD7
:10083000526802F00C02082A5BD0022B17D02F4B13
:1008400000221A60FFF7A2FC04462B4B1B6813F032
:10085000007F47D0FFF79AFC001B0228F5D9032040
:1008600045E0254AD36923F08053D361DCE7234B6D
:1008700000221A60FFF78AFC05461F4B1B6813F025
:10088000007F06D0FFF782FC401B0228F5D9032029
:100890002DE0236AB3F5803F1AD017494B6823F443
:1008A0007413226A606A024313434B60134B0122A4
:1008B0001A60FFF76BFC04460F4B1B6813F0007FB8
:1008C0000ED1FFF763FC001B0228F5D903200EE0D0
:1008D000094A536823F40033A1680B435360DCE7F3
:1008E000002004E0002002E0012000E0002002B02F
:1008F00070BD0120FBE700BF0010024060004242D3
:1009000010B487B0164C94E80F000DF1180C0CE9E8
:100910000F00238AADF80430124B5B6803F00C0221
:10092000082A1AD1C3F38342624412F8102C13F43C
:10093000803F05D10C4800FB02F007B010BC7047A7
:10094000084B5B68C3F34043634413F8143C074807
:1009500000FB02F0B0FBF3F0EFE70448EDE700BF67
:10096000A83000080010024000093D0000127A0083
:10097000594B1B6803F007038B420CD2564A13688D
:1009800023F007030B431360136803F007038B4244
:1009900001D00120704770B5036813F0020F06D034
:1009A0004E4A536823F0F0038468234353600C4697
:1009B0000546036813F0010F52D04368012B23D082
:1009C000022B28D0454A126812F0020F00F08280F4
:1009D00042494A6822F0030213434B60FFF7D6FBFB
:1009E00006466B68012B1DD0022B2AD03B4B5B685F
:1009F00013F00C0F34D0FFF7C9FB801B41F2883392
:100A00009842F3D9032064E0344A126812F4003F9C
:100A1000DED101205DE0314A126812F0007FD7D1AB
:100A2000012056E02D4B5B6803F00C03042B17D01C
:100A3000FFF7ACFB801B41F288339842F2D90320C8
:100A400047E0264B5B6803F00C03082B08D0FFF748
:100A50009DFB801B41F288339842F2D9032038E095
:100A60001D4B1B6803F00703A3420CD91A4A1368F5
:100A700023F0070323431360136803F00703A34223
:100A800001D0012025E02B6813F0040F06D0134A93
:100A9000536823F4E063E9680B4353602B6813F059
:100AA000080F07D00D4A536823F46053296943EABD
:100AB000C1035360FFF724FF084B5B68C3F30313C4
:100AC000074AD35CD840074B1860002002F00EFAAA
:100AD000002070BD0120FCE7002002400010024011
:100AE000283100080C000020014B1868704700BF37
:100AF0000C00002008B5FFF7F7FF044B5B68C3F359
:100B00000223034AD35CD84008BD00BF0010024056
:100B10003831000808B5FFF7E7FF044B5B68C3F303
:100B2000C223034AD35CD84008BD00BF0010024076
:100B3000383100080F2303600B4B5A6802F00302A0
:100B400042605A6802F0F00282605A6802F4E06281
:100B5000C2605B68DB0803F4E0630361034B1B685E
:100B600003F007030B6070470010024000200240B2
:100B700070470268D36843F00103D36002681368CA
:100B800043F00103136000207047704770477047BF
:100B9000704710B5044603681A6912F0020F11D0AD
:100BA000DA6812F0020F0DD06FF002021A61012311
:100BB000037703689B6913F0030F70D0FFF7E6FF1C
:100BC0000023237723681A6912F0040F12D0DA6821
:100BD00012F0040F0ED06FF004021A610223237783
:100BE00023689B6913F4407F5FD02046FFF7CEFF58
:100BF0000023237723681A6912F0080F12D0DA68ED
:100C000012F0080F0ED06FF008021A610423237748
:100C10002368DB6913F0030F4ED02046FFF7B6FFC1
:100C20000023237723681A6912F0100F12D0DA68B4
:100C300012F0100F0ED06FF010021A610823237704
:100C40002368DB6913F4407F3DD02046FFF79EFF09
:100C50000023237723681A6912F0010F03D0DA68A2
:100C600012F0010F36D123681A6912F0800F03D0F9
:100C7000DA6812F0800F34D123681A6912F0400F3D
:100C800003D0DA6812F0400F32D123681A6912F0EB
:100C9000200F03D0DA6812F0200F30D110BDFFF71B
:100CA00074FF2046FFF773FF8AE72046FFF76DFFCA
:100CB0002046FFF76CFF9BE72046FFF766FF2046C4
:100CC000FFF765FFACE72046FFF75FFF2046FFF721
:100CD0005EFFBDE76FF001021A61204601F070FF70
:100CE000C1E76FF080021A61204600F05BF8C3E7AD
:100CF0006FF040021A612046FFF74AFFC5E76FF028
:100D000020021A61204600F04CF8C7E70368174A32
:100D1000904206D0B0F1804F03D0A2F594329042B9
:100D200003D123F070034A681343104A904206D05F
:100D3000B0F1804F03D0A2F59432904203D123F456
:100D40004073CA68134323F080034A691343036066
:100D50008B68C3620B688362044B984202D0012304
:100D6000436170470B690363F9E700BF002C014042
:100D7000A8B110B5044690F83D305BB1022384F869
:100D80003D30211D2068FFF7C1FF012384F83D306D
:100D9000002010BD80F83C30FFF7EAFEEEE70120AE
:100DA0007047704770470268D36823F49073D3602C
:100DB0000268536923F001035361202380F83A301D
:100DC000704790F83930DBB2212B2AD18368B3F514
:100DD000805F16D0036A5A1C02621A7803685A6050
:100DE000C38C013B9BB2C384EBB90268D36823F088
:100DF0008003D3600268D36843F04003D3600020CF
:100E00007047036A1B880268C3F3080353600369D1
:100E10001BB9036A02330362E2E7036A0133036228
:100E2000DEE7022070470020704700002DE9F843FC
:100E300005460268136923F44053C1680B431361EC
:100E4000836802691343426913430168CA6822F444
:100E5000B05222F00C021343CB600268536923F4B2
:100E6000407381690B4353610268594B9A4257D0D2
:100E7000FFF740FE00EB800000EB80006C68A400F0
:100E8000B0FBF4F4534FA7FB043464092601FFF7C9
:100E900031FE00EB800000EB80006C68A400B0FB2A
:100EA000F4F9FFF727FE00EB800000EB80006C6890
:100EB000A400B0FBF4F4A7FB043464094FF0640809
:100EC00008FB149424013234A7FB0434640904F0B1
:100ED000F0043444FFF70EFE00EB800000EB8000CE
:100EE0006E68B600B0FBF6F6FFF704FE00EB80007C
:100EF00000EB80006B689B00B0FBF3F0A7FB0030B9
:100F0000400908FB10684FEA081808F13208A7FBEF
:100F10000837C7F343172B6827449F60BDE8F88361
:100F2000FFF7F8FD00EB800000EB80006C68A40088
:100F3000B0FBF4F4274FA7FB043464092601FFF744
:100F4000E9FD00EB800000EB80006C68A400B0FBC2
:100F5000F4F9FFF7DFFD00EB800000EB80006C6828
:100F6000A400B0FBF4F4A7FB043464094FF0640858
:100F700008FB149424013234A7FB0434640904F000
:100F8000F0043444FFF7C6FD00EB800000EB800066
:100F90006E68B600B0FBF6F6FFF7BCFD00EB800014
:100FA00000EB80006B689B00B0FBF3F0A7FB003008
:100FB000400908FB10684FEA081808F13208A7FB3F
:100FC0000837C7F343172B6827449F60A6E700BF85
:100FD000003801401F85EB512DE9F04105460F46D1
:100FE00016469846069C2B681B6837EA03030CBF1D
:100FF00001230023B3421DD1B4F1FF3FF3D02CB144
:10100000FFF7C4F8A0EB0800A042ECD92A68D36827
:1010100023F4D073D3602A68536923F0010353612A
:10102000202385F8393085F83A30002385F83830A8
:10103000032000E00020BDE8F08158B310B504465D
:1010400090F839300BB3242384F839302268D36800
:1010500023F40053D3602046FFF7E8FE22681369AB
:1010600023F4904313612268536923F02A035361E8
:101070002268D36843F40053D3600020E063202348
:1010800084F8393084F83A3010BD80F8383001F0F7
:10109000D1FED8E7012070472DE9F04182B01E460D
:1010A00090F83930DBB2202B55D104460D469046DE
:1010B000002955D0002A55D090F83830012B53D054
:1010C000012380F838300023C363212380F83930AE
:1010D000FFF75CF80746A4F82480A4F8268010E007
:1010E00000963B46002280212046FFF775FF00282E
:1010F0003CD12B882268C3F3080353602369C3B92A
:101100000235E38C9BB2B3B1E38C013B9BB2E38429
:10111000A368B3F5805FE3D000963B4600228021B0
:101120002046FFF759FF18BB2A7823685A6001351B
:10113000E7E70135E5E700963B46002240212046DF
:10114000FFF74AFF0346A8B9202284F8392000227D
:1011500084F8382000E00223184602B0BDE8F08190
:101160000123F9E70123F7E70223F5E70323F3E778
:101170000323F1E70323EFE72DE9F04182B01E4698
:1011800090F83A30DBB2202B5AD104460D469046F7
:10119000002959D0002A59D090F83830012B57D067
:1011A000012380F838300023C363222380F83A30CB
:1011B000FEF7ECFF0746A4F82C80A4F82E801DE073
:1011C00000963B46002220212046FFF705FF00281D
:1011D00040D1236933B923685B68C3F3080325F85A
:1011E000023B0BE023685B68DBB225F8013B05E0BE
:1011F00023685B6803F07F032B700135E38D9BB29E
:10120000BBB1E38D013B9BB2E385A368B3F5805F7F
:10121000D6D000963B46002220212046FFF7DCFE78
:10122000D0B92369002BE3D123685B682B700135AB
:10123000E4E7202384F83A30002084F8380000E006
:10124000022002B0BDE8F0810120FAE70120F8E7B2
:101250000220F6E70320F4E70320F2E7704708B521
:101260000168CB6823F04003CB60202380F839303D
:10127000FFF7F4FF002008BD704708B590F83A303A
:10128000DBB2222B45D18368B3F5805F0ED00369B2
:1012900003BB03685A68836A591C81621A70C38D44
:1012A000013B9BB2C385F3B1002033E0826A03693E
:1012B00043B903685B68C3F308031380836A02338E
:1012C0008362ECE703685B68DBB21380836A0133F7
:1012D0008362E4E703685B68826A511C816203F001
:1012E0007F031370DBE70268D36823F02003D36029
:1012F0000268D36823F48073D3600268536923F0D3
:1013000001035361202380F83A30FFF7B5FF002036
:1013100000E0022008BD704710B50446026813685B
:10132000D168526913F00F0005D113F0200F02D0DD
:1013300011F0200F53D1002867D012F0010202D122
:1013400011F4907F61D013F0010F06D011F4807F6B
:1013500003D0E06B40F00100E06313F0040F04D011
:101360001AB1E06B40F00200E06313F0020F04D00A
:101370001AB1E06B40F00400E06313F0080F04D0F2
:101380001AB1E26B42F00802E263E26B002A48D035
:1013900013F0200F02D011F0200F24D123685B69D5
:1013A00003F04003E26B12F0080F00D13BB320467C
:1013B000FFF7F9FC23685A6912F0400F1BD05A69F5
:1013C00022F040025A61636B8BB11A4A5A63606B18
:1013D000FEF75AFF28B3606B436B984721E0204625
:1013E000FFF74BFF1DE02046FFF747FFD6E72046FB
:1013F000FFF791FF15E02046FFF78DFF11E0204633
:10140000FFF789FF0023E3630BE013F0800F02D0A6
:1014100011F0800F06D113F0400F02D011F0400FF1
:1014200004D110BD2046FFF7CCFCFAE72046FFF7B9
:1014300016FFF6E73914000808B5406A0023C38593
:10144000C384FFF768FF08BD842801D003307047CC
:101450000020704708B500F089FC002008BDF0B5F9
:1014600085B00F46446805680669B0F90800FFF7C3
:10147000EBFF03AB019300903B46B2B229462046F6
:1014800000F042FC012802D1039805B0F0BD002015
:10149000FBE708B5034600B90123184600F0A8FD94
:1014A000002008BD08B5012000F02EFA08BD08B5DF
:1014B00000F002FF012801D001F044F908BD00F15D
:1014C000080343604FF0FF328260C3600361002372
:1014D0000360704700230361704743684B609A685C
:1014E0008A609A68516099600861036801330360FB
:1014F000704730B40D68B5F1FF3F02D000F108022B
:1015000002E0026904E01A4653681C68AC42FAD94A
:1015100053684B6099608A605160086103680133C9
:10152000036030BC704703694268816891608268DB
:10153000416851605A68824205D0002202611868F1
:1015400001381860704782685A60F6E710B50446A3
:1015500001F098F8A26BE36B9A4204D0002401F0EA
:10156000B3F8204610BD0124F9E710B5044601F098
:1015700089F8A36B23B1002401F0A6F8204610BD22
:101580000124F9E770B504461646856B026C5AB91A
:1015900003681BB100200135A56370BD406800F0F1
:1015A000F1FE00236360F6E76EB9806801F064FD28
:1015B000226CA3681344A3606268934219D3236822
:1015C000A3600020E7E7C06801F056FD226C52429C
:1015D000E3681344E36021688B4202D263681A44D3
:1015E000E260022E01D00020D5E725B1013D0020A8
:1015F000D1E70020CFE70020CDE7026C72B110B533
:10160000C3681344C3604468A34201D30368C36042
:101610000C46C168204601F02FFD10BD704738B55B
:10162000054601F02FF895F8454064B203E000F05C
:101630003BFE013C64B2002C08DD6B6A33B105F15E
:10164000240000F09BFD0028F3D0F0E7FF2385F88D
:10165000453001F039F801F015F895F8444064B2CE
:1016600003E000F021FE013C64B2002C08DD2B6990
:1016700033B105F1100000F081FD0028F3D0F0E750
:10168000FF2385F8443001F01FF838BD38B540B964
:101690004FF0500383F31188BFF36F8FBFF34F8F69
:1016A000FEE704460D4600F0EDFF2168E26B236C77
:1016B00003FB021060600020A063A160013A02FBFE
:1016C0000313E360FF2384F8443084F84530A5B960
:1016D00023691BB900F0F8FF012038BD04F11000A8
:1016E00000F04CFD0028F5D0084B4FF080521A60F6
:1016F000BFF34F8FBFF36F8FECE704F11000FFF7DC
:10170000DEFE04F12400FFF7DAFEE3E704ED00E07B
:1017100010B5029B0C4639B11A60D8631C640121D4
:101720001846FFF7B3FF10BD1B60F6E740B94FF056
:10173000500383F31188BFF36F8FBFF34F8FFEE722
:10174000F0B583B0054611B101FB00F000E00020C8
:1017500017460C46483001F0B9F8064638B10090FB
:101760003B4600F1480221462846FFF7D1FF3046AC
:1017700003B0F0BDF0B585B0019260B1044699B9EF
:10178000026C8AB14FF0500383F31188BFF36F8F5F
:10179000BFF34F8FFEE74FF0500383F31188BFF381
:1017A0006F8FBFF34F8FFEE7022B0BD1E26B012A45
:1017B00008D04FF0500383F31188BFF36F8FBFF34E
:1017C0004F8FFEE71E460F4600F076FD50B9019B95
:1017D00053B14FF0500383F31188BFF36F8FBFF302
:1017E0004F8FFEE700253AE0002538E032463946C3
:1017F0002046FFF7C7FE636A4BB9A8B13B4B4FF0D9
:1018000080521A60BFF34F8FBFF36F8F0CE004F16B
:10181000240000F0B3FC38B1344B4FF080521A6012
:10182000BFF34F8FBFF36F8F00F04EFF012005B065
:10183000F0BD00F049FF0020F9E702A800F0E0FC4D
:10184000012519E0002384F8443021E0002384F8C6
:10185000453023E02046FFF7E2FE00F051FB00F0A8
:1018600011FFA26BE36B9A42C0D3022EBED0019B44
:10187000002BDED0002DE0D000F026FF00F0B0FA03
:1018800000F000FF94F844305BB2B3F1FF3FD9D0D1
:1018900094F845305BB2B3F1FF3FD7D000F014FFAE
:1018A00001A902A800F0C0FCC8B92046FFF74EFE0F
:1018B0000028CFD0019904F1100000F045FC20462B
:1018C000FFF7ADFE00F01CFB0028C8D1074B4FF01E
:1018D00080521A60BFF34F8FBFF36F8FBFE7204670
:1018E000FFF79DFE00F00CFB0020A0E704ED00E0F8
:1018F00048B108B5002141600160C1600B460A464D
:10190000FFF738FF08BD704710B5024600210120DF
:10191000FFF70CFF0446FFF7EBFF204610BD000069
:101920002DE9F04184B0019260B1044699B9026C8E
:101930008AB14FF0500383F31188BFF36F8FBFF369
:101940004F8FFEE74FF0500383F31188BFF36F8F83
:10195000BFF34F8FFEE71F46884600F0ADFC50B93D
:10196000019B53B14FF0500383F31188BFF36F8F86
:10197000BFF34F8FFEE700265FE000265DE0E668DC
:1019800041462046FFF739FEDFB9013DA5632368D4
:1019900013B900F04FFD6060236963B104F11000DA
:1019A00000F0ECFB38B1464B4FF080521A60BFF3A9
:1019B0004F8FBFF36F8F00F087FE012004B0BDE8AA
:1019C000F081E660636A002BF5D004F1240000F09A
:1019D000D5FB0028EFD03A4B4FF080521A60BFF38E
:1019E0004F8FBFF36F8FE6E700F06EFE0020E5E754
:1019F00002A800F005FC012629E0002384F8443009
:101A000031E0002384F8453033E000F03BFE6068AD
:101A100000F062FC00F058FE3BE02046FFF7FFFDBF
:101A200000F06EFA09E02046FFF7F9FD00F068FAD1
:101A30002046FFF79AFD002840D100F023FEA56B59
:101A4000002D9CD1019B002BCED0002ED0D000F0D9
:101A50003BFE00F0C5F900F015FE94F844305BB28F
:101A6000B3F1FF3FC9D094F845305BB2B3F1FF3F0B
:101A7000C7D000F029FE01A902A800F0D5FB00287C
:101A8000D1D12046FFF771FD0028C6D02368002B76
:101A9000BBD0019904F1240000F056FB2046FFF76B
:101AA000BEFD00F02DFA0028C7D1054B4FF0805243
:101AB0001A60BFF34F8FBFF36F8FBEE700207DE743
:101AC00004ED00E0074B9B6A1B6833B1054B9A6A33
:101AD000D268D2685268DA627047024B4FF0FF3228
:101AE000DA6270472C00002010B50446006B00F04D
:101AF00067FF204600F064FF10BD2DE9F0478046E7
:101B00009946089D099F0A9C266B02F18042013A82
:101B100006EB820626F0070600230F2B07D8C85CC9
:101B2000E21882F83400CA5C0AB10133F5E70023F9
:101B300084F84330062D00D90625E56265644FF030
:101B4000000AC4F848A0201DFFF7C4FC04F11800E7
:101B5000FFF7C0FC2461C5F10705A5616462C4F804
:101B60004CA084F850A04A464146304600F060FD43
:101B7000206007B13C60BDE8F087000070B500242C
:101B800007E004EB8402930010481844FFF797FC29
:101B90000134062CF5D90E4C04F1BC063046FFF793
:101BA0008EFC04F1D0052846FFF789FC04F11400EF
:101BB000FFF785FC04F1E400FFF781FC2046FFF706
:101BC0007EFCA662C4F8F85070BD00BF5C00002027
:101BD0002C00002038B5054600F054FD264BD3F804
:101BE000FC200132C3F8FC20D3F8003173B1224B42
:101BF000D3F804318BB9204BD3F80031DA6AEB6AA1
:101C00009A420AD81C4BC3F8005106E01A4BC3F89D
:101C10000051D3F8FC30012B2AD0174CD4F80831EE
:101C20000133C4F80831EB6A01229A40D4F80C1150
:101C30000A43C4F80C2104F1300003EB83039A003B
:101C4000291D1044FFF749FC00F03EFDD4F8043193
:101C50006BB1D4F80031DA6AEB6A9A4207D2074BCB
:101C60004FF080521A60BFF34F8FBFF36F8F38BDB4
:101C7000FFF784FFD1E700BF2C00002004ED00E057
:101C800070B504460E461F4BD3F81051D3F800012F
:101C90000430FFF748FC60B91A4BD3F80021D16A31
:101CA000012202FA01F1D3F80C2122EA0102C3F861
:101CB0000C21B4F1FF3F12D02C44124BD3F8003169
:101CC0005C60A54214D80F4DA86AD5F80011043104
:101CD000FFF70FFCEB6AA34212D9EC6210E0002E72
:101CE000EAD00848D0F800110431FFF7F6FB07E00E
:101CF000044BD3F8F800D3F800110431FFF7F9FBD7
:101D000070BD00BF2C0000202DE9F04385B00746D0
:101D1000884615469946900000F0D8FDF8B1064671
:101D2000542000F0D3FD0446A8B10663D4B10023CB
:101D3000039302940D9B01930C9B00934B462A4600
:101D400041463846FFF7D9FE2046FFF743FF012002
:101D500005B0BDE8F083304600F032FEE6E74FF014
:101D6000FF30F5E74FF0FF30F2E7000000B583B039
:101D7000174B019300230093A82216491648FFF73A
:101D8000C3FF012805D0B0F1FF3F17D003B05DF8C5
:101D900004FB4FF0500383F31188BFF36F8FBFF341
:101DA0004F8F0E4B4FF0FF32DA620122C3F804214D
:101DB0000022C3F8102100F0F1FCE7E74FF05003D8
:101DC00083F31188BFF36F8FBFF34F8FFEE700BF20
:101DD0004801002040310008912000082C0000201C
:101DE000034AD2F818310133C2F81831704700BFE6
:101DF0002C0000202DE9F041404BD3F81831002B86
:101E00006CD13E4BD3F810510135C3F81051CDB908
:101E10009B6A1B6843B14FF0500383F31188BFF3F3
:101E20006F8FBFF34F8FFEE7344B9A6AD3F8F810E9
:101E30009962C3F8F820D3F820210132C3F8202199
:101E4000FFF740FE2D4BDB6AAB423DD900242B4A05
:101E5000D2F80031DB6A03EB830399000A44136B69
:101E6000012B42D9012440E00124244B9B6A1B68CA
:101E700063B3224B9B6ADB68DE6873689D422AD39A
:101E800006F104084046FFF74EFBB36A1BB106F1AA
:101E90001800FFF748FBF36A01229A40174FD7F862
:101EA0000C110A43C7F80C2107F1300003EB830340
:101EB0009A0041461044FFF710FBF26AD7F8003150
:101EC000DB6A9A42D0D2D0E70024CEE70B4B4FF02A
:101ED000FF32DA62BBE7094AD362B8E7074AD2F8B1
:101EE00024310133C2F824310024044BD3F82831C3
:101EF00003B101242046BDE8F08100BF2C00002082
:101F0000394BD3F8183143B94FF0500383F311889C
:101F1000BFF36F8FBFF34F8FFEE770B500F0B2FBDA
:101F2000314BD3F81821013AC3F81821D3F81831EE
:101F3000002B54D12C4BD3F8FC3023B9002400F0F3
:101F4000C3FB204670BD0024274B5B692BB3264D95
:101F50002B6ADC6804F11800FFF7E5FA261D30460D
:101F6000FFF7E1FAE36A01229A40D5F80C110A431F
:101F7000C5F80C2105F1300003EB83039A003146CC
:101F80001044FFF7AAFAE26AD5F80031DB6A9A42F8
:101F9000DAD30122C5F82821D6E70CB1FFF792FD6C
:101FA000114BD3F8244164B1FFF724FF18B10E4B55
:101FB0000122C3F82821013CF6D10B4B0022C3F8C3
:101FC0002421094BD3F828315BB1084B4FF08052E4
:101FD0001A60BFF34F8FBFF36F8F0124AFE7002468
:101FE000ADE70024ABE700BF2C00002004ED00E0CB
:101FF00010B5B0B104460F4BD3F8183143B14FF0D0
:10200000500383F31188BFF36F8FBFF34F8FFEE749
:10201000FFF7E6FE00212046FFF732FEFFF770FFD4
:1020200038B9054B4FF080521A60BFF34F8FBFF3A2
:102030006F8F10BD2C00002004ED00E038B5134B6D
:10204000D3F814310BB3FFF7CBFE104BD3F8E440B9
:10205000FFF756FF002CF2D000F014FB0B4CD4F825
:10206000F030DD68281DFFF75EFAD4F8FC30013B44
:10207000C4F8FC30D4F81431013BC4F8143100F03A
:1020800023FB2846FFF730FDD9E738BD2C000020A0
:1020900008B5FFF7D3FF064B1B6B012BF9D9054B96
:1020A0004FF080521A60BFF34F8FBFF36F8FF0E78E
:1020B0002C00002004ED00E0224BD3F8183123B1AE
:1020C000204B0122C3F8282170471E4A0023C2F882
:1020D0002831D2F80C31B3FA83F3DBB2C3F11F031A
:1020E00003EB830081000A44126B42B94FF05003A6
:1020F00083F31188BFF36F8FBFF34F8FFEE710B4E8
:10210000104A9900CC18A0001044446B64684463E2
:102110003032194488000830024494420AD00949F8
:1021200003EB83039A000A44536BDB68C1F8003168
:1021300010BC704761680348142202FB030251631C
:10214000EDE700BF2C00002040B94FF0500383F3AF
:102150001188BFF36F8FBFF34F8FFEE710B50C46AA
:10216000054BD3F800111831FFF7C3F901212046C0
:10217000FFF786FD10BD00BF2C00002038B5C368F6
:10218000DC6844B94FF0500383F31188BFF36F8FBD
:10219000BFF34F8FFEE704F118052846FFF7C3F998
:1021A000154BD3F8183103BB251D2846FFF7BBF9A3
:1021B000E36A01219940104AD2F80C010143C2F8A8
:1021C0000C11303203EB8303980029461044FFF7CB
:1021D00084F9E26A084BD3F80031DB6A9A4209D9E4
:1021E0000120054BC3F8280138BD29460348FFF7F5
:1021F00074F9EEE70020F7E72C00002040000020F3
:1022000038B1084AD2F820110160D2F8102142609A
:1022100070474FF0500383F31188BFF36F8FBFF304
:102220004F8FFEE72C00002038B550B1044689B925
:102230004FF0500383F31188BFF36F8FBFF34F8FBD
:10224000FEE74FF0500383F31188BFF36F8FBFF3A6
:102250004F8FFEE70D4600F015FA124BD3F8101120
:102260002B68B3F1FF3F19D020680E4AD2F8202125
:10227000904202D062688A4212D96268881A834208
:1022800004D8012400F020FA204638BD521A134425
:102290002B602046FFF7B4FF0024F3E70024F1E7AA
:1022A0000124EFE72C000020024B0122C3F8282173
:1022B000704700BF2C000020064BD3F804313BB11F
:1022C000044BD3F818310BB100207047022070473F
:1022D000012070472C00002000284DD038B505465D
:1022E000C26A2649D1F80011C96A8A4216D28169A8
:1022F000002906DB2149D1F80011C96AC1F10701A3
:102300008161686902EB820291001D4A0A44904291
:1023100005D01A4AD2F80021D26AEA6238BD2C1DD3
:102320002046FFF700F9A0B11448D0F80031DB6A6D
:10233000EB6201229A40D0F80C110A43C0F80C213C
:10234000303003EB83039A0021461044FFF7C5F8B1
:10235000E4E7EA6A02EB82039900084B0B441B6B2B
:10236000002BE1D1012393400449D1F80C2122EA4A
:102370000302C1F80C21D7E7704700BF2C000020F2
:102380005C00002000284DD038B50446284AD2F819
:102390000021824208D04FF0500383F31188BFF32D
:1023A0006F8FBFF34F8FFEE7826C42B94FF050033F
:1023B00083F31188BFF36F8FBFF34F8FFEE7013AAE
:1023C0008264C06A616C88422ED07ABB251D284683
:1023D000FFF7A9F878B9E26A1549142303FB021341
:1023E0001B6B43B9012303FA02F2D1F80C3123EA43
:1023F0000203C1F80C31626CE262C2F10703A3610F
:10240000012404FA02F10A4BD3F80C010143C3F88A
:102410000C1130332946142000FB0230FFF75DF821
:10242000204638BD002070470020FAE70020F8E77A
:102430002C000020064BD3F800312BB1044BD3F80D
:102440000021936C01339364014BD3F80001704772
:102450002C000020F8B507460D4614461E4600F035
:1024600011F9244BD3F8003193F85030DBB2022B32
:102470000CD0204BD3F80021D06C20EA0700D064A8
:10248000D3F80031012283F850201EBB00F01CF964
:1024900000F0F8F824B1174BD3F80031DB6C23605F
:1024A000144BD3F8003193F85030DBB2012B1ED01F
:1024B000104BD3F80031D96C21EA0501D96401240D
:1024C0000C4BD3F80031002283F8502000F0FCF8C8
:1024D0002046F8BD11463046FFF7D2FB064B4FF0C1
:1024E00080521A60BFF34F8FBFF36F8FCEE7002487
:1024F000E6E700BF2C00002004ED00E0F8B540B98D
:102500004FF0500383F31188BFF36F8FBFF34F8FEA
:10251000FEE704461F4615460E4600F0B3F80FB11D
:10252000E36C3B6094F85030DBB2022284F8502018
:102530006A1E032A1AD8DFE802F0020C1114E26CBA
:102540001643E6640125012B14D000F0BDF828469F
:10255000F8BDE26C0132E2640125F4E7E66401258E
:10256000F1E7022B04D0E6640125ECE70125EAE758
:102570000025E8E7261D3046FEF7D5FFE06A012278
:102580008240144BD3F80C110A43C3F80C213033AA
:102590003146142202FB0030FEF79FFFA36A43B1CD
:1025A0004FF0500383F31188BFF36F8FBFF34F8F4A
:1025B000FEE7E26A074BD3F80031DB6A9A42C4D9DE
:1025C000054B4FF080521A60BFF34F8FBFF36F8FF0
:1025D000BBE700BF2C00002004ED00E00B4B1B68A4
:1025E000B3F1FF3F08D04FF0500383F31188BFF3DE
:1025F0006F8FBFF34F8FFEE74FF0500383F31188C7
:10260000BFF36F8FBFF34F8FFEE700BF08000020BE
:1026100006480068006880F3088862B661B6BFF3B8
:102620004F8FBFF36F8F00DF00BF000008ED00E0A9
:102630004FF0807340F8043C21F0010140F8081C81
:10264000034B40F80C3C40F8202C4038704700BF4A
:10265000DD25000800000000000000000000000070
:10266000074B19680868B0E8F00F80F30988BFF3DA
:102670006F8F4FF0000080F311884EF00D0E704701
:102680002C0100204FF0500383F31188BFF36F8FAC
:10269000BFF34F8F0A4A136801331360012B00D038
:1026A0007047084B1B6813F0FF0FF9D04FF0500331
:1026B00083F31188BFF36F8FBFF34F8FFEE700BF27
:1026C0000800002004ED00E0094B1B6843B94FF0FF
:1026D000500383F31188BFF36F8FBFF34F8FFEE773
:1026E000013B034A13600BB983F31188704700BFA5
:1026F00008000020000000000000000000000000B2
:10270000EFF30980BFF36F8F0D4B1A6820E9F00FCC
:1027100010602DE908404FF0500080F31188FFF75A
:10272000CBFC4FF0000080F31188BDE80840196829
:102730000868B0E8F00F80F30988BFF36F8F704727
:102740002C01002008B54FF0500383F31188BFF32C
:102750006F8FBFF34F8FFFF74DFB18B1034B4FF057
:1027600080521A60002383F3118808BD04ED00E055
:10277000064B1B68064AA2FB03239B09013B054A43
:102780001360054B07221A60704700BF0C00002041
:10279000D34D621014E000E010E000E000B583B01B
:1027A0001E4B1A78D2B20192FF221A701B78DBB24C
:1027B0008DF803309DF8033003F05003184A13706E
:1027C0000723536009E0164A5368013B53609DF8A4
:1027D00003305B00DBB28DF803309DF8033013F05B
:1027E000800FF0D10E4A53681B0203F4E06353607C
:1027F000019BDBB2094A13700A4B1A6842F470025B
:102800001A601A6842F070421A60FFF7B1FF064B77
:1028100000221A60FFF7FCFEFFF7E0FE00E400E094
:102820005801002020ED00E008000020114A12F0BD
:10283000070F1BD0D11D21F00701C1F59C530833B0
:1028400013440A460C490A60002048601344083BC0
:1028500023F007038B6058601860981A506013606B
:10286000C86008614FF000434B61704741F2883304
:10287000E8E700BF780100206001002010B4124B8F
:102880001A6882421AD359685C18844203D140689E
:1028900001445960184641684418A24212D10A4CBA
:1028A000A468A2420CD05268114441601A681268B0
:1028B0000260984200D0186010BC70471346DFE7F2
:1028C0000460F6E70260F4E76001002070B504469A
:1028D000FFF786FA394B9B68BBB1384B5B691C42EA
:1028E00062D1ACB1083414F0070F11D024F0070402
:1028F000083404F007035BB14FF0500383F31188F1
:10290000BFF36F8FBFF34F8FFEE7FFF78FFFE4E753
:10291000002C4BD0294B1B69A34249D3274B1D6880
:1029200001E02B4615466A68A24202D22A68002AB4
:10293000F7D1224A9268AA423CD01E6808362A681B
:102940001A606B681B1B102B10D9281910F0070F89
:1029500008D04FF0500383F31188BFF36F8FBFF39C
:102960004F8FFEE743606C60FFF788FF6968134A8A
:1029700013695B1A1361D268934201D20F4AD36084
:102980000E4B5B690B436B6000232B60FFF7B8FABB
:1029900016F0070F10D04FF0500383F31188BFF3E8
:1029A0006F8FBFF34F8FFEE70026EFE70026EDE7BE
:1029B0000026EBE70026E9E7304670BD6001002005
:1029C00080B338B50446A0F1080550F8042C164928
:1029D00049690A4208D14FF0500383F31188BFF3CD
:1029E0006F8FBFF34F8FFEE750F8080C40B14FF0E8
:1029F000500383F31188BFF36F8FBFF34F8FFEE750
:102A000022EA010244F8042CFFF7EAF954F8041C06
:102A1000054A13690B4413612846FFF72FFFFFF7A0
:102A20006FFA38BD704700BF6001002010B586B056
:102A3000144B9A6942F010029A619A6902F01002EE
:102A40000092009A9A6942F004029A619B6903F02D
:102A500004030193019B0C4C00224FF400512046CB
:102A6000FDF744FD4FF40053029301230393002329
:102A700004930223059302A92046FDF751FC06B0FA
:102A800010BD00BF001002400010014000B587B02B
:102A9000184A6B4607CA03C31A8011E00133092B99
:102AA00009DC06AA1A4412F80C1C12F8182C9142E0
:102AB000F4D00020F2E7A0B94FF47A70FEF7E9FCF9
:102AC00001224FF400510C48FDF710FD0A231A466D
:102AD00003A90A48FEF750FB0028EDD0002301208F
:102AE000DDE700230122114605480068FFF706FDD7
:102AF000E2E700BFBC3000080010014014150020C0
:102B00000815002008B50120FEF7C3FCFBE7000014
:102B100000B587B002AC124B0FCB07C423704FF047
:102B2000FF3301AAFF210020FFF794FC0D4C002386
:102B30004FF0FF3219462068FEF7F2FE64230D22A3
:102B400002A90948FEF7A8FA00231A461946206888
:102B5000FEF710FE4FF47A70FEF79BFCDFE700BF34
:102B6000C8300008041500201415002000B585B0F9
:102B70000F4A01AB07CA03C31A8000224FF4005169
:102B80000C48FDF7B3FC0C4C00234FF0FF32194604
:102B90002068FEF7C5FE64230A2201A90748FEF754
:102BA0007BFA00231A4619462068FEF7E3FDE4E7A6
:102BB000BC300008001001400C1500205C150020FE
:102BC00008B50268034B9A4200D008BDFDF7D2FA5F
:102BD000FBE700BF002C0140FEE7000008B50B48F2
:102BE0000B4B03604FF4E133436000238360C36009
:102BF00003610C2242618361C361FEF71EFA00B9D2
:102C000008BD4FF48B710348FFF7E6FF5C15002009
:102C1000004400404831000808B50B480B4B0360E6
:102C20004FF4E133436000238360C36003610C22EF
:102C300042618361C361FEF700FA00B908BD40F24A
:102C400003110348FFF7C8FF1415002000380140A6
:102C50004831000800B591B00223069301220A9280
:102C600010220B920D9300230E934FF460130F93D9
:102C700006A8FDF757FC08BB0F2301930221029120
:102C8000002303934FF480620492059301A8FDF79B
:102C90006FFEB8B9FDF728FF0C4BA3FB003080098D
:102CA000FDF7CCFA0420FDF7DFFA00220F214FF0E8
:102CB000FF30FDF783FA11B05DF804FBD82104481A
:102CC000FFF78AFFE6210248FFF786FFD34D621027
:102CD0004831000880B596B0FDF73AFAFFF7BAFF21
:102CE000FFF7A4FEFFF77AFFFFF796FF002716A86D
:102CF00040F8047DFEF7D6FB1F4B186016A840F87D
:102D0000087DFEF7CFFB1D4B18601D4C0FAD04F185
:102D10001C060FCE0FC533682B6039460FA8FEF78F
:102D20009EFB184B18600AAD04F130060FCE0FC59C
:102D300033682B6039460AA8FEF791FB124B1860E6
:102D400005AD04F144060FCE0FC533682B6039463C
:102D500005A8FEF784FB0D4B18606D4658340FCC68
:102D60000FC523682B6039466846FEF778FB084B91
:102D70001860FEF76FFBFEE7041500200C1500201D
:102D8000BC300008581500200815002054150020FC
:102D90001015002000B583B0244B9A6942F001025F
:102DA0009A619A6902F001020092009ADA6942F08F
:102DB0008052DA61DB6903F080530193019B0320A9
:102DC000FDF7EAF9002211466FF00B00FDF7F6F966
:102DD000002211466FF00A00FDF7F0F900221146BB
:102DE0006FF00900FDF7EAF9002211466FF00400C8
:102DF000FDF7E4F9002211466FF00300FDF7DEF95C
:102E000000220F216FF00100FDF7D8F900220F21F9
:102E10004FF0FF30FDF7D2F9054A536823F0E06325
:102E200043F08063536003B05DF804FB0010024080
:102E30000000014030B587B00368284A934204D0AF
:102E4000274A934222D007B030BD264B9A6942F4FC
:102E500080429A619B6903F480430093009B4FF486
:102E60000073029302230393032305931E4C02A9CC
:102E70002046FDF755FA4FF4806302930023039335
:102E8000049302A92046FDF74BFADCE7154BDA69FB
:102E900042F40032DA61DB6903F400330193019BF1
:102EA0000423029302230393032305930E4D02A9E7
:102EB0002846FDF735FA082302930024039404946E
:102EC0000DEB03012846FDF72BFA224605212620AB
:102ED000FDF774F92620FDF7A5F9B4E700380140A5
:102EE00000440040001002400008014000B589B0D5
:102EF000002201461920FDF761F91920FDF792F92A
:102F0000144B9A6942F400629A619B6903F400636E
:102F10000193019B02A903A8FDF70CFEFDF7FAFD42
:102F20000D4BA3FB00239B0C013B0C480C4A026099
:102F300040F2E732C2604360002303618360FDF723
:102F400017FF18B1012009B05DF804FB0348FDF735
:102F500010FEF8E70010024083DE1B439C150020A2
:102F6000002C01407047FEE7FEE7FEE7FEE77047F2
:102F700008B5FEF79CFA08BD08B50248FDF709FE42
:102F800008BD00BF9C15002008B50248FEF7C4F933
:102F900008BD00BF5C1500200F4B1A6842F001020B
:102FA0001A6059680D4A0A405A601A6822F0847201
:102FB00022F480321A601A6822F480221A605A6859
:102FC00022F4FE025A604FF41F029A60044B4FF045
:102FD00000629A60704700BF001002400000FFF8D6
:102FE00000ED00E0002103E00B4B5B58435004313F
:102FF0000A480B4B42189A42F6D30A4A02E00023D1
:1030000042F8043B084B9A42F9D3FFF7C5FF00F0A2
:103010000FF8FFF75FFE70479831000800000020AE
:103020001000002010000020DC150020FEE700004A
:1030300070B500250C4E0D4CA41BA410A54209D15F
:1030400000F026F800250A4E0A4CA41BA410A54245
:1030500005D170BD56F8253098470135EEE756F892
:10306000253098470135F2E790310008903100088B
:10307000903100089431000810B5431E0A44914273
:1030800000D110BD11F8014B03F8014FF7E7000024
:10309000F8B500BFF8BC08BC9E467047F8B500BF45
:0830A000F8BC08BC9E46704715
:1030A80002030405060708090A0B0C0D0E0F101081
:1030B8000102000041424344454647480D0A0000CA
:1030C8004F4B2049204745542049540A0D00000021
:1030D800803100088D2A0008000000000000000070
:1030E800BA00000074310008112B0008000000002D
:1030F80000000000BA00000064310008052B000839
:10310800FDFF000000000000BA0000005831000870
:103118006D2B0008FDFF000000000000BA00000051
:10312800000000000000000001020304060708096F
:10313800000000000102030449444C45000000005F
:103148002E2E2F5372632F6D61696E2E630000005F
:1031580075617274325F73656E64000075617274B4
:10316800325F726563656976650000007561727427
:10317800315F73656E64000075617274315F7265EA
:08318800636569766500000033
:0431900035010008FD
:04319400110100081D
:103198000100000010000000AAAAAAAA00A24A047E
:0400000508002FE5DB
:00000001FF
