:020000040800F2
:1000000000000320891400082114000823140008AC
:100010002514000827140008291400080000000017
:100020000000000000000000000000002B14000889
:100030002D140008000000002F14000831140008DF
:10004000D9140008D9140008D9140008D9140008DC
:10005000D9140008D9140008D9140008D9140008CC
:10006000D9140008D9140008D9140008D9140008BC
:10007000D9140008D9140008D9140008D9140008AC
:10008000D9140008D9140008D9140008D91400089C
:10009000D9140008D9140008D9140008D91400088C
:1000A000D9140008D9140008D9140008D91400087C
:1000B000D9140008D9140008D9140008D91400086C
:1000C000D9140008D9140008D9140008D91400085C
:1000D000D9140008D9140008D9140008D91400084C
:1000E000D9140008D9140008D9140008D91400083C
:1000F000D9140008D9140008D9140008D91400082C
:10010000D9140008D9140008D9140008D91400081B
:10011000D9140008D9140008D9140008D91400080B
:10012000D9140008D9140008D9140008D9140008FB
:10013000D9140008D9140008D9140008D9140008EB
:10014000D9140008D9140008D9140008D9140008DB
:10015000D9140008D9140008D9140008D9140008CB
:10016000D9140008D9140008D9140008D9140008BB
:10017000D9140008D9140008D914000800000000A0
:10018000D9140008D9140008D9140008D91400089B
:10019000D9140008D9140008D9140008D91400088B
:0C01A000D9140008D9140008D914000874
:1001AC0010B5054C237833B9044B13B10448AFF3A5
:1001BC0000800123237010BD0C0000200000000003
:1001CC002415000808B5034B1BB103490348AFF3D2
:1001DC00008008BD0000000010000020241500085D
:1001EC0053B94AB9002908BF00281CBF4FF0FF3192
:1001FC004FF0FF3000F072B9ADF1080C6DE904CE90
:10020C0000F006F8DDF804E0DDE9022304B07047E5
:10021C002DE9F047089E04468846002B4BD18A42B4
:10022C00154667D9B2FA82F24AB1C2F1200701FA37
:10023C0002F320FA07F7954047EA030894404FEA87
:10024C00154E230CB8FBFEF71FFA85FC0EFB178826
:10025C0043EA084307FB0CF1994209D9EB1807F163
:10026C00FF3080F01B81994240F21881023F2B44F1
:10027C005B1AA4B2B3FBFEF00EFB103344EA03444A
:10028C0000FB0CFCA44509D92C1900F1FF3380F0BC
:10029C000781A44540F2048102382C4440EA07400F
:1002AC00A4EB0C0400271EB1D4400023C6E9004384
:1002BC003946BDE8F0878B4209D9002E00F0EB805F
:1002CC000027C6E9000138463946BDE8F087B3FA85
:1002DC0083F7002F47D18B4202D3824200F2FA807F
:1002EC00841A61EB030301209846002EE0D0C6E986
:1002FC000048DDE702B9FFDEB2FA82F2002A40F0D4
:10030C008F80491B4FEA154E1FFA85F80127B1FB68
:10031C00FEFC230C0EFB1C1143EA014308FB0CF101
:10032C00994207D9EB180CF1FF3002D2994200F236
:10033C00CD808446591AA3B2B1FBFEF00EFB10140B
:10034C0043EA044408FB00F8A04507D92C1900F136
:10035C00FF3302D2A04500F2B6801846A4EB080485
:10036C0040EA0C409FE7C7F1200CBB4022FA0CFE80
:10037C004EEA030E01FA07F420FA0CF521FA0CF3FD
:10038C004FEA1E482543B3FBF8F92C0C08FB193334
:10039C001FFA8EFA44EA034309FB0AF49C4202FA60
:1003AC0007F200FA07F10BD91EEB030309F1FF303A
:1003BC0080F087809C4240F28480A9F1020973444A
:1003CC001B1BADB2B3FBF8F008FB103345EA03443A
:1003DC0000FB0AFAA24508D91EEB040400F1FF3316
:1003EC006BD2A24569D90238744440EA0940A0FB9B
:1003FC000289A4EB0A044C45C2464B4654D351D057
:10040C00002E69D0B1EB0A0564EB030404FA0CFC72
:10041C00FD40FC404CEA0505C6E90054002747E7BF
:10042C00C2F1200320FA03F7954001FA02F021FAF9
:10043C0003F34FEA154E3843010CB3FBFEF71FFADA
:10044C0085F80EFB173341EA034107FB08F38B4297
:10045C0004FA02F407D9691807F1FF3C2FD28B423A
:10046C002DD9023F2944CB1A81B2B3FBFEF00EFB0F
:10047C00103341EA034100FB08F38B4207D969189A
:10048C0000F1FF3C17D28B4215D902382944C91A06
:10049C0040EA07473BE73746304609E70746E7E6B9
:1004AC001846FBE64145ABD2B8EB020A69EB0E02EB
:1004BC0001381346A4E76046E9E7184695E7674616
:1004CC00D1E781467CE702382C4447E7ACF1020CBB
:1004DC002B442FE7384608E73746E9E6704700BF5C
:1004EC0010B504460E4B18784FF47A73B3FBF0F347
:1004FC000C4A1068B0FBF3F000F09CF868B90F2CB4
:10050C0001D901200AE0002221464FF0FF3000F013
:10051C005DF8034B5C60002000E0012010BD00BFC3
:10052C00000000200800002008B50B4B1A6842F4AC
:10053C0000721A601A6842F480621A601A6842F4F7
:10054C0080721A60032000F02FF80020FFF7C8FF1C
:10055C0000F0ECFE002008BD003C0240034A11688C
:10056C00034B1B780B441360704700BF280000201E
:10057C0000000020014B1868704700BF28000020C5
:10058C0038B50446FFF7F6FF0546B4F1FF3F02D03D
:10059C00044B1B781C44FFF7EDFF401BA042FAD321
:1005AC0038BD00BF00000020074AD36823F4E06385
:1005BC001B041B0C000200F4E060184340F0BF6009
:1005CC0040F40030D060704700ED00E030B4174BC1
:1005DC00DB68C3F30223C3F10704042C28BF0424F3
:1005EC001D1D062D18D9033B4FF0FF3505FA04F4F9
:1005FC0021EA0401994005FA03F322EA03031943A3
:10060C0000280BDB0901C9B200F1604000F5614024
:10061C0080F8001330BC70470023E5E700F00F00B2
:10062C000901C9B2024B1954F4E700BF00ED00E018
:10063C0014ED00E00138B0F1807F0AD2064B58600F
:10064C00064AF02182F823100020986007221A60D5
:10065C0070470120704700BF10E000E000ED00E0A3
:10066C00042805D0054A136823F00403136070476F
:10067C00024A136843F004031360704710E000E073
:10068C00704708B5FFF7FCFF08BD000000230F2BD7
:10069C0000F2E380F0B482B039E0092200E00022DD
:1006AC00B2403A4302346D4E46F824206C4A14682A
:1006BC00EA4302EA04064F6817F4803F01D045EA8A
:1006CC000406674C2660646802EA04064F6817F457
:1006DC00003F01D045EA0406614C6660A46802EA5A
:1006EC0004064F6817F4801F01D045EA04065C4CE1
:1006FC00A660E46822404E6816F4001F01D045EA5B
:10070C000402574CE26001330F2B00F2A38001224C
:10071C009A400C6804EA0205AA42F4D14C68022CF7
:10072C0001D0122C10D1DE08083650F826C003F088
:10073C000704A7000F24BC402CEA040C0C69BC4035
:10074C0044EA0C0440F8264004685F000326BE40CF
:10075C00F64306EA040C4C6804F00304BC4044EA7B
:10076C000C0404604C6804F1FF3CBCF1010F03D98C
:10077C00112C01D0122C10D1846806EA040CCC6820
:10078C00BC4044EA0C048460446824EA02024C68CD
:10079C00C4F300149C4014434460C26816408A6839
:1007AC00BA403243C2604A6812F0805FABD000227C
:1007BC0001922C4A546C44F480445464526C02F4FC
:1007CC0080420192019A9C08A61C244A52F8267079
:1007DC0003F0030296000F22B24027EA0207224AD6
:1007EC0090423FF45CAF02F58062904222D002F559
:1007FC008062904220D002F5806290421ED002F5B9
:10080C00806290421CD002F5806290421AD002F5B0
:10081C008062904218D002F58062904216D002F5A8
:10082C008062904214D002F5806290423FF435AF62
:10083C000A2235E7012233E7022231E703222FE7B0
:10084C0004222DE705222BE7062229E7072227E7BA
:10085C00082225E702B0F0BC704770470038014011
:10086C00003C0140003802400000024000286BD0E0
:10087C00F0B58BB00446032380F8B93300F0A0FD2B
:10088C00206800F08BFB254655F8107B6E460FCD8B
:10089C000FC60FCD0FC695E8030086E80300231D95
:1008AC000ECB384600F03CFB0021206800F07CFBAE
:1008BC00002210E0D100891A8B002344012183F817
:1008CC00391083F83820DA87002183F83B1019643B
:1008DC005964D96401320E2AECD9002218E0D100F7
:1008EC00891A8B002344002183F8F91183F8F8212D
:1008FC00DA8783F8FB11C3F80012C3F80412C3F8AB
:10090C000C12236802F1400003EB800359600132A2
:10091C000E2AE4D9254655F8107B6E460FCD0FC62E
:10092C000FCD0FC695E8030086E80300231D0ECB00
:10093C00384600F04FFB012384F8B933206800F0EF
:10094C001EFC00200BB0F0BD01207047002800F009
:10095C00BB8170B582B00446036813F0010F3BD025
:10096C00A74B9B6803F00C03042B2CD0A44B9B6867
:10097C0003F00C03082B21D06368B3F5803F4FD0F4
:10098C00B3F5A02F52D09E4B1A6822F480321A6015
:10099C001A6822F480221A606368002B50D0FFF78B
:1009AC00E9FD0546964B1B6813F4003F14D1FFF785
:1009BC00E1FD401B6428F5D903208AE1904B5B686C
:1009CC0013F4800FD8D08E4B1B6813F4003F03D068
:1009DC006368002B00F07A81236813F0020F55D066
:1009EC00874B9B6813F00C0F3ED0854B9B6803F034
:1009FC000C03082B33D0E368002B68D0814B012209
:100A0C001A60FFF7B7FD05467D4B1B6813F0020F0C
:100A1C0054D1FFF7AFFD401B0228F5D9032058E154
:100A2C00774A136843F480331360B5E7744B1A6844
:100A3C0042F480221A601A6842F480321A60ABE7E2
:100A4C00FFF798FD05466E4B1B6813F4003FC3D0AF
:100A5C00FFF790FD401B6428F5D9032039E1684B62
:100A6C005B6813F4800FC6D1654B1B6813F0020F43
:100A7C0004D0E368012B01D001202AE1604A1368FD
:100A8C0023F0F803216943EAC1031360236813F0D0
:100A9C00080F40D0636963B35B4B01221A60FFF708
:100AAC0069FD0546564B5B6F13F0020F33D1FFF710
:100ABC0061FD401B0228F5D903200AE1504A136856
:100ACC0023F0F803216943EAC1031360DEE74D4BC1
:100ADC0000221A60FFF74EFD0546494B1B6813F0C8
:100AEC00020FD3D0FFF746FD401B0228F5D9032097
:100AFC00EFE0454B00221A60FFF73CFD0546404BEA
:100B0C005B6F13F0020F06D0FFF734FD401B022879
:100B1C00F5D90320DDE0236813F0040F79D0384BAE
:100B2C001B6C13F0805F33D100230193344B1A6C90
:100B3C0042F080521A641B6C03F080530193019BAA
:100B4C000125324B1B6813F4807F23D0A368012B43
:100B5C0034D0052B38D02A4B1A6F22F001021A67B9
:100B6C001A6F22F004021A67A368002B36D0FFF725
:100B7C0001FD0646224B1B6F13F0020F48D1FFF705
:100B8C00F9FC801B41F288339842F3D90320A0E092
:100B9C000025D6E71D4A136843F480731360FFF7F2
:100BAC00E9FC0646194B1B6813F4807FCED1FFF786
:100BBC00E1FC801B0228F5D903208AE0104A136F50
:100BCC0043F001031367CFE70D4B1A6F42F0040299
:100BDC001A671A6F42F001021A67C5E7FFF7CAFCE1
:100BEC000646074B1B6F13F0020F11D0FFF7C2FC28
:100BFC00801B41F288339842F3D9032069E000BF8F
:100C0C000038024000004742800E4742007000400E
:100C1C00E5B9A369002B5BD0304A926802F00C0254
:100C2C00082A58D0022B17D02D4B00221A60FFF740
:100C3C00A1FC0446294B1B6813F0007F42D0FFF740
:100C4C0099FC001B0228F5D9032042E0234A136CBF
:100C5C0023F080531364DCE7214B00221A60FFF76A
:100C6C0089FC05461D4B1B6813F0007F06D0FFF76F
:100C7C0081FC401B0228F5D903202AE0E369226A93
:100C8C001343626A43EA8213A26A5208013A43EAA6
:100C9C000243E26A43EA0263104A5360104B01229A
:100CAC001A60FFF767FC04460C4B1B6813F0007FBF
:100CBC0006D1FFF75FFC001B0228F5D9032008E0E2
:100CCC00002006E0002004E001207047012000E035
:100CDC00002002B070BD0120FBE700BF00380240CD
:100CEC0060004742324B9B6803F00C03042B5CD032
:100CFC00082B01D02F4870472DE9F04B2C4B5A682C
:100D0C0002F03F025B6813F4800F2BD0284B5B681A
:100D1C00C3F388131E4600275C010025E41A65EB1B
:100D2C000705A90141EA9461A001001B61EB0501D3
:100D3C00CB0043EA5073C400A01943EB07014B02EC
:100D4C0043EAD0534402204619460023FFF748FAE1
:100D5C00174B5B68C3F3014301335B00B0FBF3F04B
:100D6C00BDE8F08B124B5B68C3F388131E4600275B
:100D7C005C010025E41A65EB0705A90141EA9461C1
:100D8C00A001001B61EB0501CB0043EA5073C400CA
:100D9C00A01943EB07018B0243EA905384022046CF
:100DAC0019460023FFF71CFAD2E70348704700BF2F
:100DBC00003802400024F40000127A00002800F0F1
:100DCC009D8070B504464F4B1B6803F00F038B429C
:100DDC0009D2CBB24B4A1370136803F00F038B424A
:100DEC0001D0012070BD236813F0020F17D013F04F
:100DFC00040F04D0444A936843F4E053936023688F
:100E0C0013F0080F04D0404A936843F46043936096
:100E1C003D4A936823F0F003A068034393600D46AA
:100E2C00236813F0010F32D06368012B21D09A1E76
:100E3C00012A25D9344A126812F0020F60D03249C7
:100E4C008A6822F0030213438B60FFF793FB06467C
:100E5C002D4B9B6803F00C036268B3EB820F16D02A
:100E6C00FFF788FB801B41F288339842F0D90320AE
:100E7C00B8E7254A126812F4003FE0D10120B1E72F
:100E8C00214A126812F0007FD9D10120AAE71D4B2C
:100E9C001B6803F00F03AB4209D9EAB2194B1A7065
:100EAC001B6803F00F03AB4201D001209AE72368C3
:100EBC0013F0040F06D0144A936823F4E053E1684E
:100ECC000B439360236813F0080F07D00E4A936806
:100EDC0023F46043216943EAC1039360FFF702FFE7
:100EEC00094B9B68C3F30313084AD35CD840084BE7
:100EFC0018600020FFF7F4FA002073E70120704718
:100F0C0001206FE7003C0240003802403C1500080D
:100F1C0008000020014B1868704700BF0800002033
:100F2C0084B010B5044603A880E80E00089B012B82
:100F3C0020D1A36B23F48033A363E36823F48403ED
:100F4C0023F04003E360E36823F44013E3600F9B5A
:100F5C00012B0AD0204600F01FF9069B012B14D060
:100F6C000020BDE8104004B07047E36843F48013E0
:100F7C00E360EFE7E36843F04003E360204600F0F2
:100F8C000BF94FF48033A363E7E7A36843F0060340
:100F9C00A360A36843F02003A360E1E7836823F018
:100FAC00010383600020704708B5C36823F0C04379
:100FBC00C360012909D019B9C36843F08043C360E9
:100FCC003220FFF7DDFA002008BDC36843F0005360
:100FDC00C360F5E784B0F8B5044607A880E80E00B6
:100FEC00119FBFB9A36B43F40013A36325460023E1
:100FFC00C4F8003E04F50066D4F80038C4F8003894
:10100C000C9B012B10D1099B4BB90021204600F001
:10101C00AFF80DE0A36B43F40023A363E6E70121D3
:10102C00204600F0A5F803E00321204600F0A0F8CC
:10103C001021204600F076F8204600F087F80023B7
:10104C00336173614FF0FF32B261F36108E04FF02E
:10105C009040C2F8000900220A61FF228A60013325
:10106C00079999420BD905EB431202F51061D2F89E
:10107C0000090028EBDB0020C2F80009EBE7002395
:10108C0008E04FF0904CC2F800CB00220261FF2226
:10109C008260013399420DD905EB431202F53060A1
:1010AC00D2F800CBBCF1000FEBDB4FF0000CC2F818
:1010BC0000CBEAE7336923F4807333610A9B012B7D
:1010CC001AD00022A2616FF0804262611BB9A36941
:1010DC0043F01003A361A269104B1343A3610D9B52
:1010EC001BB1A36943F00803A361012F0ED00020AC
:1010FC00BDE8F84004B07047094A3263326B42F4E1
:10110C00803242F003023263326BDAE7A36943F0B8
:10111C00804343F00403A361E9E700BF00383C803F
:10112C0000018000890141F020010161002301339D
:10113C00054A934205D8026912F0200FF7D100201E
:10114C0070470320704700BF400D0300102303615C
:10115C0000230133054A934205D8026912F0100F9F
:10116C00F7D1002070470320704700BF400D0300EB
:10117C00D0F800381943C0F800180020704708B5A3
:10118C00D0F8043843F00203C0F804380320FFF70A
:10119C00F7F9002008BD0000002301330C4A9342EC
:1011AC0011D80269002AF8DA036943F001030361DC
:1011BC0000230133064A934207D8026912F0010F4B
:1011CC00F7D100207047032070470320704700BF01
:1011DC00400D030082B0002100910B4B1A6B42F0C2
:1011EC0080021A631A6B02F080020092009A01913D
:1011FC001A6B42F002021A631B6B03F00203019399
:10120C00019B02B0704700BF00380240FEE70000AF
:10121C0008B50C480C4B0360062343600222C260E5
:10122C000023036143618261C36103624362C36251
:10123C0003634363FFF71AFB00B908BDC0210348E1
:10124C00FFF7E4FF2C0000200000044054150008B8
:10125C0000B595B0002101912B4B1A6C42F08052D5
:10126C001A641B6C03F080530193019B0291274B72
:10127C001A6842F440421A601B6803F4404302931C
:10128C00029B012308934FF48033099302230E939E
:10129C004FF480020F92042210929022119212931A
:1012AC000623139308A8FFF751FB20BB0F230393CE
:1012BC0002230493002305934FF4A05306934FF499
:1012CC0080530793042103A8FFF778FDB8B9FFF703
:1012DC0021FE0F4BA3FB00308009FFF7ABF9042074
:1012EC00FFF7BEF9002211464FF0FF30FFF76EF901
:1012FC0015B05DF804FB91210648FFF787FF9F218D
:10130C000448FFF783FF00BF003802400070004024
:10131C00D34D62105415000808B5FFF705F9FFF717
:10132C0097FFFFF757FFFFF773FFFEE710B582B08B
:10133C0000240094214B5A6C42F480425A645A6C3B
:10134C0002F480420092009A01941A6C42F080528E
:10135C001A641B6C03F080530193019B0320FFF76D
:10136C0023F9224621466FF00B00FFF72FF9224696
:10137C0021466FF00A00FFF729F9224621466FF04B
:10138C000900FFF723F9224621466FF00400FFF70E
:10139C001DF9224621466FF00300FFF717F922468C
:1013AC0021466FF00100FFF711F9224621464FF05C
:1013BC00FF30FFF70BF902B010BD00BF0038024040
:1013CC000268114B9A4200D0704710B586B04FF4AA
:1013DC0040430193022302930024039403230493B8
:1013EC000C23059301A90948FFF750F90094084B09
:1013FC001A6B42F000521A631B6B03F000530093FC
:10140C00009B06B010BD00BF000004400004024069
:10141C00003802407047FEE7FEE7FEE7FEE7704744
:10142C007047704708B5FFF799F8FFF72AF908BD20
:10143C000F49D1F8883043F47003C1F888300D4B54
:10144C001A6842F001021A60002098601A6822F0B3
:10145C00847222F480321A60074A5A601A6822F4A5
:10146C0080221A60D8604FF000638B60704700BF19
:10147C0000ED00E00038024010300024DFF834D0DA
:10148C00002103E00C4B5B58435004310B480C4BD0
:10149C0042189A42F6D30B4A02E0002342F8043B6E
:1014AC00094B9A42F9D3FFF7C3FF00F011F8FFF78D
:1014BC0033FF704700000320741500080000002063
:1014CC000C0000200C0000201C040020FEE7000093
:1014DC0070B50D4E0D4CA41BA4100025A54209D1CE
:1014EC000B4E0C4C00F018F8A41BA4100025A542C0
:1014FC0005D170BD56F8253098470135EEE756F802
:10150C00253098470135F2E76C1500086C1500087A
:10151C006C15000870150008F8B500BFF8BC08BCC5
:10152C009E467047F8B500BFF8BC08BC9E46704795
:10153C000000000000000000010203040607080977
:10154C0000000000010203042E2E2F5372632F6D36
:08155C0061696E2E63000000BE
:08156400B8ECFF7F010000005C
:04156C00D1010008A1
:04157000AD010008C1
:0C15740001000000100000000024F40042
:040000050800148952
:00000001FF
