:020000040800F2
:1000000000000320E9330008793300087B3300083F
:100010007D3300087F3300088133000800000000B2
:10002000000000000000000000000000512900084E
:100030008333000800000000F12900088533000820
:1000400039340008393400083934000839340008DC
:1000500039340008393400083934000839340008CC
:1000600039340008393400083934000839340008BC
:1000700039340008393400083934000839340008AC
:10008000393400083934000839340008393400089C
:10009000393400083934000839340008393400088C
:1000A000393400088D330008393400083934000829
:1000B000393400083934000839340008393400086C
:1000C000393400083934000839340008393400085C
:1000D000393400083934000839340008393400084C
:1000E000393400083934000839340008393400083C
:1000F000393400083934000839340008393400082C
:10010000393400083934000839340008393400081B
:10011000393400083934000839340008393400080B
:1001200039340008393400083934000839340008FB
:1001300039340008393400083934000839340008EB
:1001400039340008393400083934000839340008DB
:1001500039340008393400083934000839340008CB
:1001600039340008393400083934000839340008BB
:100170003934000839340008393400080000000020
:10018000393400083934000839340008393400089B
:10019000393400083934000839340008393400088B
:0C01A000393400083934000839340008F4
:1001B00010B5054C237833B9044B13B10448AFF3A1
:1001C00000800123237010BD1000002000000000FB
:1001D0009C34000808B5034B1BB103490348AFF337
:1001E000008008BD00000000140000209C340008BE
:1001F00053B94AB9002908BF00281CBF4FF0FF318E
:100200004FF0FF3000F072B9ADF1080C6DE904CE8B
:1002100000F006F8DDF804E0DDE9022304B07047E1
:100220002DE9F047089E04468846002B4BD18A42B0
:10023000154667D9B2FA82F24AB1C2F1200701FA33
:1002400002F320FA07F7954047EA030894404FEA83
:10025000154E230CB8FBFEF71FFA85FC0EFB178822
:1002600043EA084307FB0CF1994209D9EB1807F15F
:10027000FF3080F01B81994240F21881023F2B44ED
:100280005B1AA4B2B3FBFEF00EFB103344EA034446
:1002900000FB0CFCA44509D92C1900F1FF3380F0B8
:1002A0000781A44540F2048102382C4440EA07400B
:1002B000A4EB0C0400271EB1D4400023C6E9004380
:1002C0003946BDE8F0878B4209D9002E00F0EB805B
:1002D0000027C6E9000138463946BDE8F087B3FA81
:1002E00083F7002F47D18B4202D3824200F2FA807B
:1002F000841A61EB030301209846002EE0D0C6E982
:100300000048DDE702B9FFDEB2FA82F2002A40F0CF
:100310008F80491B4FEA154E1FFA85F80127B1FB64
:10032000FEFC230C0EFB1C1143EA014308FB0CF1FD
:10033000994207D9EB180CF1FF3002D2994200F232
:10034000CD808446591AA3B2B1FBFEF00EFB101407
:1003500043EA044408FB00F8A04507D92C1900F132
:10036000FF3302D2A04500F2B6801846A4EB080481
:1003700040EA0C409FE7C7F1200CBB4022FA0CFE7C
:100380004EEA030E01FA07F420FA0CF521FA0CF3F9
:100390004FEA1E482543B3FBF8F92C0C08FB193330
:1003A0001FFA8EFA44EA034309FB0AF49C4202FA5C
:1003B00007F200FA07F10BD91EEB030309F1FF3036
:1003C00080F087809C4240F28480A9F10209734446
:1003D0001B1BADB2B3FBF8F008FB103345EA034436
:1003E00000FB0AFAA24508D91EEB040400F1FF3312
:1003F0006BD2A24569D90238744440EA0940A0FB97
:100400000289A4EB0A044C45C2464B4654D351D052
:10041000002E69D0B1EB0A0564EB030404FA0CFC6E
:10042000FD40FC404CEA0505C6E90054002747E7BB
:10043000C2F1200320FA03F7954001FA02F021FAF5
:1004400003F34FEA154E3843010CB3FBFEF71FFAD6
:1004500085F80EFB173341EA034107FB08F38B4293
:1004600004FA02F407D9691807F1FF3C2FD28B4236
:100470002DD9023F2944CB1A81B2B3FBFEF00EFB0B
:10048000103341EA034100FB08F38B4207D9691896
:1004900000F1FF3C17D28B4215D902382944C91A02
:1004A00040EA07473BE73746304609E70746E7E6B5
:1004B0001846FBE64145ABD2B8EB020A69EB0E02E7
:1004C00001381346A4E76046E9E7184695E7674612
:1004D000D1E781467CE702382C4447E7ACF1020CB7
:1004E0002B442FE7384608E73746E9E6704700BF58
:1004F00008B50B4B1A6842F400721A601A6842F48D
:1005000080621A601A6842F480721A60032000F058
:100510001BF8002002F0F2FE02F05CFE002008BD95
:10052000003C0240034A1168034B1B780B441360E4
:10053000704700BF783D002000000020014B186884
:10054000704700BF783D0020074AD36823F4E0637A
:100550001B041B0C000200F4E060184340F0BF6075
:1005600040F40030D060704700ED00E030B4174B2D
:10057000DB68C3F30223C3F10704042C28BF04245F
:100580001D1D062D18D9033B4FF0FF3505FA04F465
:1005900021EA0401994005FA03F322EA030319430F
:1005A00000280BDB0901C9B200F1604000F5614091
:1005B00080F8001330BC70470023E5E700F00F001F
:1005C0000901C9B2024B1954F4E700BF00ED00E085
:1005D00014ED00E000F01F02400901239340024A9D
:1005E00042F82030704700BF00E100E00138B0F170
:1005F000807F0AD2064B5860064AF02182F8231009
:100600000020986007221A6070470120704700BFE1
:1006100010E000E000ED00E0042805D0054A136872
:1006200023F0040313607047024A136843F0040385
:100630001360704710E000E000230F2B00F2E3800E
:10064000F0B482B039E0092200E00022B2403A431F
:1006500002346D4E46F824206C4A1468EA4302EADC
:1006600004064F6817F4803F01D045EA0406674C42
:100670002660646802EA04064F6817F4003F01D060
:1006800045EA0406614C6660A46802EA04064F6805
:1006900017F4801F01D045EA04065C4CA660E468AC
:1006A00022404E6816F4001F01D045EA0402574C60
:1006B000E26001330F2B00F2A38001229A400C6804
:1006C00004EA0205AA42F4D14C68022C01D0122C93
:1006D00010D1DE08083650F826C003F00704A70042
:1006E0000F24BC402CEA040C0C69BC4044EA0C0406
:1006F00040F8264004685F000326BE40F64306EA41
:10070000040C4C6804F00304BC4044EA0C0404608C
:100710004C6804F1FF3CBCF1010F03D9112C01D04E
:10072000122C10D1846806EA040CCC68BC4044EA60
:100730000C048460446824EA02024C68C4F3001488
:100740009C4014434460C26816408A68BA403243F1
:10075000C2604A6812F0805FABD0002201922C4A3E
:10076000546C44F480445464526C02F4804201920C
:10077000019A9C08A61C244A52F8267003F0030232
:1007800096000F22B24027EA0207224A90423FF425
:100790005CAF02F58062904222D002F58062904206
:1007A00020D002F5806290421ED002F58062904215
:1007B0001CD002F5806290421AD002F5806290420D
:1007C00018D002F58062904216D002F58062904205
:1007D00014D002F5806290423FF435AF0A2235E72B
:1007E000012233E7022231E703222FE704222DE71B
:1007F00005222BE7062229E7072227E7082225E71B
:1008000002B0F0BC7047704700380140003C014026
:1008100000380240000002400369194201D1002063
:1008200070470120704712B90904816170478161E6
:100830007047000010B582B000230193194B1A6C69
:1008400042F080521A641B6C03F080530193019BA9
:10085000154B01221A60FFF771FE0446134B5B68CB
:1008600013F4803F08D1FFF769FE001BB0F57A7FD3
:10087000F4D9032002B010BD0D4B01221A60FFF71E
:100880005DFE0446094B5B6813F4003F07D1FFF798
:1008900055FE001BB0F57A7FF4D90320EAE700206B
:1008A000E8E700BF0038024040000E420070004000
:1008B00044000E42002800F0BB8170B582B00446AF
:1008C000036813F0010F3BD0A74B9B6803F00C03A8
:1008D000042B2CD0A44B9B6803F00C03082B21D0D5
:1008E0006368B3F5803F4FD0B3F5A02F52D09E4B35
:1008F0001A6822F480321A601A6822F480221A6080
:100900006368002B50D0FFF719FE0546964B1B6815
:1009100013F4003F14D1FFF711FE401B6428F5D9F2
:1009200003208AE1904B5B6813F4800FD8D08E4B84
:100930001B6813F4003F03D06368002B00F07A813A
:10094000236813F0020F55D0874B9B6813F00C0FF0
:100950003ED0854B9B6803F00C03082B33D0E36833
:10096000002B68D0814B01221A60FFF7E7FD054696
:100970007D4B1B6813F0020F54D1FFF7DFFD401BC6
:100980000228F5D9032058E1774A136843F48033ED
:100990001360B5E7744B1A6842F480221A601A6833
:1009A00042F480321A60ABE7FFF7C8FD05466E4B94
:1009B0001B6813F4003FC3D0FFF7C0FD401B642841
:1009C000F5D9032039E1684B5B6813F4800FC6D179
:1009D000654B1B6813F0020F04D0E368012B01D0B4
:1009E00001202AE1604A136823F0F803216943EAF1
:1009F000C1031360236813F0080F40D0636963B329
:100A00005B4B01221A60FFF799FD0546564B5B6F61
:100A100013F0020F33D1FFF791FD401B0228F5D9E7
:100A200003200AE1504A136823F0F803216943EADE
:100A3000C1031360DEE74D4B00221A60FFF77EFD15
:100A40000546494B1B6813F0020FD3D0FFF776FD24
:100A5000401B0228F5D90320EFE0454B00221A6025
:100A6000FFF76CFD0546404B5B6F13F0020F06D09D
:100A7000FFF764FD401B0228F5D90320DDE0236861
:100A800013F0040F79D0384B1B6C13F0805F33D117
:100A900000230193344B1A6C42F080521A641B6C91
:100AA00003F080530193019B0125324B1B6813F423
:100AB000807F23D0A368012B34D0052B38D02A4B5C
:100AC0001A6F22F001021A671A6F22F004021A67E5
:100AD000A368002B36D0FFF731FD0646224B1B6F73
:100AE00013F0020F48D1FFF729FD801B41F2883334
:100AF0009842F3D90320A0E00025D6E71D4A1368E9
:100B000043F480731360FFF719FD0646194B1B6809
:100B100013F4807FCED1FFF711FD801B0228F5D999
:100B200003208AE0104A136F43F001031367CFE7F5
:100B30000D4B1A6F42F004021A671A6F42F001025D
:100B40001A67C5E7FFF7FAFC0646074B1B6F13F061
:100B5000020F11D0FFF7F2FC801B41F2883398425C
:100B6000F3D9032069E000BF00380240000047428B
:100B7000800E474200700040E5B9A369002B5BD0AE
:100B8000304A926802F00C02082A58D0022B17D083
:100B90002D4B00221A60FFF7D1FC0446294B1B683D
:100BA00013F0007F42D0FFF7C9FC001B0228F5D9E3
:100BB000032042E0234A136C23F080531364DCE7E4
:100BC000214B00221A60FFF7B9FC05461D4B1B683C
:100BD00013F0007F06D0FFF7B1FC401B0228F5D9C7
:100BE00003202AE0E369226A1343626A43EA82131C
:100BF000A26A5208013A43EA0243E26A43EA026304
:100C0000104A5360104B01221A60FFF797FC04460C
:100C10000C4B1B6813F0007F06D1FFF78FFC001B05
:100C20000228F5D9032008E0002006E0002004E0B7
:100C300001207047012000E0002002B070BD0120BB
:100C4000FBE700BF0038024060004742264B9B682C
:100C500003F00C03042B44D0082B01D02348704729
:100C60002DE9F04B204B5A6802F03F025B6813F409
:100C7000800F13D01C4B5968C1F3881100231C4806
:100C8000A1FB0001FFF7B4FA174B5B68C3F3014304
:100C900001335B00B0FBF3F0BDE8F08B124B5B68F7
:100CA000C3F388131E4600275C010025E41A65EB98
:100CB0000705A90141EA9461A001001B61EB050150
:100CC000CB0043EA5073C400A01943EB07018B0229
:100CD00043EA90538402204619460023FFF788FA1E
:100CE000D2E70348704700BF003802400024F400F8
:100CF00040787D01002800F09D8070B504464F4B80
:100D00001B6803F00F038B4209D2CBB24B4A13701E
:100D1000136803F00F038B4201D0012070BD2368DC
:100D200013F0020F17D013F0040F04D0444A936855
:100D300043F4E0539360236813F0080F04D0404A53
:100D4000936843F4604393603D4A936823F0F00353
:100D5000A068034393600D46236813F0010F32D05F
:100D60006368012B21D09A1E012A25D9344A1268C2
:100D700012F0020F60D032498A6822F00302134356
:100D80008B60FFF7DBFB06462D4B9B6803F00C03E3
:100D90006268B3EB820F16D0FFF7D0FB801B41F2E5
:100DA00088339842F0D90320B8E7254A126812F434
:100DB000003FE0D10120B1E7214A126812F0007F24
:100DC000D9D10120AAE71D4B1B6803F00F03AB42EA
:100DD00009D9EAB2194B1A701B6803F00F03AB4232
:100DE00001D001209AE7236813F0040F06D0144ABB
:100DF000936823F4E053E1680B439360236813F096
:100E0000080F07D00E4A936823F46043216943EA30
:100E1000C1039360FFF71AFF094B9B68C3F30313E9
:100E2000084AD35CD840084B1860002002F066FAEC
:100E3000002073E70120704701206FE7003C02406B
:100E400000380240283500080C000020014B1868CB
:100E5000704700BF0C00002008B5FFF7F7FF044BF8
:100E60009B68C3F38223034AD35CD84008BD00BF0C
:100E7000003802403835000808B5FFF7E7FF044B9B
:100E80009B68C3F34233034AD35CD84008BD00BF1C
:100E900000380240383500080F2303600B4B9A6876
:100EA00002F0030242609A6802F0F00282609A68DF
:100EB00002F4E052C2609B68DB0803F4E053036174
:100EC000034B1B6803F00F030B60704700380240B0
:100ED000003C024070470268D36843F00103D360CE
:100EE0000268136843F001031360002070477047E5
:100EF00070477047704710B5044603681A6912F0CE
:100F0000020F11D0DA6812F0020F0DD06FF002025A
:100F10001A610123037603689B6913F0030F70D0F5
:100F2000FFF7E6FF0023237623681A6912F0040F07
:100F300012D0DA6812F0040F0ED06FF004021A61BA
:100F40000223237623689B6913F4407F5FD02046F9
:100F5000FFF7CEFF0023237623681A6912F0080FEB
:100F600012D0DA6812F0080F0ED06FF008021A6182
:100F7000042323762368DB6913F0030F4ED0204649
:100F8000FFF7B6FF0023237623681A6912F0100FCB
:100F900012D0DA6812F0100F0ED06FF010021A6142
:100FA000082323762368DB6913F4407F3DD0204675
:100FB000FFF79EFF0023237623681A6912F0010FC2
:100FC00003D0DA6812F0010F36D123681A6912F0E3
:100FD000800F03D0DA6812F0800F34D123681A69C9
:100FE00012F0400F03D0DA6812F0400F32D12368BC
:100FF0001A6912F0200F03D0DA6812F0200F30D1F6
:1010000010BDFFF774FF2046FFF773FF8AE7204605
:10101000FFF76DFF2046FFF76CFF9BE72046FFF7C9
:1010200066FF2046FFF765FFACE72046FFF75FFF4E
:101030002046FFF75EFFBDE76FF001021A61204610
:1010400001F0B6FFC1E76FF080021A61204600F0A0
:1010500089F8C3E76FF040021A612046FFF74AFFA4
:10106000C5E76FF020021A61204600F07AF8C7E762
:1010700003682E4A904212D0B0F1804F0FD0A2F5F3
:101080007C4290420BD002F58062904207D002F57C
:101090008062904203D002F57842904203D123F05F
:1010A00070034A681343214A90422AD0B0F1804F1E
:1010B00027D0A2F57C42904223D002F58062904274
:1010C0001FD002F5806290421BD002F57842904218
:1010D00017D002F57052904213D002F58062904210
:1010E0000FD002F5806290420BD0A2F59832904268
:1010F00007D002F58062904203D002F580629042F0
:1011000003D123F44073CA68134303608B68C3623E
:101110000B688362054B984203D003F580639842C5
:1011200001D10B6903630123436170470000014053
:10113000A8B110B5044690F839305BB1022384F8A9
:101140003930211D2068FFF793FF012384F83930DF
:10115000002010BD80F83830FFF7BCFEEEE701201C
:1011600070477047704700002DE9F8430446016856
:101170000A6922F44052C36813430B610168CA68CC
:1011800022F4164222F00C0283680069034360696E
:101190000343E06903431343CB6021684A6922F4A7
:1011A0004072A36913434B61E369B3F5004F60D00C
:1011B0002368B84A934200F0148102F5806293429A
:1011C00000F00F81FFF748FE00EB800000EB80008D
:1011D0006568AD00B0FBF5F5AF4FA7FB05356D09B0
:1011E0002E01FFF739FE00EB800000EB8000656800
:1011F000AD00B0FBF5F9FFF72FFE00EB800000EB30
:1012000080006568AD00B0FBF5F5A7FB05356D09FD
:101210004FF0640808FB15952D013235A7FB053505
:101220006D0905F0F0053544FFF716FE00EB800070
:1012300000EB80006668B600B0FBF6F6FFF70CFE28
:1012400000EB800000EB800063689B00B0FBF3F0D4
:10125000A7FB0030400908FB10684FEA081808F1A6
:101260003208A7FB0837C7F3431723682F449F6052
:101270000DE12368874A93425BD002F58062934276
:1012800057D0FFF7E9FD00EB800000EB80006568B8
:101290006D00B0FBF5F5804FA7FB05356D092E01FC
:1012A000FFF7DAFD00EB800000EB800065686D0061
:1012B000B0FBF5F9FFF7D0FD00EB800000EB8000FC
:1012C00065686D00B0FBF5F5A7FB05356D094FF0BE
:1012D000640808FB1595ED003235A7FB05356D094F
:1012E0006D0005F4F8753544FFF7B6FD00EB80009E
:1012F00000EB800066687600B0FBF6F6FFF7ACFD09
:1013000000EB800000EB800063685B00B0FBF3F350
:10131000A7FB03235B0908FB13684FEAC80808F121
:101320003208A7FB0837C7F3421723682F449F6092
:10133000ADE0FFF7A1FD00EB800000EB80006568E9
:101340006D00B0FBF5F5544FA7FB05356D092E0177
:10135000FFF792FD00EB800000EB800065686D00F8
:10136000B0FBF5F9FFF788FD00EB800000EB800093
:1013700065686D00B0FBF5F5A7FB05356D094FF00D
:10138000640808FB1595ED003235A7FB05356D099E
:101390006D0005F4F8753544FFF76EFD00EB800035
:1013A00000EB800066687600B0FBF6F6FFF764FDA0
:1013B00000EB800000EB800063685B00B0FBF3F3A0
:1013C000A7FB03235B0908FB13684FEAC80808F171
:1013D0003208A7FB0837C7F3421723682F449F60E2
:1013E00055E0FFF749FD00EB800000EB80006568E9
:1013F000AD00B0FBF5F5284FA7FB05356D092E01B3
:10140000FFF73AFD00EB800000EB80006568AD005F
:10141000B0FBF5F9FFF730FD00EB800000EB80003A
:101420006568AD00B0FBF5F5A7FB05356D094FF01C
:10143000640808FB15952D013235A7FB05356D09AC
:1014400005F0F0053544FFF717FD00EB800000EBD9
:1014500080006668B600B0FBF6F6FFF70DFD00EB06
:10146000800000EB800063689B00B0FBF3F0A7FBFB
:101470000030400908FB10684FEA081808F13208EC
:10148000A7FB0837C7F3431723682F449F60BDE8C5
:10149000F88300BF001001401F85EB512DE9F0419A
:1014A00005460F4616469846069C2B681B6837EA89
:1014B00003030CBF01230023B3421DD1B4F1FF3F4E
:1014C000F3D02CB1FFF73AF8A0EB0800A042ECD91A
:1014D0002A68D36823F4D073D3602A68536923F051
:1014E00001035361202385F8393085F83A30002311
:1014F00085F83830032000E00020BDE8F08158B3C3
:1015000010B5044690F839300BB3242384F83930F1
:101510002268D36823F40053D3602046FFF724FEEB
:101520002268136923F4904313612268536923F0FE
:101530002A0353612268D36843F40053D360002028
:10154000E063202384F8393084F83A3010BD80F805
:10155000383001F089FED8E7012070472DE9F041CD
:1015600082B01E4690F83930DBB2202B55D10446AC
:101570000D469046002955D0002A55D090F83830B5
:10158000012B53D0012380F838300023C36321237B
:1015900080F83930FEF7D2FF0746A4F82480A4F87B
:1015A000268010E000963B46002280212046FFF76F
:1015B00075FF00283CD12B882268C3F308035360D1
:1015C0002369C3B90235E38C9BB2B3B1E38C013B11
:1015D0009BB2E384A368B3F5805FE3D000963B46FB
:1015E000002280212046FFF759FF18BB2A78236884
:1015F0005A600135E7E70135E5E700963B460022F2
:1016000040212046FFF74AFF0346A8B9202284F86C
:101610003920002284F8382000E00223184602B066
:10162000BDE8F0810123F9E70123F7E70223F5E79D
:101630000323F3E70323F1E70323EFE72DE9F04169
:1016400082B01E4690F83A30DBB2202B5AD10446C5
:101650000D469046002959D0002A59D090F83830CC
:10166000012B57D0012380F838300023C363222395
:1016700080F83A30FEF762FF0746A4F82C80A4F801
:101680002E801DE000963B46002220212046FFF7D9
:1016900005FF002840D1236933B923685B68C3F391
:1016A000080325F8023B0BE023685B68DBB225F8F2
:1016B000013B05E023685B6803F07F032B70013575
:1016C000E38D9BB2BBB1E38D013B9BB2E385A36885
:1016D000B3F5805FD6D000963B46002220212046FD
:1016E000FFF7DCFED0B92369002BE3D123685B68E8
:1016F0002B700135E4E7202384F83A30002084F889
:10170000380000E0022002B0BDE8F0810120FAE7D5
:101710000120F8E70220F6E70320F4E70320F2E7D0
:10172000842801D0033070470020704708B500F0CE
:1017300089FC002008BDF0B585B00F4644680568F7
:101740000669B0F90800FFF7EBFF03AB01930090C7
:101750003B46B2B22946204600F042FC012802D1A5
:10176000039805B0F0BD0020FBE708B5034600B9BB
:101770000123184600F0A8FD002008BD08B501208F
:1017800000F02EFA08BD08B500F002FF012801D0D4
:1017900001F060F908BD00F1080343604FF0FF322B
:1017A0008260C3600361002303607047002303610C
:1017B000704743684B609A688A609A685160996084
:1017C0000861036801330360704730B40D68B5F1F8
:1017D000FF3F02D000F1080202E0026904E01A466D
:1017E00053681C68AC42FAD953684B6099608A60B0
:1017F0005160086103680133036030BC70470369BE
:101800004268816891608268416851605A6882428A
:1018100005D000220261186801381860704782689C
:101820005A60F6E710B5044601F0A4F8A26BE36B2A
:101830009A4204D0002401F0BFF8204610BD0124D4
:10184000F9E710B5044601F095F8A36B23B1002425
:1018500001F0B2F8204610BD0124F9E770B5044646
:101860001646856B026C5AB903681BB1002001351E
:10187000A56370BD406800F0F1FE00236360F6E7E9
:101880006EB9806801F0FEFD226CA3681344A3606A
:101890006268934219D32368A3600020E7E7C06819
:1018A00001F0F0FD226C5242E3681344E3602168CA
:1018B0008B4202D263681A44E260022E01D00020FB
:1018C000D5E725B1013D0020D1E70020CFE700207A
:1018D000CDE7026C72B110B5C3681344C3604468AD
:1018E000A34201D30368C3600C46C168204601F0DF
:1018F000C9FD10BD704738B5054601F03BF895F8B5
:10190000454064B203E000F03BFE013C64B2002CB1
:1019100008DD6B6A33B105F1240000F09BFD00285F
:10192000F3D0F0E7FF2385F8453001F045F801F0EA
:1019300021F895F8444064B203E000F021FE013C38
:1019400064B2002C08DD2B6933B105F1100000F002
:1019500081FD0028F3D0F0E7FF2385F8443001F043
:101960002BF838BD38B540B94FF0500383F31188D8
:10197000BFF36F8FBFF34F8FFEE704460D4600F0B5
:10198000F9FF2168E26B236C03FB0210606000200A
:10199000A063A160013A02FB0313E360FF2384F814
:1019A000443084F84530A5B923691BB901F004F827
:1019B000012038BD04F1100000F04CFD0028F5D0E6
:1019C000084B4FF080521A60BFF34F8FBFF36F8FF9
:1019D000ECE704F11000FFF7DEFE04F12400FFF74E
:1019E000DAFEE3E704ED00E010B5029B0C4639B1E6
:1019F0001A60D8631C6401211846FFF7B3FF10BDBD
:101A00001B60F6E740B94FF0500383F31188BFF332
:101A10006F8FBFF34F8FFEE7F0B583B0054611B16E
:101A200001FB00F000E0002017460C46483001F0B2
:101A300001F9064638B100903B4600F148022146C4
:101A40002846FFF7D1FF304603B0F0BDF0B585B0B2
:101A5000019260B1044699B9026C8AB14FF050030B
:101A600083F31188BFF36F8FBFF34F8FFEE74FF003
:101A7000500383F31188BFF36F8FBFF34F8FFEE7DF
:101A8000022B0BD1E26B012A08D04FF0500383F3F5
:101A90001188BFF36F8FBFF34F8FFEE71E460F46CF
:101AA00000F076FD50B9019B53B14FF0500383F322
:101AB0001188BFF36F8FBFF34F8FFEE700253AE029
:101AC000002538E0324639462046FFF7C7FE636AF4
:101AD0004BB9A8B13B4B4FF080521A60BFF34F8F08
:101AE000BFF36F8F0CE004F1240000F0B3FC38B1B9
:101AF000344B4FF080521A60BFF34F8FBFF36F8F9C
:101B000000F05AFF012005B0F0BD00F055FF0020A5
:101B1000F9E702A800F0E0FC012519E0002384F8B1
:101B2000443021E0002384F8453023E02046FFF7CD
:101B3000E2FE00F051FB00F01DFFA26BE36B9A4246
:101B4000C0D3022EBED0019B002BDED0002DE0D0F2
:101B500000F032FF00F0B0FA00F00CFF94F84430CF
:101B60005BB2B3F1FF3FD9D094F845305BB2B3F12B
:101B7000FF3FD7D000F020FF01A902A800F0C0FC71
:101B8000C8B92046FFF74EFE0028CFD0019904F1D6
:101B9000100000F045FC2046FFF7ADFE00F01CFBF6
:101BA0000028C8D1074B4FF080521A60BFF34F8F07
:101BB000BFF36F8FBFE72046FFF79DFE00F00CFBE1
:101BC0000020A0E704ED00E048B108B50021416025
:101BD0000160C1600B460A46FFF738FF08BD704739
:101BE00010B5024600210120FFF70CFF0446FFF765
:101BF000EBFF204610BD00002DE9F04184B00192BA
:101C000060B1044699B9026C8AB14FF0500383F376
:101C10001188BFF36F8FBFF34F8FFEE74FF0500374
:101C200083F31188BFF36F8FBFF34F8FFEE71F461B
:101C3000884600F0ADFC50B9019B53B14FF0500302
:101C400083F31188BFF36F8FBFF34F8FFEE700263A
:101C50005FE000265DE0E66841462046FFF739FE7A
:101C6000DFB9013DA563236813B900F04FFD606043
:101C7000236963B104F1100000F0ECFB38B1464B6E
:101C80004FF080521A60BFF34F8FBFF36F8F00F099
:101C900093FE012004B0BDE8F081E660636A002B8A
:101CA000F5D004F1240000F0D5FB0028EFD03A4B2A
:101CB0004FF080521A60BFF34F8FBFF36F8FE6E78C
:101CC00000F07AFE0020E5E702A800F005FC0126FE
:101CD00029E0002384F8443031E0002384F84530C3
:101CE00033E000F047FE606800F062FC00F064FE44
:101CF0003BE02046FFF7FFFD00F06EFA09E02046CA
:101D0000FFF7F9FD00F068FA2046FFF79AFD00287A
:101D100040D100F02FFEA56B002D9CD1019B002B24
:101D2000CED0002ED0D000F047FE00F0C5F900F074
:101D300021FE94F844305BB2B3F1FF3FC9D094F870
:101D400045305BB2B3F1FF3FC7D000F035FE01A9CB
:101D500002A800F0D5FB0028D1D12046FFF771FD85
:101D60000028C6D02368002BBBD0019904F12400C1
:101D700000F056FB2046FFF7BEFD00F02DFA0028CC
:101D8000C7D1054B4FF080521A60BFF34F8FBFF39E
:101D90006F8FBEE700207DE704ED00E0074B9B6AF4
:101DA0001B6833B1054B9A6AD268D2685268DA620E
:101DB0007047024B4FF0FF32DA6270472C00002070
:101DC00010B50446006B00F0AFFF204600F0ACFFFA
:101DD00010BD2DE9F04780469946089D099F0A9C51
:101DE000266B02F18042013A06EB820626F00706D6
:101DF00000230F2B07D8C85CE21882F83400CA5CB5
:101E00000AB10133F5E7002384F84330062D00D9E9
:101E10000625E56265644FF0000AC4F848A0201D5D
:101E2000FFF7C4FC04F11800FFF7C0FC2461C5F102
:101E30000705A5616462C4F84CA084F850A04A4626
:101E40004146304600F06AFD206007B13C60BDE8C5
:101E5000F087000070B5002407E004EB84029300D3
:101E600010481844FFF797FC0134062CF5D90E4CA6
:101E700004F1BC063046FFF78EFC04F1D00528467D
:101E8000FFF789FC04F11400FFF785FC04F1E4007E
:101E9000FFF781FC2046FFF77EFCA662C4F8F850ED
:101EA00070BD00BF5C0000202C00002038B5054646
:101EB00000F060FD264BD3F8FC200132C3F8FC2073
:101EC000D3F8003173B1224BD3F804318BB9204BD6
:101ED000D3F80031DA6AEB6A9A420AD81C4BC3F88D
:101EE000005106E01A4BC3F80051D3F8FC30012B27
:101EF0002AD0174CD4F808310133C4F80831EB6A02
:101F000001229A40D4F80C110A43C4F80C2104F1C0
:101F1000300003EB83039A00291D1044FFF749FCAE
:101F200000F04AFDD4F804316BB1D4F80031DA6A1C
:101F3000EB6A9A4207D2074B4FF080521A60BFF308
:101F40004F8FBFF36F8F38BDFFF784FFD1E700BF1E
:101F50002C00002004ED00E070B504460E461F4B37
:101F6000D3F81051D3F800010430FFF748FC60B9F2
:101F70001A4BD3F80021D16A012202FA01F1D3F8F9
:101F80000C2122EA0102C3F80C21B4F1FF3F12D068
:101F90002C44124BD3F800315C60A54214D80F4D8D
:101FA000A86AD5F800110431FFF70FFCEB6AA342D1
:101FB00012D9EC6210E0002EEAD00848D0F80011E7
:101FC0000431FFF7F6FB07E0044BD3F8F800D3F831
:101FD00000110431FFF7F9FB70BD00BF2C00002099
:101FE0002DE9F04385B0074688461546994690008E
:101FF00000F020FEF8B10646542000F01BFE044617
:10200000A8B10663D4B10023039302940D9B0193FE
:102010000C9B00934B462A4641463846FFF7D9FEB3
:102020002046FFF743FF012005B0BDE8F0833046AE
:1020300000F07AFEE6E74FF0FF30F5E74FF0FF30B3
:10204000F2E7000000B583B0174B01930023009323
:10205000802216491648FFF7C3FF012805D0B0F1CA
:10206000FF3F17D003B05DF804FB4FF0500383F33C
:102070001188BFF36F8FBFF34F8F0E4B4FF0FF32BE
:10208000DA620122C3F804210022C3F8102100F013
:102090000DFDE7E74FF0500383F31188BFF36F8F17
:1020A000BFF34F8FFEE700BF480100204035000816
:1020B000692300082C000020034AD2F818310133AC
:1020C000C2F81831704700BF2C0000202DE9F04104
:1020D000404BD3F81831002B6CD13E4BD3F8105144
:1020E0000135C3F81051CDB99B6A1B6843B14FF05D
:1020F000500383F31188BFF36F8FBFF34F8FFEE759
:10210000344B9A6AD3F8F8109962C3F8F820D3F8E0
:1021100020210132C3F82021FFF740FE2D4BDB6A5E
:10212000AB423DD900242B4AD2F80031DB6A03EBE5
:10213000830399000A44136B012B42D9012440E028
:102140000124244B9B6A1B6863B3224B9B6ADB68A8
:10215000DE6873689D422AD306F104084046FFF703
:102160004EFBB36A1BB106F11800FFF748FBF36A98
:1021700001229A40174FD7F80C110A43C7F80C21D7
:1021800007F1300003EB83039A0041461044FFF748
:1021900010FBF26AD7F80031DB6A9A42D0D2D0E75E
:1021A0000024CEE70B4B4FF0FF32DA62BBE7094A5F
:1021B000D362B8E7074AD2F824310133C2F8243198
:1021C0000024044BD3F8283103B101242046BDE894
:1021D000F08100BF2C000020394BD3F8183143B9EF
:1021E0004FF0500383F31188BFF36F8FBFF34F8F0E
:1021F000FEE770B500F0BEFB314BD3F81821013A71
:10220000C3F81821D3F81831002B54D12C4BD3F834
:10221000FC3023B9002400F0CFFB204670BD002421
:10222000274B5B692BB3264D2B6ADC6804F1180041
:10223000FFF7E5FA261D3046FFF7E1FAE36A0122CF
:102240009A40D5F80C110A43C5F80C2105F130006D
:1022500003EB83039A0031461044FFF7AAFAE26ABF
:10226000D5F80031DB6A9A42DAD30122C5F8282179
:10227000D6E70CB1FFF792FD114BD3F8244164B1BE
:10228000FFF724FF18B10E4B0122C3F82821013CAF
:10229000F6D10B4B0022C3F82421094BD3F8283187
:1022A0005BB1084B4FF080521A60BFF34F8FBFF302
:1022B0006F8F0124AFE70024ADE70024ABE700BF38
:1022C0002C00002004ED00E010B5B0B104460F4B27
:1022D000D3F8183143B14FF0500383F31188BFF3A3
:1022E0006F8FBFF34F8FFEE7FFF7E6FE002120461A
:1022F000FFF732FEFFF770FF38B9054B4FF0805201
:102300001A60BFF34F8FBFF36F8F10BD2C000020FA
:1023100004ED00E038B5134BD3F814310BB3FFF7DD
:10232000CBFE104BD3F8E440FFF756FF002CF2D061
:1023300000F020FB0B4CD4F8F030DD68281DFFF7CF
:102340005EFAD4F8FC30013BC4F8FC30D4F8143108
:10235000013BC4F8143100F02FFB2846FFF730FD95
:10236000D9E738BD2C00002008B5FFF7D3FF064B96
:102370001B6B012BF9D9054B4FF080521A60BFF34C
:102380004F8FBFF36F8FF0E72C00002004ED00E0CB
:10239000224BD3F8183123B1204B0122C3F8282156
:1023A00070471E4A0023C2F82831D2F80C31B3FA24
:1023B00083F3DBB2C3F11F0303EB830081000A4404
:1023C000126B42B94FF0500383F31188BFF36F8F44
:1023D000BFF34F8FFEE710B4104A9900CC18A0004D
:1023E0001044446B646844633032194488000830F8
:1023F000024494420BD0094903EB83039A000A4438
:10240000536BDB68C1F800315DF8044B70476168BD
:102410000248142202FB03025163ECE72C00002067
:1024200040B94FF0500383F31188BFF36F8FBFF3B0
:102430004F8FFEE710B50C46054BD3F8001118314D
:10244000FFF7C3F901212046FFF786FD10BD00BF4D
:102450002C00002038B5C368DC6844B94FF0500345
:1024600083F31188BFF36F8FBFF34F8FFEE704F143
:1024700018052846FFF7C3F9154BD3F8183103BBED
:10248000251D2846FFF7BBF9E36A01219940104A50
:10249000D2F80C010143C2F80C11303203EB830374
:1024A000980029461044FFF784F9E26A084BD3F8F4
:1024B0000031DB6A9A4209D90120054BC3F8280193
:1024C00038BD29460348FFF774F9EEE70020F7E727
:1024D0002C0000204000002038B1084AD2F820111A
:1024E0000160D2F81021426070474FF0500383F32F
:1024F0001188BFF36F8FBFF34F8FFEE72C000020D2
:1025000038B550B1044689B94FF0500383F31188B0
:10251000BFF36F8FBFF34F8FFEE74FF0500383F38E
:102520001188BFF36F8FBFF34F8FFEE70D4600F0AA
:1025300021FA124BD3F810112B68B3F1FF3F19D0D9
:1025400020680E4AD2F82021904202D062688A4266
:1025500012D96268881A834204D8012400F02CFA48
:10256000204638BD521A13442B602046FFF7B4FFB3
:102570000024F3E70024F1E70124EFE72C0000201A
:10258000024B0122C3F82821704700BF2C00002015
:10259000064BD3F804313BB1044BD3F818310BB1DF
:1025A0000020704702207047012070472C00002057
:1025B00000284DD038B50546C26A2649D1F8001129
:1025C000C96A8A4216D28169002906DB2149D1F8FD
:1025D0000011C96AC1F107018161686902EB8202D9
:1025E00091001D4A0A44904205D01A4AD2F80021AF
:1025F000D26AEA6238BD2C1D2046FFF700F9A0B16F
:102600001448D0F80031DB6AEB6201229A40D0F81E
:102610000C110A43C0F80C21303003EB83039A00FD
:1026200021461044FFF7C5F8E4E7EA6A02EB8203AB
:102630009900084B0B441B6B002BE1D10123934005
:102640000449D1F80C2122EA0302C1F80C21D7E792
:10265000704700BF2C0000205C00002000284DD0F7
:1026600038B50446284AD2F80021824208D04FF0FB
:10267000500383F31188BFF36F8FBFF34F8FFEE7D3
:10268000826C42B94FF0500383F31188BFF36F8F10
:10269000BFF34F8FFEE7013A8264C06A616C8842E3
:1026A0002ED07ABB251D2846FFF7A9F878B9E26A33
:1026B0001549142303FB02131B6B43B9012303FACF
:1026C00002F2D1F80C3123EA0203C1F80C31626C3A
:1026D000E262C2F10703A361012404FA02F10A4B8A
:1026E000D3F80C010143C3F80C11303329461420F0
:1026F00000FB0230FFF75DF8204638BD0020704730
:102700000020FAE70020F8E72C000020064BD3F861
:1027100000312BB1044BD3F80021936C0133936447
:10272000014BD3F8000170472C000020F8B5074694
:102730000D4614461E4600F01DF9244BD3F8003117
:1027400093F85030DBB2022B0CD0204BD3F8002191
:10275000D06C20EA0700D064D3F80031012283F85E
:1027600050201EBB00F028F900F004F924B1174BEB
:10277000D3F80031DB6C2360144BD3F8003193F8AD
:102780005030DBB2012B1ED0104BD3F80031D96C86
:1027900021EA0501D96401240C4BD3F80031002251
:1027A00083F8502000F008F92046F8BD1146304665
:1027B000FFF7D2FB064B4FF080521A60BFF34F8FEA
:1027C000BFF36F8FCEE70024E6E700BF2C000020A8
:1027D00004ED00E0F8B540B94FF0500383F31188E1
:1027E000BFF36F8FBFF34F8FFEE704461F461546BA
:1027F0000E4600F0BFF80FB1E36C3B6094F8503028
:10280000DBB2022284F850206A1E032A1AD8DFE8BD
:1028100002F0020C1114E26C1643E6640125012B50
:1028200014D000F0C9F82846F8BDE26C0132E26429
:102830000125F4E7E6640125F1E7022B04D0E66404
:102840000125ECE70125EAE70025E8E7261D3046EB
:10285000FEF7D5FFE06A01228240144BD3F80C1139
:102860000A43C3F80C2130333146142202FB0030F6
:10287000FEF79FFFA36A43B14FF0500383F3118823
:10288000BFF36F8FBFF34F8FFEE7E26A074BD3F8BA
:102890000031DB6A9A42C4D9054B4FF080521A606E
:1028A000BFF34F8FBFF36F8FBBE700BF2C0000203B
:1028B00004ED00E00B4B1B68B3F1FF3F08D04FF075
:1028C000500383F31188BFF36F8FBFF34F8FFEE781
:1028D0004FF0500383F31188BFF36F8FBFF34F8F17
:1028E000FEE700BF0800002006480068006880F38B
:1028F000088862B661B6BFF34F8FBFF36F8F00DFFA
:1029000000BF000008ED00E0DFF80C00016841F4B2
:10291000700101607047000088ED00E04FF08073A7
:1029200040F8043C21F0010140F8081C054B40F838
:102930000C3C40F8202C6FF0020340F8243C443853
:10294000704700BFB528000800000000000000002C
:10295000074B19680868B0E8F04F80F30988BFF3A7
:102960006F8F4FF0000080F311887047AFF3008045
:102970002C0100204FF0500383F31188BFF36F8FB9
:10298000BFF34F8F0A4A136801331360012B00D045
:102990007047084B1B6813F0FF0FF9D04FF050033E
:1029A00083F31188BFF36F8FBFF34F8FFEE700BF34
:1029B0000800002004ED00E0094B1B6843B94FF00C
:1029C000500383F31188BFF36F8FBFF34F8FFEE780
:1029D000013B034A13600BB983F31188704700BFB2
:1029E00008000020000000000000000000000000BF
:1029F000EFF30980BFF36F8F154B1A681EF0100FAD
:102A000008BF20ED108A20E9F04F10604DF8043D1A
:102A10004FF0500080F31188BFF34F8FBFF36F8FDB
:102A2000FFF7B6FC4FF0000080F3118808BC19686E
:102A30000868B0E8F04F1EF0100F08BFB0EC108A25
:102A400080F30988BFF36F8F704700BFAFF300803A
:102A50002C01002008B54FF0500383F31188BFF319
:102A60006F8FBFF34F8FFFF731FB18B1034B4FF060
:102A700080521A60002383F3118808BD04ED00E042
:102A8000064B1B68064AA2FB03239B09013B054A30
:102A90001360054B07221A60704700BF0C0000202E
:102AA000D34D621014E000E010E000E0314B1A68F2
:102AB000314B9A420DD02F4B1A68304B9A4211D1AC
:102AC0004FF0500383F31188BFF36F8FBFF34F8F25
:102AD000FEE74FF0500383F31188BFF36F8FBFF30E
:102AE0004F8FFEE700B583B0254B1A78D2B2019222
:102AF000FF221A701B78DBB28DF803309DF803308B
:102B000003F050031F4A1370072353609DF80330EE
:102B100013F0800F0AD01B4A5368013B53609DF8A5
:102B200003305B00DBB28DF80330EFE7154A5368E2
:102B30001B0203F4E0635360019BDBB2104A137085
:102B4000114B1A6842F470021A601A6842F070421F
:102B50001A60FFF795FF0D4B00221A60FFF7D4FEB5
:102B60000B4A136843F040431360FFF7BDFEFFF7C5
:102B7000A1FE00BF00ED00E071C20F4170C20F4125
:102B800000E400E05801002020ED00E008000020F3
:102B900034EF00E0104A12F0070F1AD0D11D21F0D7
:102BA0000701C1F5705313440A460C490A6000201E
:102BB00048601344083B23F007038B60586018609B
:102BC000981A50601360C86008614FF000434B6171
:102BD00070474FF47053E8E778010020600100204F
:102BE00010B4134B1A6882421BD359685C18844294
:102BF00003D1406801445960184641684418A24214
:102C000013D10B4CA468A2420DD05268114441600C
:102C10001A6812680260984200D018605DF8044B90
:102C200070471346DEE70460F5E70260F3E700BF94
:102C30006001002070B50446FFF73EFA394B9B68EF
:102C4000BBB1384B5B691C4262D1ACB1083414F0A3
:102C5000070F11D024F00704083404F007035BB118
:102C60004FF0500383F31188BFF36F8FBFF34F8F83
:102C7000FEE7FFF78FFFE4E7002C4BD0294B1B69E1
:102C8000A34249D3274B1D6801E02B4615466A68CD
:102C9000A24202D22A68002AF7D1224A9268AA42A6
:102CA0003CD01E6808362A681A606B681B1B102B04
:102CB00010D9281910F0070F08D04FF0500383F3F4
:102CC0001188BFF36F8FBFF34F8FFEE743606C60D7
:102CD000FFF786FF6968134A13695B1A1361D268AC
:102CE000934201D20F4AD3600E4B5B690B436B607A
:102CF00000232B60FFF770FA16F0070F10D04FF08B
:102D0000500383F31188BFF36F8FBFF34F8FFEE73C
:102D10000026EFE70026EDE70026EBE70026E9E7CF
:102D2000304670BD6001002080B338B50446A0F184
:102D3000080550F8042C164949690A4208D14FF099
:102D4000500383F31188BFF36F8FBFF34F8FFEE7FC
:102D500050F8080C40B14FF0500383F31188BFF3D3
:102D60006F8FBFF34F8FFEE722EA010244F8042C75
:102D7000FFF7A2F954F8041C054A13690B441361C8
:102D80002846FFF72DFFFFF727FA38BD704700BF31
:102D90006001002030B589B000240194134B1A6BF8
:102DA00042F001021A631A6B02F001020192019AC9
:102DB00002941A6B42F040021A631B6B03F040034B
:102DC0000293029B0A4D22464FF4C0412846FDF76C
:102DD0002AFD4FF4C0430393012304930594069402
:102DE00003A92846FDF728FC09B030BD0038024091
:102DF0000018024000B585B00E4A01AB07CA03C3F4
:102E00001A800D4C00234FF0FF3219462068FEF760
:102E1000F3FE64230A2201A90848FEF79FFB002362
:102E20001A4619462068FEF711FE4FF47A70FEF735
:102E30009CFCE6E7B4340008803D0020903D002073
:102E400000B585B00C4C00234FF0FF3219462068C6
:102E5000FEF7D2FE64230A2201A90848FEF7EEFB22
:102E600000231A4619462068FEF7F0FD40F6C4100C
:102E7000FEF77BFCE6E700BF803D0020903D002090
:102E800000B585B001AB224A07CA03C31A8011E01E
:102E9000204C4FF480412046FDF7BEFCB0FA80F292
:102EA00052094FF480412046FDF7BDFC4FF47A7083
:102EB000FEF75BFC4FF0FF336A46FF210020FFF76F
:102EC00035FC009B13F0010FE2D1134C00234FF0AF
:102ED000FF3219462068FEF78FFE64230A2201A9FB
:102EE0000E48FEF73BFB00231A4619462068FEF702
:102EF000ADFD084C4FF400512046FDF78DFCB0FAB3
:102F000080F252094FF400512046FDF78CFCCDE7CA
:102F1000C034000800180240843D0020D43D002049
:102F200030B587B06B461E4A07CA03C31A80012416
:102F300018E00133092B09DC06AA1A4412F80C1C0C
:102F400012F8182C9142F4D00024F2E704BB0023BD
:102F50000122194613480068FFF73CFC4FF47A70D1
:102F6000FEF703FC104D00234FF0FF32194628688E
:102F7000FEF742FE64230A2203A90C48FEF75EFB1B
:102F800000231A4619462868FEF760FD0023D1E7A2
:102F900000230122114603480068FFF71BFCDDE710
:102FA000CC3400087C3D0020843D0020D43D00202E
:102FB00008B50268034B9A4200D008BDFDF7B2FA8B
:102FC000FBE700BF00000140FEE7000008B50B482A
:102FD0000B4B03604FF4E133436000238360C36015
:102FE00003610C2242618361C361FEF788FA00B974
:102FF00008BD4FF492710348FFF7E6FF903D0020B3
:10300000001001404835000808B50B480B4B036021
:103010004FF4E133436000238360C36003610C22FB
:1030200042618361C361FEF76AFA00B908BD40F2EC
:1030300011110348FFF7C8FFD43D0020004C0040A9
:103040004835000800B595B0002201922D4B196C4F
:1030500041F0805119641B6C03F080530193019B74
:103060000292294B196841F4404119601B6803F42E
:1030700040430293029B0223089301210B911021EC
:103080000C910E930F9208221092B4221192129377
:103090000423139308A8FDF70DFC38BBFDF7CAFB0A
:1030A00040BB0F23039302230493002305934FF4A3
:1030B000A05306934FF480530793052103A8FDF70F
:1030C00019FED8B9FDF7C2FE104BA3FB00308009F2
:1030D000FDF78CFA0420FDF79FFA00220F214FF034
:1030E000FF30FDF743FA15B05DF804FBDF21084817
:1030F000FFF76AFFE6210648FFF766FFF421044860
:10310000FFF762FF0038024000700040D34D6210AC
:103110004835000880B596B0FDF7EAF9FFF792FF51
:10312000FFF738FEFFF752FFFFF76EFF002716A8E4
:1031300040F8047DFEF722FB1F4B186016A840F8EC
:10314000087DFEF71BFB1D4B18601D4C0FAD04F1F5
:1031500024060FCE0FC533682B6039460FA8FEF743
:10316000EAFA184B18600AAD04F138060FCE0FC505
:1031700033682B6039460AA8FEF7DDFA124B186057
:1031800005AD04F14C060FCE0FC533682B603946F0
:1031900005A8FEF7D0FA0D4B18606D4660340FCCD1
:1031A0000FC523682B6039466846FEF7C4FA084B02
:1031B0001860FEF7BBFAFEE7803D0020843D00204A
:1031C000B4340008883D0020D03D00207C3D002024
:1031D0008C3D002010B582B000240094214B5A6C25
:1031E00042F480425A645A6C02F480420092009A7F
:1031F00001941A6C42F080521A641B6C03F08053E5
:103200000193019B0320FDF79FF9224621466FF0B1
:103210000B00FDF7ABF9224621466FF00A00FDF7DF
:10322000A5F9224621466FF00900FDF79FF92246D5
:1032300021466FF00400FDF799F9224621466FF010
:103240000300FDF793F922460F216FF00100FDF70F
:103250008DF922460F214FF0FF30FDF787F902B0BC
:1032600010BD00BF0038024000B589B003681F4A96
:10327000934205D01E4A93421CD009B05DF804FB6E
:10328000002301931B4B1A6C42F400221A641B6C3E
:1032900003F400230193019B03230393022204926E
:1032A0000122059206930823079303A91248FDF70C
:1032B000C3F9E2E7002302930E4B5A6C42F010026E
:1032C0005A645B6C03F010030293029B4FF4C063DB
:1032D00003930223049301230593032306930723F7
:1032E000079303A90448FDF7A7F9C6E7004C00407F
:1032F00000100140003802400000024010B588B0C4
:10330000002201461920FDF731F91920FDF762F975
:1033100000240194144B5A6C42F001025A645B6C15
:1033200003F001030193019B02A903A8FDF7B4FD7B
:10333000FDF7A2FD43000D48A0FB03239B0C013BBE
:103340000B480C4A026040F2E732C26043600461FD
:103350008460FDF7EDFE10B1012008B010BD0448F7
:10336000FDF7B9FDF9E700BF0038024083DE1B43DB
:10337000143E0020000001407047FEE7FEE7FEE734
:10338000FEE7704708B5FEF7FEF908BD08B502482C
:10339000FDF7B1FD08BD00BF143E00200F49D1F874
:1033A000883043F47003C1F888300D4B1A6842F03E
:1033B00001021A60002098601A6822F0847222F4D8
:1033C00080321A60074A5A601A6822F480221A6012
:1033D000D8604FF000638B60704700BF00ED00E0E5
:1033E0000038024010300024DFF834D0002103E020
:1033F0000C4B5B58435004310B480C4B42189A421B
:10340000F6D30B4A02E0002342F8043B094B9A42F0
:10341000F9D3FFF7C3FF00F011F8FFF77BFE704709
:1034200000000320A035000800000020100000204C
:1034300010000020503E0020FEE7000070B50D4E49
:103440000D4CA41BA4100025A54209D10B4E0C4C19
:1034500000F024F8A41BA4100025A54205D170BDDE
:1034600056F8253098470135EEE756F8253098474D
:103470000135F2E7983500089835000898350008BE
:103480009C35000810B5431E0A44914200D110BD7E
:1034900011F8014B03F8014FF7E70000F8B500BF42
:1034A000F8BC08BC9E467047F8B500BFF8BC08BC25
:0434B0009E4670477D
:1034B4004142434445464748494A0000492047455C
:1034C400542049540A0D00004142434445464748AC
:1034D4006A68000084350008F52D0008000000002B
:1034E400000000008000000074350008412E000830
:1034F400FDFF0000000000008000000068350008A7
:10350400812E0008FDFF0000000000008000000084
:1035140058350008212F0008FDFF000000000000BE
:10352400800000000000000000000000010203040D
:1035340006070809000000000102030449444C4541
:10354400000000002E2E2F5372632F6D61696E2EC2
:103554006300000075617274345F72656365697637
:103564006500000075617274345F73656E640000F9
:1035740075617274315F7265636569766500000018
:0C35840075617274315F73656E64000045
:0835900090CCFF7F0100000058
:04359800D501000851
:04359C00B101000871
:1035A0000100000010000000AAAAAAAA0024F4004A
:04000005080033E9D3
:00000001FF
