:020000040800F2
:1000000000000320ED040008B5070008B70700084A
:10001000B9070008BB070008BD0700080000000082
:10002000000000000000000000000000BF07000802
:10003000C107000800000000C3070008C50700084A
:100040003D0500083D0500083D0500083D05000888
:100050003D0500083D0500083D0500083D05000878
:100060003D0500083D0500083D0500083D05000868
:100070003D0500083D0500083D0500083D05000858
:100080003D0500083D050008D10700083D050008B2
:100090003D0500083D0500083D0500083D05000838
:1000A0003D0500083D0500083D0500083D05000828
:1000B0003D0500083D0500083D0500083D05000818
:1000C0003D0500083D0500083D0500083D05000808
:1000D0003D0500083D0500083D0500083D050008F8
:1000E0003D0500083D0500083D0500083D050008E8
:1000F0003D0500083D0500083D0500083D050008D8
:100100003D0500083D0500083D0500083D050008C7
:100110003D0500083D0500083D0500083D050008B7
:100120003D0500083D0500083D0500083D050008A7
:100130003D0500083D0500083D0500083D05000897
:100140003D0500083D0500083D0500083D05000887
:100150003D0500083D0500083D0500083D05000877
:100160003D0500083D0500083D0500083D05000867
:100170003D0500083D0500083D05000800000000A1
:100180003D0500083D0500083D0500083D05000847
:100190003D0500083D0500083D0500083D05000837
:0C01A0003D0500083D0500083D05000875
:1001AC0010B5054C237833B9044B13B10448AFF3A5
:1001BC0000800123237010BD0C0000200000000003
:1001CC003015000808B5034B1BB103490348AFF3C6
:1001DC00008008BD00000000100000203015000851
:1001EC0053B94AB9002908BF00281CBF4FF0FF3192
:1001FC004FF0FF3000F072B9ADF1080C6DE904CE90
:10020C0000F006F8DDF804E0DDE9022304B07047E5
:10021C002DE9F047089E04468846002B4BD18A42B4
:10022C00154667D9B2FA82F24AB1C2F1200701FA37
:10023C0002F320FA07F7954047EA030894404FEA87
:10024C00154E230CB8FBFEF71FFA85FC0EFB178826
:10025C0043EA084307FB0CF1994209D9EB1807F163
:10026C00FF3080F01B81994240F21881023F2B44F1
:10027C005B1AA4B2B3FBFEF00EFB103344EA03444A
:10028C0000FB0CFCA44509D92C1900F1FF3380F0BC
:10029C000781A44540F2048102382C4440EA07400F
:1002AC00A4EB0C0400271EB1D4400023C6E9004384
:1002BC003946BDE8F0878B4209D9002E00F0EB805F
:1002CC000027C6E9000138463946BDE8F087B3FA85
:1002DC0083F7002F47D18B4202D3824200F2FA807F
:1002EC00841A61EB030301209846002EE0D0C6E986
:1002FC000048DDE702B9FFDEB2FA82F2002A40F0D4
:10030C008F80491B4FEA154E1FFA85F80127B1FB68
:10031C00FEFC230C0EFB1C1143EA014308FB0CF101
:10032C00994207D9EB180CF1FF3002D2994200F236
:10033C00CD808446591AA3B2B1FBFEF00EFB10140B
:10034C0043EA044408FB00F8A04507D92C1900F136
:10035C00FF3302D2A04500F2B6801846A4EB080485
:10036C0040EA0C409FE7C7F1200CBB4022FA0CFE80
:10037C004EEA030E01FA07F420FA0CF521FA0CF3FD
:10038C004FEA1E482543B3FBF8F92C0C08FB193334
:10039C001FFA8EFA44EA034309FB0AF49C4202FA60
:1003AC0007F200FA07F10BD91EEB030309F1FF303A
:1003BC0080F087809C4240F28480A9F1020973444A
:1003CC001B1BADB2B3FBF8F008FB103345EA03443A
:1003DC0000FB0AFAA24508D91EEB040400F1FF3316
:1003EC006BD2A24569D90238744440EA0940A0FB9B
:1003FC000289A4EB0A044C45C2464B4654D351D057
:10040C00002E69D0B1EB0A0564EB030404FA0CFC72
:10041C00FD40FC404CEA0505C6E90054002747E7BF
:10042C00C2F1200320FA03F7954001FA02F021FAF9
:10043C0003F34FEA154E3843010CB3FBFEF71FFADA
:10044C0085F80EFB173341EA034107FB08F38B4297
:10045C0004FA02F407D9691807F1FF3C2FD28B423A
:10046C002DD9023F2944CB1A81B2B3FBFEF00EFB0F
:10047C00103341EA034100FB08F38B4207D969189A
:10048C0000F1FF3C17D28B4215D902382944C91A06
:10049C0040EA07473BE73746304609E70746E7E6B9
:1004AC001846FBE64145ABD2B8EB020A69EB0E02EB
:1004BC0001381346A4E76046E9E7184695E7674616
:1004CC00D1E781467CE702382C4447E7ACF1020CBB
:1004DC002B442FE7384608E73746E9E6704700BF5C
:1004EC00DFF834D0002103E00C4B5B58435004314F
:1004FC000B480C4B42189A42F6D30B4A02E00023ED
:10050C0042F8043B094B9A42F9D300F063F900F02E
:10051C00E5FF00F0D1F8704700000320A815000893
:10052C00000000200C0000200C00002080000020A7
:10053C00FEE7000008B5124800F008FB80B2114B32
:10054C00188007EE900AF8EEE77AB0EE087A67EEBC
:10055C00877ADFED0D6A87EEA67A0C4B83ED007A75
:10056C00DFED0B7A37EE677ADFED0A6AC7EE267A93
:10057C00B3EE097A77EE877A074BC3ED007A08BDA4
:10058C00300000202800002000F07F45780000207B
:10059C005C8F423F0AD7233B2C000020FEE7000073
:1005AC0000B585B01448154B03600023436083608D
:1005BC000361012282610362C36211498162C360DB
:1005CC00C2610363426100F013FA68B90D4B0093EA
:1005DC0001230193072302936946074800F062FB4D
:1005EC0030B905B05DF804FBCA210748FFF7D6FF08
:1005FC00D4210548FFF7D2FF300000200020014035
:10060C000100000F120000106015000800B595B035
:10061C0000220192244B196C41F0805119641B6C1F
:10062C0003F080530193019B029220490B6823F441
:10063C00404343F480430B600B6803F44043029344
:10064C00029B0223089301230B9310230C930E920D
:10065C0008A800F071FCF0B90F230393002104915A
:10066C0005910691079103A800F086FEB8B900F039
:10067C002FFF0F4BA3FB0030800900F031FC04204E
:10068C0000F044FC002211464FF0FF3000F0E8FB74
:10069C0015B05DF804FB97210648FFF77FFFA521F5
:1006AC000448FFF77BFF00BF003802400070004099
:1006BC00D34D62106015000808B500F0D5F8FFF7AF
:1006CC00A5FFFFF76DFF024800F0BCF9FEE700BF85
:1006DC003000002010B582B000240094214B5A6CDD
:1006EC0042F480425A645A6C02F480420092009A9E
:1006FC0001941A6C42F080521A641B6C03F0805304
:10070C000193019B032000F099FB224621466FF0D8
:10071C000B0000F0A5FB224621466FF00A0000F00A
:10072C009FFB224621466FF0090000F099FB224600
:10073C0021466FF0040000F093FB224621466FF037
:10074C00030000F08DFB224621466FF0010000F003
:10075C0087FB224621464FF0FF3000F081FB02B0B0
:10076C0010BD00BF0038024002680E4B9A4200D008
:10077C00704700B583B00021019103F58C335A6C9E
:10078C0042F480725A645B6C03F480730193019B96
:10079C000A46122000F064FB122000F095FB03B017
:1007AC005DF804FB002001407047FEE7FEE7FEE722
:1007BC00FEE770477047704708B500F06FF800F01F
:1007CC00B6FB08BD08B5024800F0C5F908BD00BF6E
:1007DC00300000200F49D1F8883043F47003C1F881
:1007EC0088300D4B1A6842F001021A6000209860A4
:1007FC001A6822F0847222F480321A60074A5A6016
:10080C001A6822F480221A60D8604FF000638B6063
:10081C00704700BF00ED00E00038024010300024AB
:10082C0010B504460E4B18784FF47A73B3FBF0F303
:10083C000C4A1068B0FBF3F000F052FB68B90F2CB7
:10084C0001D901200AE0002221464FF0FF3000F0D0
:10085C0007FB034B5C60002000E0012010BD00BFD3
:10086C00040000200000002008B50B4B1A6842F46D
:10087C0000721A601A6842F480621A601A6842F4B4
:10088C0080721A60032000F0D9FA0020FFF7C8FF2D
:10089C00FFF720FF002008BD003C0240034A11680E
:1008AC00034B1B780B441360704700BF7C00002087
:1008BC0004000020014B1868704700BF7C0000202A
:1008CC00494B5A6822F440325A605A6841680A43CC
:1008DC005A600268536823F480735360026853684B
:1008EC00016943EA012353600268536823F04073A3
:1008FC0053600268536881680B43536002689368C5
:10090C0023F40063936002689368C1680B4393609F
:10091C00826A364B9A4249D00268936823F070631E
:10092C00936002689368816A0B43936002689368D2
:10093C0023F04053936002689368C16A0B43936041
:10094C000268936823F002039360026893688169DC
:10095C0043EA41039360036A002B32D10268536867
:10096C0023F4006353600268D36A23F47003D362E8
:10097C000168CB6AC269013A43EA0253CB6202684E
:10098C00936823F40073936002689368016B43EAE5
:10099C00412393600268936823F480639360026838
:1009AC009368416943EA81239360704702689368B6
:1009BC0023F0706393600268936823F04053936054
:1009CC00BEE70268536843F40063536002685368DF
:1009DC0023F46043536001684B68426A013A43EA6E
:1009EC0042334B60BFE700BF002301400100000F02
:1009FC0030B310B50446036C43B1236C13F0100FE5
:100A0C000AD00120002384F83C3010BD436480F8E8
:100A1C003C30FFF7A9FEF0E7236C23F4885323F056
:100A2C00020343F0020323642046FFF749FF002032
:100A3C006064236C23F0030343F001032364E1E7B8
:100A4C000120704782B00023019390F83C30012BB9
:100A5C006AD0012380F83C3003689A6812F0010FC9
:100A6C0013D19A6842F001029A60344B1B68344AE5
:100A7C00A2FB03239B0C03EB4303019302E0019BBA
:100A8C00013B0193019B002BF9D10268936813F091
:100A9C00010F4BD0036C23F4E06323F0010343F408
:100AAC0080730364536813F4806F05D0036C23F4D4
:100ABC00405343F480530364036C13F4805F20D0E1
:100ACC00436C23F006034364002380F83C306FF042
:100ADC00220313600268536843F0806343F02003E1
:100AEC005360184B5B6813F01F0F0DD103689A68A5
:100AFC0012F0405F1DD19A6842F080429A6000204B
:100B0C0015E000234364DFE703680F4A934201D0EA
:100B1C0000200CE09A6812F0405F0CD19A6842F009
:100B2C0080429A60002002E0022000E0002002B027
:100B3C0070470020FBE70020F9E700BF0000002011
:100B4C0083DE1B4300230140002001400368D86C66
:100B5C0070477047704738B504460268116853688F
:100B6C0011F0020F2FD003F0200363B3036C13F0CA
:100B7C00100F03D1036C43F400730364936813F0F8
:100B8C00405F19D1A369BBB9D36A13F4700F03D0BA
:100B9C00936813F4806F0FD1536823F020035360D4
:100BAC00236C23F480732364236C13F4805F03D1D0
:100BBC00236C43F0010323642046FFF7BBFC23683E
:100BCC006FF012021A60236819685A6802F08002EA
:100BDC0011F0040F36D0002A34D0226C12F0100F12
:100BEC0003D1226C42F4005222649A6812F4401F22
:100BFC0021D19A6B12F4401F03D09A6812F4806FC3
:100C0C0019D15A6812F4806F15D19A6812F0405FAE
:100C1C0011D1A2697AB95A6822F080025A60236C09
:100C2C0023F480532364236C13F4807F03D1236C4F
:100C3C0043F001032364204600F0FEF823686FF0B4
:100C4C000C021A6022681168536803F0400311F01B
:100C5C00010F04D01BB1136813F0010F09D12268E6
:100C6C001168536803F0806311F0200F00D063B952
:100C7C0038BD236C43F4803323642046FFF769FFAF
:100C8C0023686FF001021A60E9E7636C43F002031A
:100C9C0063646FF0200515602046FFF75BFF236847
:100CAC001D60E5E730B482B00023019390F83C302E
:100CBC00012B00F0B580012380F83C300B68092B28
:100CCC003ED90568EA689BB203EB43031E3B07243D
:100CDC0004FA03F322EA0303EB600568EA688C6804
:100CEC000B8803EB43031E3B04FA03F31343EB6043
:100CFC004B68062B3AD805686A6B03EB8303053BFC
:100D0C001F2404FA03F322EA03036B6305686A6B7E
:100D1C004B6803EB8303053B0C8804FA03F3134382
:100D2C006B6302683F4B9A4250D002683D4B9A422B
:100D3C0055D0002380F83C30184602B030BC7047C8
:100D4C0005682A699BB203EB4303072404FA03F3F7
:100D5C0022EA03032B6105682A698C680B8803EB74
:100D6C00430304FA03F313432B61C1E70C2B16D88E
:100D7C0005682A6B03EB8303233B1F2404FA03F35C
:100D8C0022EA03032B6305682A6B4B6803EB83038E
:100D9C00233B0C8804FA03F313432B63C1E7056868
:100DAC00EA6A03EB8303413B1F2404FA03F322EAB0
:100DBC000303EB620568EA6A4B6803EB8303413B70
:100DCC000C8804FA03F31343EB62AAE70B68122BAB
:100DDC00ABD1154A536843F480035360A5E70B6805
:100DEC00124A934201D0112BA3D10F4A536843F4FA
:100DFC00000353600A680D4B9A429AD10C4B1B6846
:100E0C000C4AA2FB03239B0C03EB83035A000192B5
:100E1C0002E0019B013B0193019B002BF9D188E778
:100E2C0002208AE70020014000230140120000103C
:100E3C000000002083DE1B4370470000074AD36884
:100E4C0023F4E0631B041B0C000200F4E060184365
:100E5C0040F0BF6040F40030D060704700ED00E01F
:100E6C0030B4174BDB68C3F30223C3F10704042C23
:100E7C0028BF04241D1D062D18D9033B4FF0FF3548
:100E8C0005FA04F421EA0401994005FA03F322EA75
:100E9C000303194300280BDB0901C9B200F16040C0
:100EAC0000F5614080F8001330BC70470023E5E783
:100EBC0000F00F000901C9B2024B1954F4E700BF4E
:100ECC0000ED00E014ED00E000F01F0240090123EA
:100EDC009340024A42F82030704700BF00E100E026
:100EEC000138B0F1807F0AD2064B5860064AF021D7
:100EFC0082F823100020986007221A6070470120A6
:100F0C00704700BF10E000E000ED00E0042805D0C1
:100F1C00054A136823F0040313607047024A1368F0
:100F2C0043F004031360704710E000E0704708B50D
:100F3C00FFF7FCFF08BD0000002800F0BB8170B576
:100F4C0082B00446036813F0010F3BD0A74B9B689B
:100F5C0003F00C03042B2CD0A44B9B6803F00C0364
:100F6C00082B21D06368B3F5803F4FD0B3F5A02F89
:100F7C0052D09E4B1A6822F480321A601A6822F4FE
:100F8C0080221A606368002B50D0FFF793FC054653
:100F9C00964B1B6813F4003F14D1FFF78BFC401BDE
:100FAC006428F5D903208AE1904B5B6813F4800F19
:100FBC00D8D08E4B1B6813F4003F03D06368002B12
:100FCC0000F07A81236813F0020F55D0874B9B6891
:100FDC0013F00C0F3ED0854B9B6803F00C03082BD1
:100FEC0033D0E368002B68D0814B01221A60FFF7E5
:100FFC0061FC05467D4B1B6813F0020F54D1FFF7C3
:10100C0059FC401B0228F5D9032058E1774A136894
:10101C0043F480331360B5E7744B1A6842F48022B2
:10102C001A601A6842F480321A60ABE7FFF742FC90
:10103C0005466E4B1B6813F4003FC3D0FFF73AFC18
:10104C00401B6428F5D9032039E1684B5B6813F425
:10105C00800FC6D1654B1B6813F0020F04D0E368F8
:10106C00012B01D001202AE1604A136823F0F80318
:10107C00216943EAC1031360236813F0080F40D0C1
:10108C00636963B35B4B01221A60FFF713FC0546DF
:10109C00564B5B6F13F0020F33D1FFF70BFC401B69
:1010AC000228F5D903200AE1504A136823F0F8030B
:1010BC00216943EAC1031360DEE74D4B00221A603D
:1010CC00FFF7F8FB0546494B1B6813F0020FD3D012
:1010DC00FFF7F0FB401B0228F5D90320EFE0454B4E
:1010EC0000221A60FFF7E6FB0546404B5B6F13F0DE
:1010FC00020F06D0FFF7DEFB401B0228F5D90320B8
:10110C00DDE0236813F0040F79D0384B1B6C13F01F
:10111C00805F33D100230193344B1A6C42F0805220
:10112C001A641B6C03F080530193019B0125324B15
:10113C001B6813F4807F23D0A368012B34D0052BBC
:10114C0038D02A4B1A6F22F001021A671A6F22F05C
:10115C0004021A67A368002B36D0FFF7ABFB0646D8
:10116C00224B1B6F13F0020F48D1FFF7A3FB801B20
:10117C0041F288339842F3D90320A0E00025D6E74A
:10118C001D4A136843F480731360FFF793FB064604
:10119C00194B1B6813F4807FCED1FFF78BFB801BA0
:1011AC000228F5D903208AE0104A136F43F001039B
:1011BC001367CFE70D4B1A6F42F004021A671A6FD0
:1011CC0042F001021A67C5E7FFF774FB0646074BAE
:1011DC001B6F13F0020F11D0FFF76CFB801B41F259
:1011EC0088339842F3D9032069E000BF00380240ED
:1011FC0000004742800E474200700040E5B9A369E9
:10120C00002B5BD0304A926802F00C02082A58D0AE
:10121C00022B17D02D4B00221A60FFF74BFB044614
:10122C00294B1B6813F0007F42D0FFF743FB001BD8
:10123C000228F5D9032042E0234A136C23F0805393
:10124C001364DCE7214B00221A60FFF733FB0546E1
:10125C001D4B1B6813F0007F06D0FFF72BFB401BC8
:10126C000228F5D903202AE0E369226A1343626A53
:10127C0043EA8213A26A5208013A43EA0243E26A41
:10128C0043EA0263104A5360104B01221A60FFF7C5
:10129C0011FB04460C4B1B6813F0007F06D1FFF7C3
:1012AC0009FB001B0228F5D9032008E0002006E00A
:1012BC00002004E001207047012000E0002002B073
:1012CC0070BD0120FBE700BF0038024060004742C0
:1012DC00264B9B6803F00C03042B44D0082B01D045
:1012EC00234870472DE9F04B204B5A6802F03F021F
:1012FC005B6813F4800F13D01C4B5968C1F3881131
:10130C0000231C48A1FB0001FEF76AFF174B5B682A
:10131C00C3F3014301335B00B0FBF3F0BDE8F08B8A
:10132C00124B5B68C3F388131E4600275C01002533
:10133C00E41A65EB0705A90141EA9461A001001BC1
:10134C0061EB0501CB0043EA5073C400A01943EBD9
:10135C0007018B0243EA905384022046194600236E
:10136C00FEF73EFFD2E70348704700BF003802404B
:10137C000024F40040787D01002800F09D8070B5B9
:10138C0004464F4B1B6803F00F038B4209D2CBB2C0
:10139C004B4A1370136803F00F038B4201D00120EA
:1013AC0070BD236813F0020F17D013F0040F04D094
:1013BC00444A936843F4E0539360236813F0080F96
:1013CC0004D0404A936843F4604393603D4A936869
:1013DC0023F0F003A068034393600D46236813F0D9
:1013EC00010F32D06368012B21D09A1E012A25D916
:1013FC00344A126812F0020F60D032498A6822F027
:10140C00030213438B60FFF755FA06462D4B9B687E
:10141C0003F00C036268B3EB820F16D0FFF74AFAA5
:10142C00801B41F288339842F0D90320B8E7254A53
:10143C00126812F4003FE0D10120B1E7214A126892
:10144C0012F0007FD9D10120AAE71D4B1B6803F0D5
:10145C000F03AB4209D9EAB2194B1A701B6803F09F
:10146C000F03AB4201D001209AE7236813F0040F5D
:10147C0006D0144A936823F4E053E1680B4393605D
:10148C00236813F0080F07D00E4A936823F46043C7
:10149C00216943EAC1039360FFF71AFF094B9B686C
:1014AC00C3F30313084AD35CD840084B18600020E0
:1014BC00FFF7B6F9002073E70120704701206FE7B2
:1014CC00003C024000380240481500080000002093
:1014DC00014B1868704700BF0000002070B50D4E1E
:1014EC000D4CA41BA4100025A54209D10B4E0C4C8D
:1014FC0000F018F8A41BA4100025A54205D170BD5E
:10150C0056F8253098470135EEE756F825309847C0
:10151C000135F2E7A0150008A0150008A015000879
:10152C00A4150008F8B500BFF8BC08BC9E4670476F
:0C153C00F8B500BFF8BC08BC9E46704724
:10154800000000000000000001020304060708096B
:101558000000000001020304453A2F5334572F5767
:101568006F726B73706163655F444953434F2F41DA
:1015780044435F32496E746572727570745F437567
:1015880062654D582F5372632F6D61696E2E63002B
:0815980084ECFF7F010000005C
:0415A000D10100086D
:0415A400AD0100088D
:0C15A8000024F40001000000100000000E
:04000005080004EDFE
:00000001FF
