:020000040800F2
:1000000000000320ED040008E5080008E7080008E8
:10001000E9080008EB080008ED08000800000000EF
:10002000000000000000000000000000EF080008D1
:10003000F108000800000000F3080008F5080008B7
:100040003D0500083D0500083D0500083D05000888
:100050003D0500083D0500083D0500083D05000878
:100060003D0500083D0500083D0500083D05000868
:100070003D0500083D050008010900083D05000890
:100080003D0500083D0500083D0500083D05000848
:100090003D0500083D0500083D0500083D05000838
:1000A0003D0500083D0500083D0500083D05000828
:1000B0003D0500083D050008110900083D05000840
:1000C0003D0500083D0500083D0500083D05000808
:1000D0003D0500083D0500083D0500083D050008F8
:1000E0003D0500083D0500083D0500083D050008E8
:1000F0003D0500083D0500083D0500083D050008D8
:100100003D0500083D0500083D0500083D050008C7
:100110003D0500083D0500083D0500083D050008B7
:100120003D0500083D0500083D0500083D050008A7
:100130003D0500083D0500083D0500083D05000897
:100140003D0500083D0500083D0500083D05000887
:100150003D0500083D0500083D0500083D05000877
:100160003D0500083D0500083D0500083D05000867
:100170003D0500083D0500083D05000800000000A1
:100180003D0500083D0500083D0500083D05000847
:100190003D0500083D0500083D0500083D05000837
:0C01A0003D0500083D0500083D05000875
:1001AC0010B5054C237833B9044B13B10448AFF3A5
:1001BC0000800123237010BD1000002000000000FF
:1001CC00BC1F000808B5034B1BB103490348AFF330
:1001DC00008008BD0000000014000020BC1F0008B7
:1001EC0053B94AB9002908BF00281CBF4FF0FF3192
:1001FC004FF0FF3000F072B9ADF1080C6DE904CE90
:10020C0000F006F8DDF804E0DDE9022304B07047E5
:10021C002DE9F047089E04468846002B4BD18A42B4
:10022C00154667D9B2FA82F24AB1C2F1200701FA37
:10023C0002F320FA07F7954047EA030894404FEA87
:10024C00154E230CB8FBFEF71FFA85FC0EFB178826
:10025C0043EA084307FB0CF1994209D9EB1807F163
:10026C00FF3080F01B81994240F21881023F2B44F1
:10027C005B1AA4B2B3FBFEF00EFB103344EA03444A
:10028C0000FB0CFCA44509D92C1900F1FF3380F0BC
:10029C000781A44540F2048102382C4440EA07400F
:1002AC00A4EB0C0400271EB1D4400023C6E9004384
:1002BC003946BDE8F0878B4209D9002E00F0EB805F
:1002CC000027C6E9000138463946BDE8F087B3FA85
:1002DC0083F7002F47D18B4202D3824200F2FA807F
:1002EC00841A61EB030301209846002EE0D0C6E986
:1002FC000048DDE702B9FFDEB2FA82F2002A40F0D4
:10030C008F80491B4FEA154E1FFA85F80127B1FB68
:10031C00FEFC230C0EFB1C1143EA014308FB0CF101
:10032C00994207D9EB180CF1FF3002D2994200F236
:10033C00CD808446591AA3B2B1FBFEF00EFB10140B
:10034C0043EA044408FB00F8A04507D92C1900F136
:10035C00FF3302D2A04500F2B6801846A4EB080485
:10036C0040EA0C409FE7C7F1200CBB4022FA0CFE80
:10037C004EEA030E01FA07F420FA0CF521FA0CF3FD
:10038C004FEA1E482543B3FBF8F92C0C08FB193334
:10039C001FFA8EFA44EA034309FB0AF49C4202FA60
:1003AC0007F200FA07F10BD91EEB030309F1FF303A
:1003BC0080F087809C4240F28480A9F1020973444A
:1003CC001B1BADB2B3FBF8F008FB103345EA03443A
:1003DC0000FB0AFAA24508D91EEB040400F1FF3316
:1003EC006BD2A24569D90238744440EA0940A0FB9B
:1003FC000289A4EB0A044C45C2464B4654D351D057
:10040C00002E69D0B1EB0A0564EB030404FA0CFC72
:10041C00FD40FC404CEA0505C6E90054002747E7BF
:10042C00C2F1200320FA03F7954001FA02F021FAF9
:10043C0003F34FEA154E3843010CB3FBFEF71FFADA
:10044C0085F80EFB173341EA034107FB08F38B4297
:10045C0004FA02F407D9691807F1FF3C2FD28B423A
:10046C002DD9023F2944CB1A81B2B3FBFEF00EFB0F
:10047C00103341EA034100FB08F38B4207D969189A
:10048C0000F1FF3C17D28B4215D902382944C91A06
:10049C0040EA07473BE73746304609E70746E7E6B9
:1004AC001846FBE64145ABD2B8EB020A69EB0E02EB
:1004BC0001381346A4E76046E9E7184695E7674616
:1004CC00D1E781467CE702382C4447E7ACF1020CBB
:1004DC002B442FE7384608E73746E9E6704700BF5C
:1004EC00DFF834D0002103E00C4B5B58435004314F
:1004FC000B480C4B42189A42F6D30B4A02E00023ED
:10050C0042F8043B094B9A42F9D300F003FA01F08C
:10051C002BFD00F01DF9704700000320702000082F
:10052C00000000201000002010000020D40000204B
:10053C00FEE7000082B000230193064B1A6B42F0D9
:10054C0002021A631B6B03F002030193019B02B0BE
:10055C00704700BF0038024000B583B00021019104
:10056C00094B1A6B42F400121A631B6B03F4001351
:10057C000193019B0A460E2000F054FA0E2000F065
:10058C0085FA03B05DF804FB00380240104A13787A
:10059C000133DBB21370282B00D0704713460022B6
:1005AC001A705B68642B04D033B90A4A01211170AC
:1005BC0002E0084A00211170064A12781AB9013B70
:1005CC00034A5360E9E70133014A5360704700BFA7
:1005DC002C00002000000020FEE7000000B58FB0CA
:1005EC002448254B036042F2273343600023836089
:1005FC006322C260036101F01FFB38BB0EA94FF4EC
:10060C00805341F8103D1B4801F044F910BB1948C8
:10061C0001F02BFB10BB00230893099308A9154884
:10062C0001F076FCF0B9602301930023029303934D
:10063C00059304220DEB02010E4801F061FBA8B9F1
:10064C000C4800F02FF90FB05DF804FBCA210B48E1
:10065C00FFF7C2FFD0210948FFF7BEFFD52107489D
:10066C00FFF7BAFFDC210548FFF7B6FFE521034889
:10067C00FFF7B2FF9400002000080040F41F0008B0
:10068C0000B595B0002201922D4B196C41F08051B0
:10069C0019641B6C03F080530193019B0292294B4C
:1006AC00196841F4404119601B6803F440430293FC
:1006BC00029B0223089301210B9110210C910E93A4
:1006CC000F9208221092B4221192129304231393C6
:1006DC0008A800F04BFD38BB00F008FD40BB0F2311
:1006EC00039302230493002305934FF4A053069322
:1006FC004FF480530793052103A800F057FFD8B996
:10070C0001F000F8104BA3FB0030800900F0CAF98F
:10071C00042000F0DDF9002211464FF0FF3000F00C
:10072C0081F915B05DF804FB97210848FFF754FFD9
:10073C009E210648FFF750FFAC210448FFF74CFF01
:10074C000038024000700040D34D6210F41F0008C6
:10075C0008B500F029F9FFF793FFFFF7EBFEFFF761
:10076C00FBFEFFF73BFF0123024A0421024801F084
:10077C0045FBFEE7300000209400002010B582B04D
:10078C0000240094214B5A6C42F480425A645A6CF7
:10079C0002F480420092009A01941A6C42F080524A
:1007AC001A641B6C03F080530193019B032000F02F
:1007BC0027F9224621466FF00B0000F033F9224650
:1007CC0021466FF00A0000F02DF9224621466FF009
:1007DC00090000F027F9224621466FF0040000F0D2
:1007EC0021F9224621466FF0030000F01BF9224646
:1007FC0021466FF0010000F015F9224621464FF01A
:10080C00FF3000F00FF902B010BD00BF00380240FD
:10081C0002681F4B9A4200D0704710B582B0044654
:10082C00002301931B4A116C41F004011164126CFA
:10083C0002F004020192019A1748184A02604FF024
:10084C008062426040228260C3604FF48062026129
:10085C004FF4006242614FF4005282614FF4807297
:10086C00C2610362436200F0C3F960B90A4B636270
:10087C009C63002211461E2000F0D4F81E2000F0CC
:10088C0005F902B010BD6D210548FFF7A5FEEDE797
:10089C00000800400038024034000020586002403C
:1008AC002420000802680A4B9A4200D0704700B519
:1008BC0087B08023019302230293002203920492B7
:1008CC00059301A9034800F021FB07B05DF804FB78
:1008DC0000080040000402407047FEE7FEE7FEE718
:1008EC00FEE770477047704708B500F077F800F0E6
:1008FC00FFF808BD08B5024800F01AFA08BD00BFA1
:10090C003400002008B5024801F06FF808BD00BFA4
:10091C00940000200F49D1F8883043F47003C1F8DB
:10092C0088300D4B1A6842F001021A600020986062
:10093C001A6822F0847222F480321A60074A5A60D4
:10094C001A6822F480221A60D8604FF000638B6022
:10095C00704700BF00ED00E000380240103000246A
:10096C0010B504460E4B18784FF47A73B3FBF0F3C2
:10097C000C4A1068B0FBF3F000F094F868B90F2C37
:10098C0001D901200AE0002221464FF0FF3000F08F
:10099C0049F8034B5C60002000E0012010BD00BF53
:1009AC00080000200400002008B50B4B1A6842F424
:1009BC0000721A601A6842F480621A601A6842F473
:1009CC0080721A60032000F01BF80020FFF7C8FFAC
:1009DC00FFF7D4FE002008BD003C0240034A11681A
:1009EC00034B1B780B441360704700BFD0000020F2
:1009FC0008000020014B1868704700BFD000002091
:100A0C00074AD36823F4E0631B041B0C000200F4B8
:100A1C00E060184340F0BF6040F40030D060704795
:100A2C0000ED00E030B4174BDB68C3F30223C3F1D5
:100A3C000704042C28BF04241D1D062D18D9033BC4
:100A4C004FF0FF3505FA04F421EA0401994005FA48
:100A5C0003F322EA0303194300280BDB0901C9B293
:100A6C0000F1604000F5614080F8001330BC704725
:100A7C000023E5E700F00F000901C9B2024B19543D
:100A8C00F4E700BF00ED00E014ED00E000F01F0201
:100A9C00400901239340024A42F82030704700BFBE
:100AAC0000E100E00138B0F1807F0AD2064B5860BB
:100ABC00064AF02182F823100020986007221A6061
:100ACC0070470120704700BF10E000E000ED00E02F
:100ADC00042805D0054A136823F0040313607047FB
:100AEC00024A136843F004031360704710E000E0FF
:100AFC0008B5FFF74BFD08BD30B405682C6824F42D
:100B0C0080242C60046863608368402B05D00368E4
:100B1C0099600368DA6030BC704703689A600368B8
:100B2C00D960F8E70268D3B2103B0B49A1FB031361
:100B3C001B090A49C95CC165032B06D822F47F72D4
:100B4C0022F003028265806D704722F47F7222F0DE
:100B5C00030204328265F6E7ABAAAAAAEC1F0008CE
:100B6C00836A826992B9012B0AD01BB1022B01D086
:100B7C0000207047C36A13F0807F2CD1002070478F
:100B8C00C36AB3F1C07F28D000207047B2F5005F74
:100B9C0005D0022B29D9032B15D000207047032B2D
:100BAC0003D8DFE803F01C041C0A00207047C36A5A
:100BBC0013F0807F15D100207047C36AB3F1C07F5A
:100BCC0011D000207047C36A13F0807F01D0012040
:100BDC0070470020704701207047012070470120AA
:100BEC0070470120704701207047012070470000BA
:100BFC0070B50446FFF7FEFE002C5BD005460023C3
:100C0C0084F83430022384F835302268136823F0DA
:100C1C000103136023681A6812F0010F0AD0FFF762
:100C2C00E9FE401B0528F5D920236365032084F8D1
:100C3C00350070BD1A68204810406168A2680A43EC
:100C4C00E1680A4321690A4361690A43A1690A43BD
:100C5C00E1690A43216A0A430243616A04291ED0EE
:100C6C001A602668756925F00705636A1D43042B15
:100C7C0007D1A36A1D43E36A1BB12046FFF770FF3F
:100C8C0090B975612046FFF74DFFE26D3F2393400D
:100C9C00836000206065012384F83530C9E7E16A80
:100CAC00206B01430A43DBE740236365012084F892
:100CBC003500BEE70120BCE73F8010F038B5856DEC
:100CCC0090F83440012C31D0012480F8344090F855
:100CDC003540E4B2012C04D0002380F834300220DB
:100CEC0038BD0446022084F835000020606520469B
:100CFC00FFF702FFE26D3F239340AB60226813685D
:100D0C0043F0160313602268536943F08003536168
:100D1C00236C23B12268136843F008031360226824
:100D2C00136843F0010313600020D9E70220D7E7D2
:100D3C00F0B583B0044600230193724B1D68724BCF
:100D4C00A3FB0535AD0A876D3E68C26D0823934041
:100D5C00334210D003681A6812F0040F0BD01A68D3
:100D6C0022F004021A60C26D08239340BB60436DED
:100D7C0043F001034365E26D01239340334209D0F4
:100D8C002268526912F0800F04D0BB60636D43F08F
:100D9C0002036365E26D04239340334209D0226859
:100DAC00126812F0020F04D0BB60636D43F00403B1
:100DBC006365E26D10239340334224D0226812689D
:100DCC0012F0080F1FD0BB6023681A6812F4802F32
:100DDC000DD01B6813F4002F04D1236C9BB120465B
:100DEC00984710E0A36C73B1204698470BE01A6843
:100DFC0012F4807F03D11A6822F008021A60236C67
:100E0C000BB120469847E26D20239340334255D0D6
:100E1C002268126812F0100F50D0BB6094F8353075
:100E2C00DBB2052B0ED023681A6812F4802F33D056
:100E3C001B6813F4002F2AD1636C002B3ED0204684
:100E4C0098473BE02268136823F01603136022686E
:100E5C00536923F080035361236CA3B12268136898
:100E6C0023F008031360E26D3F239340BB60002323
:100E7C0084F83430012384F83530236D002B3FD0B7
:100E8C00204698473CE0A36C002BE7D1EBE7E36BE3
:100E9C00A3B12046984711E01A6812F4807F09D15B
:100EAC001A6822F010021A60002384F834300123EF
:100EBC0084F83530E36B0BB120469847636DFBB17A
:100ECC00636D13F0010F17D0052384F835302268B9
:100EDC00136823F001031360019B01330193AB42B0
:100EEC0004D823681B6813F0010FF5D1002384F894
:100EFC003430012384F83530E36C0BB1204698472D
:100F0C0003B0F0BD04000020B5814E1B00230F2B55
:100F1C0000F2E380F0B482B039E0092200E0002254
:100F2C00B2403A4302346D4E46F824206C4A1468A1
:100F3C00EA4302EA04064F6817F4803F01D045EA01
:100F4C000406674C2660646802EA04064F6817F4CE
:100F5C00003F01D045EA0406614C6660A46802EAD1
:100F6C0004064F6817F4801F01D045EA04065C4C58
:100F7C00A660E46822404E6816F4001F01D045EAD2
:100F8C000402574CE26001330F2B00F2A3800122C4
:100F9C009A400C6804EA0205AA42F4D14C68022C6F
:100FAC0001D0122C10D1DE08083650F826C003F000
:100FBC000704A7000F24BC402CEA040C0C69BC40AD
:100FCC0044EA0C0440F8264004685F000326BE4047
:100FDC00F64306EA040C4C6804F00304BC4044EAF3
:100FEC000C0404604C6804F1FF3CBCF1010F03D904
:100FFC00112C01D0122C10D1846806EA040CCC6898
:10100C00BC4044EA0C048460446824EA02024C6844
:10101C00C4F300149C4014434460C26816408A68B0
:10102C00BA403243C2604A6812F0805FABD00022F3
:10103C0001922C4A546C44F480445464526C02F473
:10104C0080420192019A9C08A61C244A52F82670F0
:10105C0003F0030296000F22B24027EA0207224A4D
:10106C0090423FF45CAF02F58062904222D002F5D0
:10107C008062904220D002F5806290421ED002F530
:10108C00806290421CD002F5806290421AD002F528
:10109C008062904218D002F58062904216D002F520
:1010AC008062904214D002F5806290423FF435AFDA
:1010BC000A2235E7012233E7022231E703222FE728
:1010CC0004222DE705222BE7062229E7072227E732
:1010DC00082225E702B0F0BC704770470038014089
:1010EC00003C0140003802400000024010B582B0C4
:1010FC0000230193194B1A6C42F080521A641B6C3A
:10110C0003F080530193019B154B01221A60FFF7EA
:10111C0071FC0446134B5B6813F4803F08D1FFF756
:10112C0069FC001BB0F57A7FF4D9032002B010BD26
:10113C000D4B01221A60FFF75DFC0446094B5B68FE
:10114C0013F4003F07D1FFF755FC001BB0F57A7F75
:10115C00F4D90320EAE70020E8E700BF003802409A
:10116C0040000E420070004044000E42002800F087
:10117C00BB8170B582B00446036813F0010F3BD0FD
:10118C00A74B9B6803F00C03042B2CD0A44B9B683F
:10119C0003F00C03082B21D06368B3F5803F4FD0CC
:1011AC00B3F5A02F52D09E4B1A6822F480321A60ED
:1011BC001A6822F480221A606368002B50D0FFF763
:1011CC0019FC0546964B1B6813F4003F14D1FFF72E
:1011DC0011FC401B6428F5D903208AE1904B5B6815
:1011EC0013F4800FD8D08E4B1B6813F4003F03D040
:1011FC006368002B00F07A81236813F0020F55D03E
:10120C00874B9B6813F00C0F3ED0854B9B6803F00B
:10121C000C03082B33D0E368002B68D0814B0122E0
:10122C001A60FFF7E7FB05467D4B1B6813F0020FB6
:10123C0054D1FFF7DFFB401B0228F5D9032058E1FE
:10124C00774A136843F480331360B5E7744B1A681C
:10125C0042F480221A601A6842F480321A60ABE7BA
:10126C00FFF7C8FB05466E4B1B6813F4003FC3D059
:10127C00FFF7C0FB401B6428F5D9032039E1684B0C
:10128C005B6813F4800FC6D1654B1B6813F0020F1B
:10129C0004D0E368012B01D001202AE1604A1368D5
:1012AC0023F0F803216943EAC1031360236813F0A8
:1012BC00080F40D0636963B35B4B01221A60FFF7E0
:1012CC0099FB0546564B5B6F13F0020F33D1FFF7BA
:1012DC0091FB401B0228F5D903200AE1504A136800
:1012EC0023F0F803216943EAC1031360DEE74D4B99
:1012FC0000221A60FFF77EFB0546494B1B6813F072
:10130C00020FD3D0FFF776FB401B0228F5D9032040
:10131C00EFE0454B00221A60FFF76CFB0546404B93
:10132C005B6F13F0020F06D0FFF764FB401B022823
:10133C00F5D90320DDE0236813F0040F79D0384B86
:10134C001B6C13F0805F33D100230193344B1A6C68
:10135C0042F080521A641B6C03F080530193019B82
:10136C000125324B1B6813F4807F23D0A368012B1B
:10137C0034D0052B38D02A4B1A6F22F001021A6791
:10138C001A6F22F004021A67A368002B36D0FFF7FD
:10139C0031FB0646224B1B6F13F0020F48D1FFF7AF
:1013AC0029FB801B41F288339842F3D90320A0E03B
:1013BC000025D6E71D4A136843F480731360FFF7CA
:1013CC0019FB0646194B1B6813F4807FCED1FFF72F
:1013DC0011FB801B0228F5D903208AE0104A136FF9
:1013EC0043F001031367CFE70D4B1A6F42F0040271
:1013FC001A671A6F42F001021A67C5E7FFF7FAFA8B
:10140C000646074B1B6F13F0020F11D0FFF7F2FAD1
:10141C00801B41F288339842F3D9032069E000BF66
:10142C000038024000004742800E474200700040E6
:10143C00E5B9A369002B5BD0304A926802F00C022C
:10144C00082A58D0022B17D02D4B00221A60FFF718
:10145C00D1FA0446294B1B6813F0007F42D0FFF7EA
:10146C00C9FA001B0228F5D9032042E0234A136C69
:10147C0023F080531364DCE7214B00221A60FFF742
:10148C00B9FA05461D4B1B6813F0007F06D0FFF719
:10149C00B1FA401B0228F5D903202AE0E369226A3D
:1014AC001343626A43EA8213A26A5208013A43EA7E
:1014BC000243E26A43EA0263104A5360104B012272
:1014CC001A60FFF797FA04460C4B1B6813F0007F69
:1014DC0006D1FFF78FFA001B0228F5D9032008E08C
:1014EC00002006E0002004E001207047012000E00D
:1014FC00002002B070BD0120FBE700BF00380240A5
:10150C0060004742264B9B6803F00C03042B44D02D
:10151C00082B01D0234870472DE9F04B204B5A681B
:10152C0002F03F025B6813F4800F13D01C4B596818
:10153C00C1F3881100231C48A1FB0001FEF750FEEB
:10154C00174B5B68C3F3014301335B00B0FBF3F053
:10155C00BDE8F08B124B5B68C3F388131E46002763
:10156C005C010025E41A65EB0705A90141EA9461C9
:10157C00A001001B61EB0501CB0043EA5073C400D2
:10158C00A01943EB07018B0243EA905384022046D7
:10159C0019460023FEF724FED2E70348704700BF2C
:1015AC00003802400024F40040787D01002800F04F
:1015BC009D8070B504464F4B1B6803F00F038B42A4
:1015CC0009D2CBB24B4A1370136803F00F038B4252
:1015DC0001D0012070BD236813F0020F17D013F057
:1015EC00040F04D0444A936843F4E0539360236897
:1015FC0013F0080F04D0404A936843F4604393609F
:10160C003D4A936823F0F003A068034393600D46B2
:10161C00236813F0010F32D06368012B21D09A1E7E
:10162C00012A25D9344A126812F0020F60D03249CF
:10163C008A6822F0030213438B60FFF7DBF906463E
:10164C002D4B9B6803F00C036268B3EB820F16D032
:10165C00FFF7D0F9801B41F288339842F0D9032070
:10166C00B8E7254A126812F4003FE0D10120B1E737
:10167C00214A126812F0007FD9D10120AAE71D4B34
:10168C001B6803F00F03AB4209D9EAB2194B1A706D
:10169C001B6803F00F03AB4201D001209AE72368CB
:1016AC0013F0040F06D0144A936823F4E053E16856
:1016BC000B439360236813F0080F07D00E4A93680E
:1016CC0023F46043216943EAC1039360FFF71AFFD7
:1016DC00094B9B68C3F30313084AD35CD840084BEF
:1016EC0018600020FFF73CF9002073E701207047D9
:1016FC0001206FE7003C024000380240D41F000874
:10170C0004000020014B1868704700BF0400002043
:10171C0070B4036A23F001030362036A42688469AC
:10172C0024F073040D6845EA040623F002048B6868
:10173C0023430C4DA84202D00B4CA0420BD123F0FA
:10174C000803CD682B4323F0040322F440724D6947
:10175C0015438A692A43426086614A684263036280
:10176C0070BC7047000001400004014030B4036AB3
:10177C0023F480730362036A4268C46924F073041F
:10178C000D682C4323F400738D6843EA05230E4D3A
:10179C00A84203D005F58065A8420ED123F400635E
:1017AC00CD6843EA052323F4806322F440524D694B
:1017BC0042EA05128D6942EA05124260C4614A6828
:1017CC00C263036230BC70470000014030B4036A4E
:1017DC0023F480530362036A4468C26922F4E6422C
:1017EC000D6842EA052223F400538D6843EA053361
:1017FC00094DA84203D005F58065A84204D124F414
:10180C0080444D6944EA85144460C2614A680264AC
:10181C00036230BC704700BF0000014010B4036A83
:10182C00046A24F001040462846924F0F00444EA9C
:10183C00021223F00A030B43826103625DF8044B2E
:10184C00704710B4036A23F0100303628469036ABF
:10185C0024F4704444EA023223F0A00343EA011357
:10186C00826103625DF8044B7047836823F0700358
:10187C0041F0070119438160704710B4846824F467
:10188C007F4442EA03230B43234383605DF8044BFC
:10189C007047704790F83830012B7DD010B5044656
:1018AC00012380F83830022380F8393002689368BD
:1018BC0023F47F4323F0770393600B68402B57D0BE
:1018CC0010D9702B3ED01FD8502B47D0602B32D163
:1018DC00CA6849680068FFF7B4FF60212068FFF709
:1018EC00C4FF28E0102B4DD008D9202B4FD0302B23
:1018FC0021D130210068FFF7B8FF1CE0DBB90021D3
:10190C000068FFF7B2FF16E0B3F5805F0ED0B3F5B9
:10191C00005F10D1CB684A6889680068FFF7ADFF9B
:10192C002268936843F48043936004E002689368F0
:10193C0023F007039360012384F83930002084F8E6
:10194C00380010BDCB684A6889680068FFF795FFBE
:10195C002268936843F077039360ECE7CA684968A0
:10196C000068FFF75BFF50212068FFF77EFFE2E77E
:10197C00CA6849680068FFF751FF40212068FFF7EB
:10198C0074FFD8E710210068FFF76FFFD3E7202121
:10199C000068FFF76AFFCEE7022070477047704778
:1019AC007047704710B5846B012384F83930236A73
:1019BC0083420BD0636A834210D0A36A834210D057
:1019CC00E36A834204D10823237601E001232376C2
:1019DC002046FFF7E6FF0023237610BD0223237673
:1019EC00F6E704232376F3E7704710B50446036843
:1019FC001A6912F0020F11D0DA6812F0020F0DD032
:101A0C006FF002021A610123037603689B6913F0DD
:101A1C00030F70D0FFF7C4FF0023237623681A69E5
:101A2C0012F0040F12D0DA6812F0040F0ED06FF01F
:101A3C0004021A610223237623689B6913F4407F06
:101A4C005FD02046FFF7ACFF0023237623681A698A
:101A5C0012F0080F12D0DA6812F0080F0ED06FF0E7
:101A6C0008021A61042323762368DB6913F0030F41
:101A7C004ED02046FFF794FF0023237623681A6983
:101A8C0012F0100F12D0DA6812F0100F0ED06FF0A7
:101A9C0010021A61082323762368DB6913F4407F54
:101AAC003DD02046FFF77CFF0023237623681A697C
:101ABC0012F0010F03D0DA6812F0010F36D123684F
:101ACC001A6912F0800F03D0DA6812F0800F34D14B
:101ADC0023681A6912F0400F03D0DA6812F0400F35
:101AEC0032D123681A6912F0200F03D0DA6812F091
:101AFC00200F30D110BDFFF752FF2046FFF751FFEA
:101B0C008AE72046FFF74BFF2046FFF74AFF9BE78B
:101B1C002046FFF744FF2046FFF743FFACE7204683
:101B2C00FFF73DFF2046FFF73CFFBDE76FF00102DA
:101B3C001A612046FFF732FFC1E76FF080021A618D
:101B4C00204600F00FFAC3E76FF040021A612046FE
:101B5C00FFF74AFFC5E76FF020021A61204600F03C
:101B6C0000FAC7E7704708B5806B012380F839305D
:101B7C00FFF7F8FF08BD000003682E4A904212D010
:101B8C00B0F1804F0FD0A2F57C4290420BD002F501
:101B9C008062904207D002F58062904203D002F539
:101BAC007842904203D123F070034A681343214AD0
:101BBC0090422AD0B0F1804F27D0A2F57C429042BF
:101BCC0023D002F5806290421FD002F580629042D1
:101BDC001BD002F57842904217D002F57052904219
:101BEC0013D002F5806290420FD002F580629042D1
:101BFC000BD0A2F59832904207D002F58062904249
:101C0C0003D002F58062904203D123F44073CA687A
:101C1C00134303608B68C3620B688362054B984265
:101C2C0003D003F58063984201D10B690363012350
:101C3C004361704700000140A8B110B5044690F80C
:101C4C0039305BB1022384F83930211D2068FFF74D
:101C5C0093FF012384F83930002010BD80F8383010
:101C6C00FEF7D6FDEEE701207047A8B110B504468B
:101C7C0090F839305BB1022384F83930211D20688B
:101C8C00FFF77AFF012384F83930002010BD80F86B
:101C9C003830FFF7FEFDEEE70120704730B4036AE1
:101CAC0023F010030362036A4468826922F4E6425B
:101CBC000D6842EA052223F020038D6843EA0513E0
:101CCC000E4DA84203D005F58065A8420ED123F035
:101CDC008003CD6843EA051323F0400324F44064E9
:101CEC004D6944EA85048D6944EA85044460826147
:101CFC004A688263036230BC704700BF0000014039
:101D0C0038B590F83830012B66D00D4604460123C7
:101D1C0080F83830022380F839300C2A1AD8DFE8E2
:101D2C0002F0071919192019191934191919470032
:101D3C000068FFF7EDFC2268936943F00803936198
:101D4C002268936923F004039361226893692969DB
:101D5C000B439361012384F83930002084F8380058
:101D6C0038BD0068FFF79AFF2268936943F400635B
:101D7C0093612268936923F4806393612268936969
:101D8C00296943EA01239361E4E70068FFF7EEFC5D
:101D9C002268D36943F00803D3612268D36923F026
:101DAC000403D3612268D36929690B43D361D1E75A
:101DBC000068FFF70BFD2268D36943F40063D3611D
:101DCC002268D36923F48063D3612268D3692969BB
:101DDC0043EA0123D361BDE70220C1E710B401231C
:101DEC0003FA01F4036A23EA04030362036A8A40D8
:101DFC00134303625DF8044B7047000070B590F814
:101E0C003960F6B2022E7AD090F83940E4B2012C47
:101E1C000DD016460D4604460C2922D8DFE801F0F9
:101E2C0010212121392121214B2121215D001AB1C1
:101E3C00022480F83940ECE7002BF9D0012027E090
:101E4C00026A3049D163026A2F49D1640268343284
:101E5C003146006AFEF732FF2268D36843F4007300
:101E6C00D360012229462068FFF7B8FF2368274A70
:101E7C00934203D002F58062934203D15A6C42F430
:101E8C0000425A642268136843F001031360002077
:101E9C0070BD426A1B49D163426A1B49D164026816
:101EAC0038323146406AFEF709FF2268D36843F4A2
:101EBC008063D360D5E7826A1249D163826A124982
:101ECC00D16402683C323146806AFEF7F7FE226824
:101EDC00D36843F40063D360C3E7C26A0949D16392
:101EEC00C26A0949D164026840323146C06AFEF7C1
:101EFC00E5FE2268D36843F48053D360B1E7022037
:101F0C00C6E700BFB1190008731B000800000140B0
:101F1C0090F83830012B22D030B4012280F83820D0
:101F2C00022380F839300468636823F0700363601F
:101F3C00046863680D682B4363600468A36823F02E
:101F4C008003A3600468A36849680B43A36080F80E
:101F5C003920002380F83830184630BC70470220F6
:101F6C00704770477047000070B50D4E0D4CA41BA8
:101F7C00A4100025A54209D10B4E0C4C00F018F80A
:101F8C00A41BA4100025A54205D170BD56F8253020
:101F9C0098470135EEE756F8253098470135F2E7BA
:101FAC006820000868200008682000086C200008E1
:101FBC00F8B500BFF8BC08BC9E467047F8B500BF2A
:081FCC00F8BC08BC9E467047FA
:101FD40000000000000000000102030406070809D5
:101FE400000000000102030400061016000610168B
:101FF400453A2F5334572F576F726B737061636573
:102004005F444953434F2F50574D315F43756265C9
:102014004D582F5372632F6D61696E2E630000005B
:10202400453A2F5334572F576F726B737061636542
:102034005F444953434F2F50574D315F4375626599
:102044004D582F5372632F73746D3332663478781E
:0C2054005F68616C5F6D73702E630000AC
:08206000BCE1FF7F010000005C
:04206800D10100089A
:04206C00AD010008BA
:10207000010000000024F400010000001000000036
:04000005080004EDFE
:00000001FF
