:020000040800F2
:1000000000000320910500083509000837090008A1
:10001000390900083B0900083D09000800000000FC
:100020000000000000000000000000003F09000880
:1000300041090008000000004309000845090008C4
:10004000E1050008E1050008E1050008E1050008F8
:10005000E1050008E1050008E1050008E1050008E8
:10006000E1050008E1050008E1050008E1050008D8
:10007000E1050008E1050008E1050008E1050008C8
:10008000E1050008E1050008E1050008E1050008B8
:10009000E1050008E1050008E1050008E1050008A8
:1000A000E1050008E1050008E1050008E105000898
:1000B000E1050008E1050008E1050008E105000888
:1000C000E1050008E1050008E1050008E105000878
:1000D000E105000851090008E1050008E1050008F4
:1000E000E1050008E1050008E1050008E105000858
:1000F000E1050008E1050008E1050008E105000848
:10010000E1050008E1050008E1050008E105000837
:10011000E1050008E1050008E1050008E105000827
:10012000E1050008E1050008E1050008E105000817
:10013000E1050008E1050008E1050008E105000807
:10014000E1050008E1050008E1050008E1050008F7
:10015000E1050008E1050008E1050008E1050008E7
:10016000E1050008E1050008E1050008E1050008D7
:10017000E1050008E1050008E105000800000000B5
:10018000E1050008E1050008E1050008E1050008B7
:10019000E1050008E1050008E1050008E1050008A7
:0C01A000E1050008E1050008E105000889
:1001B00010B5054C237833B9044B13B10448AFF3A1
:1001C00000800123237010BDDC010020000000002E
:1001D0002C24000808B5034B1BB103490348AFF3B7
:1001E000008008BD00000000E00100202C24000871
:1001F00053B94AB9002908BF00281CBF4FF0FF318E
:100200004FF0FF3000F072B9ADF1080C6DE904CE8B
:1002100000F006F8DDF804E0DDE9022304B07047E1
:100220002DE9F047089E04468846002B4BD18A42B0
:10023000154667D9B2FA82F24AB1C2F1200701FA33
:1002400002F320FA07F7954047EA030894404FEA83
:10025000154E230CB8FBFEF71FFA85FC0EFB178822
:1002600043EA084307FB0CF1994209D9EB1807F15F
:10027000FF3080F01B81994240F21881023F2B44ED
:100280005B1AA4B2B3FBFEF00EFB103344EA034446
:1002900000FB0CFCA44509D92C1900F1FF3380F0B8
:1002A0000781A44540F2048102382C4440EA07400B
:1002B000A4EB0C0400271EB1D4400023C6E9004380
:1002C0003946BDE8F0878B4209D9002E00F0EB805B
:1002D0000027C6E9000138463946BDE8F087B3FA81
:1002E00083F7002F47D18B4202D3824200F2FA807B
:1002F000841A61EB030301209846002EE0D0C6E982
:100300000048DDE702B9FFDEB2FA82F2002A40F0CF
:100310008F80491B4FEA154E1FFA85F80127B1FB64
:10032000FEFC230C0EFB1C1143EA014308FB0CF1FD
:10033000994207D9EB180CF1FF3002D2994200F232
:10034000CD808446591AA3B2B1FBFEF00EFB101407
:1003500043EA044408FB00F8A04507D92C1900F132
:10036000FF3302D2A04500F2B6801846A4EB080481
:1003700040EA0C409FE7C7F1200CBB4022FA0CFE7C
:100380004EEA030E01FA07F420FA0CF521FA0CF3F9
:100390004FEA1E482543B3FBF8F92C0C08FB193330
:1003A0001FFA8EFA44EA034309FB0AF49C4202FA5C
:1003B00007F200FA07F10BD91EEB030309F1FF3036
:1003C00080F087809C4240F28480A9F10209734446
:1003D0001B1BADB2B3FBF8F008FB103345EA034436
:1003E00000FB0AFAA24508D91EEB040400F1FF3312
:1003F0006BD2A24569D90238744440EA0940A0FB97
:100400000289A4EB0A044C45C2464B4654D351D052
:10041000002E69D0B1EB0A0564EB030404FA0CFC6E
:10042000FD40FC404CEA0505C6E90054002747E7BB
:10043000C2F1200320FA03F7954001FA02F021FAF5
:1004400003F34FEA154E3843010CB3FBFEF71FFAD6
:1004500085F80EFB173341EA034107FB08F38B4293
:1004600004FA02F407D9691807F1FF3C2FD28B4236
:100470002DD9023F2944CB1A81B2B3FBFEF00EFB0B
:10048000103341EA034100FB08F38B4207D9691896
:1004900000F1FF3C17D28B4215D902382944C91A02
:1004A00040EA07473BE73746304609E70746E7E6B5
:1004B0001846FBE64145ABD2B8EB020A69EB0E02E7
:1004C00001381346A4E76046E9E7184695E7674612
:1004D000D1E781467CE702382C4447E7ACF1020CB7
:1004E0002B442FE7384608E73746E9E6704700BF58
:1004F00001F0FF01102A2BDB10F0070F08D010F8D5
:10050000013B013A8B422DD010F0070F42B3F6D1D8
:10051000F0B441EA012141EA014122F007047FF0F1
:1005200000070023F0E80256083C85EA010586EA48
:10053000010685FA47F5A3FA87F586FA47F6A5FA84
:1005400087F68EB9EED1F0BC01F0FF0102F0070290
:1005500032B110F8013B013A83EA010313B1F8D13B
:100560000020704701387047002D06BF354603381C
:10057000073815F0010F07D1013015F4807F02BF55
:10058000013015F4C03F0130F0BC0138704700BFA6
:10059000DFF834D0002103E00C4B5B5843500431AA
:1005A0000B480C4B42189A42F6D30B4A02E0002348
:1005B00042F8043B094B9A42F9D300F0D1F901F01B
:1005C00049FA00F017F97047000003200C260008D4
:1005D00000000020DC010020DC010020500200208F
:1005E000FEE7000030B589B000240094184B1A6B68
:1005F00042F001021A631A6B02F001020092009AA3
:1006000001941A6B42F040021A631A6B02F0400226
:100610000192019A02941A6B42F002021A631B6B58
:1006200003F002030293029B0A4D22464FF48041DD
:10063000284600F08BFB4FF480430393012304937F
:100640000594069403A9284600F090FA09B030BD3D
:10065000003802400018024010B58EB01B4801F06F
:10066000F5F948B1012823D0184B1A78184901A888
:1006700001F014FA1B220FE0164B93E803000190DF
:10068000ADF80810090C8DF80A1000224FF48041D3
:10069000114800F05BFB0622104C01A9204601F036
:1006A00098F801220949204601F0B7F80EB010BDB4
:1006B00001AB0B4A92E8030083E8030001224FF4E8
:1006C0008041054800F042FB0722E5E704020020D4
:1006D0006C2400085C240008001802400802002076
:1006E00064240008FEE7000008B50B480B4B0360CC
:1006F0004FF4E133436000238360C36003610C2245
:1007000042618361C36101F035F800B908BDC521BC
:100710000348FFF7E7FF00BF080200200010014078
:100720008C24000800B595B0002201922D4B196C65
:1007300041F0805119641B6C03F080530193019BBD
:100740000292294B196841F4404119601B6803F477
:1007500040430293029B0223089301210B91102135
:100760000C910E930F9208221092B42211921293C0
:100770000423139308A800F02FFB38BB00F0ECFA19
:1007800040BB0F23039302230493002305934FF4EC
:10079000A05306934FF480530793052103A800F05C
:1007A0003BFDD8B900F0E4FD104BA3FB00308009FD
:1007B00000F09EF9042000F0B1F9002211464FF03C
:1007C000FF3000F055F915B05DF804FB932108489F
:1007D000FFF788FF9A210648FFF784FFA821044805
:1007E000FFF780FF0038024000700040D34D6210D8
:1007F0008C24000808B500F0FDF8FFF793FFFFF721
:10080000F1FEFFF771FF01220249034801F005F8EC
:10081000FEE700BF040200200802002010B582B0ED
:1008200000240094214B5A6C42F480425A645A6C62
:1008300002F480420092009A01941A6C42F08052B5
:100840001A641B6C03F080530193019B032000F09A
:10085000FDF8224621466FF00B0000F009F9224610
:1008600021466FF00A0000F003F9224621466FF09E
:10087000090000F0FDF8224621466FF0040000F068
:10088000F7F8224621466FF0030000F0F1F8224607
:1008900021466FF0010000F0EBF8224621464FF0B0
:1008A000FF3000F0E5F802B010BD00BF0038024094
:1008B00002681D4B9A4200D070472DE9F04186B086
:1008C0000024009403F594335A6C42F010025A64E9
:1008D0005B6C03F010030093009B4FF48063019363
:1008E0004FF00208CDF808800127039703260496ED
:1008F0000725059501A90D4800F038F9402301931B
:10090000CDF8088003970496059501A9084800F0E2
:100910002DF922462146252000F0AAF8252000F0D6
:10092000DBF806B0BDE8F081001001400000024095
:10093000000402407047FEE7FEE7FEE7FEE770476F
:100940007047704708B500F06FF800F0F8F808BD80
:1009500008B5024800F0E2FF08BD00BF0802002011
:100960000F49D1F8883043F47003C1F888300D4B3B
:100970001A6842F001021A60002098601A6822F09A
:10098000847222F480321A60074A5A601A6822F48C
:1009900080221A60D8604FF000638B60704700BF00
:1009A00000ED00E0003802401030002410B504468D
:1009B0000E4B18784FF47A73B3FBF0F30C4A1068BF
:1009C000B0FBF3F000F094F868B90F2C01D90120C6
:1009D0000AE0002221464FF0FF3000F049F8034BB7
:1009E0005C60002000E0012010BD00BF040000207A
:1009F0000000002008B50B4B1A6842F400721A6020
:100A00001A6842F480621A601A6842F480721A60AE
:100A1000032000F01BF80020FFF7C8FFFFF7FEFEE1
:100A2000002008BD003C0240034A1168034B1B78BC
:100A30000B441360704700BF4802002004000020F0
:100A4000014B1868704700BF48020020074AD3686E
:100A500023F4E0631B041B0C000200F4E060184365
:100A600040F0BF6040F40030D060704700ED00E01F
:100A700030B4174BDB68C3F30223C3F10704042C23
:100A800028BF04241D1D062D18D9033B4FF0FF3548
:100A900005FA04F421EA0401994005FA03F322EA75
:100AA0000303194300280BDB0901C9B200F16040C0
:100AB00000F5614080F8001330BC70470023E5E783
:100AC00000F00F000901C9B2024B1954F4E700BF4E
:100AD00000ED00E014ED00E000F01F0240090123EA
:100AE0009340024A42F82030704700BF00E100E026
:100AF0000138B0F1807F0AD2064B5860064AF021D7
:100B000082F823100020986007221A6070470120A5
:100B1000704700BF10E000E000ED00E0042805D0C1
:100B2000054A136823F0040313607047024A1368F0
:100B300043F004031360704710E000E0704708B50D
:100B4000FFF7FCFF08BD90F83530DBB2022B03D075
:100B50008023436501207047052380F83530026803
:100B6000136823F0010313600020704700230F2B4C
:100B700000F2E380F0B482B039E0092200E0002204
:100B8000B2403A4302346D4E46F824206C4A146851
:100B9000EA4302EA04064F6817F4803F01D045EAB1
:100BA0000406674C2660646802EA04064F6817F47E
:100BB000003F01D045EA0406614C6660A46802EA81
:100BC00004064F6817F4801F01D045EA04065C4C08
:100BD000A660E46822404E6816F4001F01D045EA82
:100BE0000402574CE26001330F2B00F2A380012274
:100BF0009A400C6804EA0205AA42F4D14C68022C1F
:100C000001D0122C10D1DE08083650F826C003F0AF
:100C10000704A7000F24BC402CEA040C0C69BC405C
:100C200044EA0C0440F8264004685F000326BE40F6
:100C3000F64306EA040C4C6804F00304BC4044EAA2
:100C40000C0404604C6804F1FF3CBCF1010F03D9B3
:100C5000112C01D0122C10D1846806EA040CCC6847
:100C6000BC4044EA0C048460446824EA02024C68F4
:100C7000C4F300149C4014434460C26816408A6860
:100C8000BA403243C2604A6812F0805FABD00022A3
:100C900001922C4A546C44F480445464526C02F423
:100CA00080420192019A9C08A61C244A52F82670A0
:100CB00003F0030296000F22B24027EA0207224AFD
:100CC00090423FF45CAF02F58062904222D002F580
:100CD0008062904220D002F5806290421ED002F5E0
:100CE000806290421CD002F5806290421AD002F5D8
:100CF0008062904218D002F58062904216D002F5D0
:100D00008062904214D002F5806290423FF435AF89
:100D10000A2235E7012233E7022231E703222FE7D7
:100D200004222DE705222BE7062229E7072227E7E1
:100D3000082225E702B0F0BC704770470038014038
:100D4000003C0140003802400000024012B9090492
:100D5000816170478161704710B582B000230193B3
:100D6000194B1A6C42F080521A641B6C03F08053CA
:100D70000193019B154B01221A60FFF761FE0446A7
:100D8000134B5B6813F4803F08D1FFF759FE001B3B
:100D9000B0F57A7FF4D9032002B010BD0D4B0122CB
:100DA0001A60FFF74DFE0446094B5B6813F4003FE1
:100DB00007D1FFF745FE001BB0F57A7FF4D9032079
:100DC000EAE70020E8E700BF0038024040000E429A
:100DD0000070004044000E42002800F0BB8170B556
:100DE00082B00446036813F0010F3BD0A74B9B6809
:100DF00003F00C03042B2CD0A44B9B6803F00C03D2
:100E0000082B21D06368B3F5803F4FD0B3F5A02FF6
:100E100052D09E4B1A6822F480321A601A6822F46B
:100E200080221A606368002B50D0FFF709FE054648
:100E3000964B1B6813F4003F14D1FFF701FE401BD3
:100E40006428F5D903208AE1904B5B6813F4800F86
:100E5000D8D08E4B1B6813F4003F03D06368002B7F
:100E600000F07A81236813F0020F55D0874B9B68FE
:100E700013F00C0F3ED0854B9B6803F00C03082B3E
:100E800033D0E368002B68D0814B01221A60FFF752
:100E9000D7FD05467D4B1B6813F0020F54D1FFF7B9
:100EA000CFFD401B0228F5D9032058E1774A13688B
:100EB00043F480331360B5E7744B1A6842F4802220
:100EC0001A601A6842F480321A60ABE7FFF7B8FD87
:100ED00005466E4B1B6813F4003FC3D0FFF7B0FD0F
:100EE000401B6428F5D9032039E1684B5B6813F493
:100EF000800FC6D1654B1B6813F0020F04D0E36866
:100F0000012B01D001202AE1604A136823F0F80385
:100F1000216943EAC1031360236813F0080F40D02E
:100F2000636963B35B4B01221A60FFF789FD0546D5
:100F3000564B5B6F13F0020F33D1FFF781FD401B5F
:100F40000228F5D903200AE1504A136823F0F80378
:100F5000216943EAC1031360DEE74D4B00221A60AA
:100F6000FFF76EFD0546494B1B6813F0020FD3D007
:100F7000FFF766FD401B0228F5D90320EFE0454B43
:100F800000221A60FFF75CFD0546404B5B6F13F0D3
:100F9000020F06D0FFF754FD401B0228F5D90320AD
:100FA000DDE0236813F0040F79D0384B1B6C13F08D
:100FB000805F33D100230193344B1A6C42F080528E
:100FC0001A641B6C03F080530193019B0125324B83
:100FD0001B6813F4807F23D0A368012B34D0052B2A
:100FE00038D02A4B1A6F22F001021A671A6F22F0CA
:100FF00004021A67A368002B36D0FFF721FD0646CE
:10100000224B1B6F13F0020F48D1FFF719FD801B15
:1010100041F288339842F3D90320A0E00025D6E7B7
:101020001D4A136843F480731360FFF709FD0646F9
:10103000194B1B6813F4807FCED1FFF701FD801B95
:101040000228F5D903208AE0104A136F43F0010308
:101050001367CFE70D4B1A6F42F004021A671A6F3D
:1010600042F001021A67C5E7FFF7EAFC0646074BA4
:101070001B6F13F0020F11D0FFF7E2FC801B41F24F
:1010800088339842F3D9032069E000BF003802405A
:1010900000004742800E474200700040E5B9A36956
:1010A000002B5BD0304A926802F00C02082A58D01C
:1010B000022B17D02D4B00221A60FFF7C1FC04460B
:1010C000294B1B6813F0007F42D0FFF7B9FC001BCF
:1010D0000228F5D9032042E0234A136C23F0805301
:1010E0001364DCE7214B00221A60FFF7A9FC0546D8
:1010F0001D4B1B6813F0007F06D0FFF7A1FC401BBF
:101100000228F5D903202AE0E369226A1343626AC0
:1011100043EA8213A26A5208013A43EA0243E26AAE
:1011200043EA0263104A5360104B01221A60FFF732
:1011300087FC04460C4B1B6813F0007F06D1FFF7B9
:101140007FFC001B0228F5D9032008E0002006E000
:10115000002004E001207047012000E0002002B0E0
:1011600070BD0120FBE700BF00380240600047422D
:10117000264B9B6803F00C03042B44D0082B01D0B2
:10118000234870472DE9F04B204B5A6802F03F028C
:101190005B6813F4800F13D01C4B5968C1F388119E
:1011A00000231C48A1FB0001FFF722F8174B5B68E6
:1011B000C3F3014301335B00B0FBF3F0BDE8F08BF8
:1011C000124B5B68C3F388131E4600275C010025A1
:1011D000E41A65EB0705A90141EA9461A001001B2F
:1011E00061EB0501CB0043EA5073C400A01943EB47
:1011F00007018B0243EA90538402204619460023DC
:10120000FEF7F6FFD2E70348704700BF0038024000
:101210000024F40040787D01002800F09D8070B526
:1012200004464F4B1B6803F00F038B4209D2CBB22D
:101230004B4A1370136803F00F038B4201D0012057
:1012400070BD236813F0020F17D013F0040F04D001
:10125000444A936843F4E0539360236813F0080F03
:1012600004D0404A936843F4604393603D4A9368D6
:1012700023F0F003A068034393600D46236813F046
:10128000010F32D06368012B21D09A1E012A25D983
:10129000344A126812F0020F60D032498A6822F094
:1012A000030213438B60FFF7CBFB06462D4B9B6875
:1012B00003F00C036268B3EB820F16D0FFF7C0FB9C
:1012C000801B41F288339842F0D90320B8E7254AC1
:1012D000126812F4003FE0D10120B1E7214A126800
:1012E00012F0007FD9D10120AAE71D4B1B6803F043
:1012F0000F03AB4209D9EAB2194B1A701B6803F00D
:101300000F03AB4201D001209AE7236813F0040FCA
:1013100006D0144A936823F4E053E1680B439360CA
:10132000236813F0080F07D00E4A936823F4604334
:10133000216943EAC1039360FFF71AFF094B9B68D9
:10134000C3F30313084AD35CD840084B186000204D
:10135000FFF72CFB002073E70120704701206FE7A7
:10136000003C0240003802404424000800000020F5
:10137000014B1868704700BF0000002008B5FFF758
:10138000F7FF044B9B68C3F38223034AD35CD84026
:1013900008BD00BF003802405424000808B5FFF71C
:1013A000E7FF044B9B68C3F34233034AD35CD84046
:1013B00008BD00BF00380240542400080268D3680A
:1013C00023F49073D3600268536923F001035361DF
:1013D000202380F83A30704790F83930DBB2212B67
:1013E0002AD18368B3F5805F16D0036A5A1C026263
:1013F0001A7803685A60C38C013B9BB2C384EBB973
:101400000268D36823F08003D3600268D36843F096
:101410004003D36000207047036A1B880268C3F34F
:101420000803536003691BB9036A02330362E2E7EE
:10143000036A01330362DEE7022070470020704731
:101440002DE9F843044601680A6922F44052C36852
:1014500013430B610168CA6822F4164222F00C02A1
:1014600083680069034360690343E06903431343EE
:10147000CB6021684A6922F44072A36913434B612F
:10148000E369B3F5004F60D02368B84A934200F097
:10149000148102F58062934200F00F81FFF76EFF26
:1014A00000EB800000EB80006568AD00B0FBF5F557
:1014B000AF4FA7FB05356D092E01FFF75FFF00EB6E
:1014C000800000EB80006568AD00B0FBF5F9FFF728
:1014D00055FF00EB800000EB80006568AD00B0FBBD
:1014E000F5F5A7FB05356D094FF0640808FB159568
:1014F0002D013235A7FB05356D0905F0F0053544A2
:10150000FFF73CFF00EB800000EB80006668B60050
:10151000B0FBF6F6FFF732FF00EB800000EB800037
:1015200063689B00B0FBF3F0A7FB0030400908FBA9
:1015300010684FEA081808F13208A7FB0837C7F30C
:10154000431723682F449F600DE12368874A934225
:101550005BD002F58062934257D0FFF70FFF00EB9C
:10156000800000EB800065686D00B0FBF5F5804FF2
:10157000A7FB05356D092E01FFF700FF00EB80008A
:1015800000EB800065686D00B0FBF5F9FFF7F6FE33
:1015900000EB800000EB800065686D00B0FBF5F5A6
:1015A000A7FB05356D094FF0640808FB1595ED00A4
:1015B0003235A7FB05356D096D0005F4F875354426
:1015C000FFF7DCFE00EB800000EB80006668760031
:1015D000B0FBF6F6FFF7D2FE00EB800000EB8000D8
:1015E00063685B00B0FBF3F3A7FB03235B0908FB15
:1015F00013684FEAC80808F13208A7FB0837C7F399
:10160000421723682F449F60ADE0FFF7C7FE00EB51
:10161000800000EB800065686D00B0FBF5F5544F6D
:10162000A7FB05356D092E01FFF7B8FE00EB800022
:1016300000EB800065686D00B0FBF5F9FFF7AEFECA
:1016400000EB800000EB800065686D00B0FBF5F5F5
:10165000A7FB05356D094FF0640808FB1595ED00F3
:101660003235A7FB05356D096D0005F4F875354475
:10167000FFF794FE00EB800000EB800066687600C8
:10168000B0FBF6F6FFF78AFE00EB800000EB80006F
:1016900063685B00B0FBF3F3A7FB03235B0908FB64
:1016A00013684FEAC80808F13208A7FB0837C7F3E8
:1016B000421723682F449F6055E0FFF76FFE00EB51
:1016C000800000EB80006568AD00B0FBF5F5284FA9
:1016D000A7FB05356D092E01FFF760FE00EB8000CA
:1016E00000EB80006568AD00B0FBF5F9FFF756FE32
:1016F00000EB800000EB80006568AD00B0FBF5F505
:10170000A7FB05356D094FF0640808FB15952D0101
:101710003235A7FB05356D0905F0F0053544FFF7B7
:101720003DFE00EB800000EB80006668B600B0FB79
:10173000F6F6FFF733FE00EB800000EB80006368F5
:101740009B00B0FBF3F0A7FB0030400908FB1068DA
:101750004FEA081808F13208A7FB0837C7F3431708
:1017600023682F449F60BDE8F88300BF001001404C
:101770001F85EB5158B310B5044690F839300BB3C0
:10178000242384F839302268D36823F40053D360CB
:101790002046FFF755FE2268136923F49043136136
:1017A0002268536923F02A0353612268D36843F403
:1017B0000053D3600020E063202384F8393084F89C
:1017C0003A3010BD80F83830FFF772F8D8E70120C2
:1017D000704790F83930DBB2202B16D1B9B1C2B1C5
:1017E00090F83830012B16D001628284C284002325
:1017F000C363212280F8392080F838300168CA6834
:1018000042F08002CA6018467047022070470120EB
:101810007047012070470220704790F83A30DBB2E1
:10182000202B1BD1E1B1EAB190F83830012B1BD04D
:1018300081628285C2850023C363222280F83A2018
:1018400080F8383001684A6942F001024A61016853
:10185000CA6842F49072CA60184670470220704706
:10186000012070470120704702207047704708B57B
:101870000168CB6823F04003CB60202380F8393027
:10188000FFF7F4FF002008BD08B590F83A30DBB24E
:10189000222B40D18368B3F5805F0ED0036903BB70
:1018A00003685A68836A591C81621A70C38D013BB0
:1018B0009BB2C385F3B100202EE0826A036943B96D
:1018C00003685B68C3F308031380836A023383628F
:1018D000ECE703685B68DBB21380836A01338362E1
:1018E000E4E703685B68826A511C816203F07F034E
:1018F0001370DBE70268D36823F49073D360026847
:10190000536923F001035361202380F83A30FEF736
:10191000A3FE002000E0022008BD704710B5044679
:1019200002681368D168526913F00F0005D113F0F3
:10193000200F02D011F0200F53D1002867D012F0F1
:10194000010202D111F4907F61D013F0010F06D093
:1019500011F4807F03D0E06B40F00100E06313F0EE
:10196000040F04D01AB1E06B40F00200E06313F002
:10197000020F04D01AB1E06B40F00400E06313F0F2
:10198000080F04D01AB1E26B42F00802E263E26B86
:10199000002A48D013F0200F02D011F0200F24D1DC
:1019A00023685B6903F04003E26B12F0080F00D17B
:1019B0003BB32046FFF702FD23685A6912F0400F3F
:1019C0001BD05A6922F040025A61636B8BB11A4AEC
:1019D0001A65606BFFF7B7F828B3606B036D984723
:1019E00021E02046FFF750FF1DE02046FFF74CFFA7
:1019F000D6E72046FFF791FF15E02046FFF78DFF61
:101A000011E02046FFF789FF0023E3630BE013F0AA
:101A1000800F02D011F0800F06D113F0400F02D0DA
:101A200011F0400F04D110BD2046FFF7D5FCFAE7B6
:101A30002046FFF71CFFF6E73D1A000808B5806B4B
:101A40000023C385C384FFF768FF08BD0A22002175
:101A500000F0C0B870B50D4E0D4CA41BA4100025AD
:101A6000A54209D10B4E0C4C00F0E0FCA41BA410C5
:101A70000025A54205D170BD56F82530984701359F
:101A8000EEE756F8253098470135F2E704260008BE
:101A90000426000804260008082600080EB400B535
:101AA0009CB01DAB029006906FF000410948079171
:101AB0000491094953F8042B05910068019302A988
:101AC00000F00EF9029B00221A701CB05DF804EBC6
:101AD00003B070470C0000200802FFFF2DE9F0471B
:101AE0008046894692461E460F463D46089815F8A0
:101AF000014B00F085F82044437813F0080332D1FD
:101B00002D2C32D17C78BD1C0122002E5DD0102EF0
:101B100009D1302C07D12B7803F0DF03582B4FD19C
:101B20006C7810260235002A14BF4FF000416FF088
:101B300000410027B1FBF6FC384606FB1C1EA4F151
:101B40003003092B17D81C46A64223DD7B1C07D087
:101B500084451CD301D1A64519DB00FB06400127B3
:101B600015F8014BEBE72F46BFE72B2C04BFBD1C3C
:101B70007C781A46C9E7A4F14103192B01D8373CF8
:101B8000E2E7A4F16103192B04D8573CDCE74FF0DE
:101B9000FF37E5E77B1C08D12223C8F80030084650
:101BA000BAF1000F07D1BDE8F08702B14042BAF1A7
:101BB000000FF8D00FB105F1FF39CAF80090F2E735
:101BC0003024002EAFD10826ADE7302CA3D00A2652
:101BD000A9E70000084B37B51C68084D236A002BA5
:101BE00008BF2B46009313460A4601462046FFF7DE
:101BF00075FF03B030BD00BF0C0000207000002056
:101C0000D0F8EC00704782B001B901A942B14BB1E4
:101C100013780B601278101C18BF012002B07047B7
:101C20001046FBE76FF00100F8E72DE9F0478E68FA
:101C30009E4282460C469046994637D88A8912F4CD
:101C4000906F31D0256809696F1A6569022305EB29
:101C5000450595FBF3F509F101033B449D4238BF6F
:101C60001D46530530D5294600F038FB064650B9CD
:101C70000C23CAF80030A38943F04003A3814FF03E
:101C8000FF30BDE8F0873A46216900F0B4FAA38935
:101C900023F4906343F08003A381266165613E4491
:101CA000ED1B2660A5604E464E4500D94E46324695
:101CB0004146206800F0AAFAA3689B1BA360236832
:101CC0001E4426600020DCE72A4600F061FB064641
:101CD0000028E2D12169504600F0B2FAC8E70000BE
:101CE0002DE9F04F9DB0804603938B891D060C466D
:101CF00016460FD50B696BB9402100F0EFFA206052
:101D0000206128B90C23C8F800304FF0FF30C7E03D
:101D1000402363610023099320238DF82930302369
:101D20008DF82A304FF0010B37463D4615F8013B40
:101D30000BB1252B3ED1B7EB060A0BD053463246EA
:101D400021464046FFF771FF013000F0A480099B57
:101D5000534409933B78002B00F09D8000234FF003
:101D6000FF32CDE90523049307938DF853301A937E
:101D70002F46052217F8011B4F48FEF7B9FB049BBD
:101D8000D0B9D90644BF20228DF853201A0744BF8A
:101D90002B228DF853202A782A2A15D0079A2F460D
:101DA00000200A25394611F8013B303B092B4DD95B
:101DB000B8B10FE02F46B8E73F4A801A0BFA00F09F
:101DC000184304903D46D3E7039A111D126803910E
:101DD000002A01DB079204E0524243F0020307921B
:101DE00004933B782E2B0CD17B782A2B33D1039B89
:101DF0001A1D1B680392002BB8BF4FF0FF33023748
:101E000005932E4D397803222846FEF771FB38B131
:101E10004023401B03FA00F0049B03430137049363
:101E2000397827488DF8281006227E1CFEF760FBC3
:101E3000002838D0234B13BB039B073323F0070341
:101E400008330393099B4B4409936DE705FB02326A
:101E500001200F46A6E700230137059319460A25FE
:101E6000384610F8012B303A092A03D9002BC8D084
:101E70000591C6E705FB012101230746F0E703AB07
:101E800000932246104B04A94046AFF30080B0F106
:101E9000FF3F8146D6D1A3895B063FF536AF09984F
:101EA0001DB0BDE8F08F03AB00932246064B04A99A
:101EB000404600F081F8EAE7C6240008CC24000878
:101EC000D0240008000000002B1C00082DE9F0477A
:101ED00091461F468A680B69DDF820809342B8BF9F
:101EE0001346C9F8003091F8432006460C4612B15B
:101EF0000133C9F800302368990642BFD9F8003091
:101F00000233C9F80030256815F0060507D104F141
:101F1000190AE368D9F800209B1AAB4228DC94F830
:101F200043302268003318BF012392062DD404F1F8
:101F3000430239463046C047013020D02368E56867
:101F4000D9F8002003F00603042B08BFAD1AA368DC
:101F500022690CBF25EAE57500259342C4BF9B1A90
:101F6000ED184FF000091A344D451AD1002008E051
:101F70000123524639463046C047013003D14FF065
:101F8000FF30BDE8F0870135C3E7E1185A1C302067
:101F900081F84300224494F8451082F8431002333C
:101FA000C5E70123224639463046C0470130E6D016
:101FB00009F10109D8E700002DE9F04301F1430CD4
:101FC0000C46097E85B06E291746064698460C9A3F
:101FD00000F0B38022D8632936D00AD8002900F057
:101FE000B980582900F0838004F1420584F842103A
:101FF00032E0642901D06929F6D12068136805060A
:1020000003F104012AD51B681160002B03DA2D228D
:102010005B4284F843206F480A2239E0732900F0BC
:102020009D8008D86F2920D07029DDD1236843F026
:102030002003236003E0752917D07829D4D17823B1
:1020400084F84530644855E01368191D1B68116019
:1020500004F1420584F8423001238CE01B681160D2
:1020600010F0400F18BF1BB2CFE713682568181D8A
:102070001060280601D51B6802E06806FBD51B88A6
:1020800054486F2914BF0A220822002184F8431003
:102090006568A560002DC0F29580216821F00401DB
:1020A0002160002B3DD1002D40F08E806546082A2E
:1020B0000BD12368DB0708D5236962689A42DEBF2B
:1020C000302305F8013C05F1FF35ACEB0503236136
:1020D000CDF800803B4603AA21463046FFF7F6FEC6
:1020E00001304DD14FF0FF3005B0BDE8F0833948E5
:1020F00084F84510136821681D1D1B6815600A06C9
:102100000BD5CA0744BF41F0200121601BB92268EA
:1021100022F0200222601022B7E74D0648BF9BB292
:10212000EFE76546B3FBF2F102FB1133C35C05F840
:10213000013D0B460029F5D1B9E7136825686169AF
:10214000181D106028061B6801D5196002E06A0698
:10215000FBD51980002323616546B9E71368191D73
:1021600011601D68626800212846FEF7C1F908B1B8
:10217000401B606063682361002384F84330A7E755
:1021800023692A4639463046C0470130AAD0236821
:102190009B0713D4E068039B9842B8BF1846A3E797
:1021A00001234A4639463046C04701309AD00135AE
:1021B000E368039A9B1AAB42F2DCEBE7002504F1DB
:1021C0001909F5E7002BACD1037884F8423004F10B
:1021D00042056CE7D7240008E824000849B1FF2A2B
:1021E00085BF8A2303600A704FF0FF3098BF01203B
:1021F00070470846704710B5431E0A44914200D10B
:1022000010BD11F8014B03F8014FF7E7884210B5F4
:1022100001EB020307D8421E99420AD011F8014B84
:1022200002F8014FF8E78342F5D98118D21AD34258
:1022300000D110BD13F8014D01F8014DF7E7000082
:1022400038B50546002945D051F8043C0C1F002B39
:10225000B8BFE41800F0D2F81F4A1368104633B92B
:10226000636014602846BDE8384000F0C8B8A34257
:102270000CD921686218934204BF1A685B686360D6
:1022800004BF521822600460ECE713465A680AB192
:10229000A242FAD919685818A0420BD1206801440B
:1022A000581882421960DDD1106852685A600144A2
:1022B0001960D7E702D90C232B60D3E720682118D7
:1022C0008A4204BF11685268626004BF0918216025
:1022D0005C60C7E738BD00BFF801002070B5CD1CB9
:1022E00025F0030508350C2D38BF0C25002D0646BA
:1022F00001DBA94203D90C233360002070BD00F03C
:102300007DF8214A1468214691B9204C23681BB9F5
:10231000304600F063F820602946304600F05EF851
:10232000431C24D10C233360304600F068F8E4E706
:102330000B685B1B18D40B2B0FD90B60CD50CC183E
:10234000304600F05CF804F10B00231D20F007007C
:10235000C31AD3D05A42E250D0E78C424B6816BF22
:10236000636013600C46EBE70C464968CCE7C41C7D
:1023700024F00304A04205D0211A304600F02EF8C4
:102380000130CFD02560DBE7F8010020FC01002000
:10239000F8B5074614460E4621B91146BDE8F84087
:1023A000FFF79CBF22B9FFF74BFF25462846F8BD33
:1023B00000F026F8A0420FD221463846FFF78EFFE4
:1023C00005460028F2D031462246FFF714FF314679
:1023D0003846FFF735FFE9E73546E7E738B5064CFD
:1023E000002305460846236000F012F8431C02D182
:1023F000236803B12B6038BD4C0200207047704742
:1024000051F8043C181F002BBCBF0B58C018704774
:10241000044A05491368002B08BF0B461844106096
:10242000184670470002002050020020F8B500BF97
:10243000F8BC08BC9E467047F8B500BFF8BC08BCA5
:042440009E467047FD
:102444000000000000000000010203040607080960
:10245400000000000102030453544F500A0D000011
:1024640053544152540A0D004F64656272616E6F99
:10247400206E69657A6E616E79207A6E616B3A209E
:1024840025630A0D00000000453A2F5334572F5797
:102494006F726B73706163655F444953434F2F558B
:1024A400534152545F315F49542F5372632F6D610E
:1024B400696E2E63000000004300504F53495800DA
:1024C4002E00232D302B2000686C4C006566674578
:1024D4004647003031323334353637383941424398
:1024E4004445460030313233343536373839616249
:1024F40063646566000020202020202020202028FE
:1025040028282828202020202020202020202020A7
:1025140020202020202088101010101010101010DF
:10252400101010101010040404040404040404041F
:10253400101010101010104141414141410101019E
:102544000101010101010101010101010101010177
:102554000110101010101042424242424202020284
:102564000202020202020202020202020202020247
:1025740002101010102000000000000000000000F5
:102584000000000000000000000000000000000047
:102594000000000000000000000000000000000037
:1025A4000000000000000000000000000000000027
:1025B4000000000000000000000000000000000017
:1025C4000000000000000000000000000000000007
:1025D40000000000000000000000000000000000F7
:1025E40000000000000000000000000000000000E7
:0825F4000000000000000000DF
:0825FC0024DCFF7F0100000058
:04260400D5010008F4
:04260800B101000814
:10260C000024F40001000000100000001000002065
:10261C0000000000000000000000000000000000AE
:10262C00000000000000000000000000000000009E
:10263C00000000000000000000000000000000008E
:10264C00000000000000000000000000000000007E
:10265C00000000000000000000000000000000006E
:10266C00000000000000000000000000000000005E
:10267C00430000000000000000000000000000000B
:10268C00000000000000000000000000000000003E
:10269C0043000000000000000000000000000000EB
:1026AC00000000000000000000000000000000001E
:1026BC0043000000000000000000000000000000CB
:1026CC0000000000000000000000000000000000FE
:1026DC0043000000000000000000000000000000AB
:1026EC0000000000000000000000000000000000DE
:1026FC00430000000000000000000000000000008B
:10270C0000000000000000000000000000000000BD
:10271C00430000000000000000000000000000006A
:10272C00000000000000000000000000000000009D
:10273C00430000000000000000000000000000004A
:10274C00000000000000000000000000000000007D
:10275C00DD210008071C000800000000F924000817
:10276C00C4240008CB240008CB240008CB24000888
:10277C00CB240008CB240008CB240008CB24000871
:10278C00CB240008CB240008FFFFFFFFFFFFFFFF57
:10279C00FFFFFFFFFFFF00000100415343494900C9
:1027AC00000000000000000000000000000000001D
:1027BC0000000000000000000000415343494900A4
:1027CC0000000000000000000000000000000000FD
:0C27DC00000000000000000000000000F1
:040000050800059159
:00000001FF
