:020000040800F2
:1000000000000320C51800085D1800085F180008EC
:100010006118000863180008651800080000000057
:100020000000000000000000000000006718000849
:1000300069180008000000006B1800086D1800081F
:1000400015190008151900081519000815190008D8
:1000500015190008151900081519000815190008C8
:1000600015190008151900081519000815190008B8
:1000700015190008151900081519000815190008A8
:100080001519000815190008151900081519000898
:100090001519000815190008151900081519000888
:1000A0001519000815190008151900081519000878
:1000B0001519000815190008151900081519000868
:1000C0001519000815190008151900081519000858
:1000D0001519000815190008151900081519000848
:1000E0001519000815190008151900081519000838
:1000F0001519000815190008151900081519000828
:100100001519000815190008151900081519000817
:100110001519000815190008151900081519000807
:1001200015190008151900081519000815190008F7
:1001300015190008151900081519000815190008E7
:1001400015190008151900081519000815190008D7
:1001500015190008151900081519000815190008C7
:1001600015190008151900081519000815190008B7
:1001700015190008151900081519000800000000DD
:100180001519000815190008151900081519000897
:100190001519000815190008151900081519000887
:0C01A000151900081519000815190008B1
:1001AC0010B5054C237833B9044B13B10448AFF3A5
:1001BC0000800123237010BD0C0000200000000003
:1001CC006019000808B5034B1BB103490348AFF392
:1001DC00008008BD0000000010000020601900081D
:1001EC0053B94AB9002908BF00281CBF4FF0FF3192
:1001FC004FF0FF3000F072B9ADF1080C6DE904CE90
:10020C0000F006F8DDF804E0DDE9022304B07047E5
:10021C002DE9F047089E04468846002B4BD18A42B4
:10022C00154667D9B2FA82F24AB1C2F1200701FA37
:10023C0002F320FA07F7954047EA030894404FEA87
:10024C00154E230CB8FBFEF71FFA85FC0EFB178826
:10025C0043EA084307FB0CF1994209D9EB1807F163
:10026C00FF3080F01B81994240F21881023F2B44F1
:10027C005B1AA4B2B3FBFEF00EFB103344EA03444A
:10028C0000FB0CFCA44509D92C1900F1FF3380F0BC
:10029C000781A44540F2048102382C4440EA07400F
:1002AC00A4EB0C0400271EB1D4400023C6E9004384
:1002BC003946BDE8F0878B4209D9002E00F0EB805F
:1002CC000027C6E9000138463946BDE8F087B3FA85
:1002DC0083F7002F47D18B4202D3824200F2FA807F
:1002EC00841A61EB030301209846002EE0D0C6E986
:1002FC000048DDE702B9FFDEB2FA82F2002A40F0D4
:10030C008F80491B4FEA154E1FFA85F80127B1FB68
:10031C00FEFC230C0EFB1C1143EA014308FB0CF101
:10032C00994207D9EB180CF1FF3002D2994200F236
:10033C00CD808446591AA3B2B1FBFEF00EFB10140B
:10034C0043EA044408FB00F8A04507D92C1900F136
:10035C00FF3302D2A04500F2B6801846A4EB080485
:10036C0040EA0C409FE7C7F1200CBB4022FA0CFE80
:10037C004EEA030E01FA07F420FA0CF521FA0CF3FD
:10038C004FEA1E482543B3FBF8F92C0C08FB193334
:10039C001FFA8EFA44EA034309FB0AF49C4202FA60
:1003AC0007F200FA07F10BD91EEB030309F1FF303A
:1003BC0080F087809C4240F28480A9F1020973444A
:1003CC001B1BADB2B3FBF8F008FB103345EA03443A
:1003DC0000FB0AFAA24508D91EEB040400F1FF3316
:1003EC006BD2A24569D90238744440EA0940A0FB9B
:1003FC000289A4EB0A044C45C2464B4654D351D057
:10040C00002E69D0B1EB0A0564EB030404FA0CFC72
:10041C00FD40FC404CEA0505C6E90054002747E7BF
:10042C00C2F1200320FA03F7954001FA02F021FAF9
:10043C0003F34FEA154E3843010CB3FBFEF71FFADA
:10044C0085F80EFB173341EA034107FB08F38B4297
:10045C0004FA02F407D9691807F1FF3C2FD28B423A
:10046C002DD9023F2944CB1A81B2B3FBFEF00EFB0F
:10047C00103341EA034100FB08F38B4207D969189A
:10048C0000F1FF3C17D28B4215D902382944C91A06
:10049C0040EA07473BE73746304609E70746E7E6B9
:1004AC001846FBE64145ABD2B8EB020A69EB0E02EB
:1004BC0001381346A4E76046E9E7184695E7674616
:1004CC00D1E781467CE702382C4447E7ACF1020CBB
:1004DC002B442FE7384608E73746E9E6704700BF5C
:1004EC0010B504460E4B18784FF47A73B3FBF0F347
:1004FC000C4A1068B0FBF3F000F09CF868B90F2CB4
:10050C0001D901200AE0002221464FF0FF3000F013
:10051C005DF8034B5C60002000E0012010BD00BFC3
:10052C00000000200800002008B50B4B1A6842F4AC
:10053C0000721A601A6842F480621A601A6842F4F7
:10054C0080721A60032000F02FF80020FFF7C8FF1C
:10055C0001F00AF9002008BD003C0240034A116872
:10056C00034B1B780B441360704700BF3000002016
:10057C0000000020014B1868704700BF30000020BD
:10058C0038B50446FFF7F6FF0546B4F1FF3F02D03D
:10059C00044B1B781C44FFF7EDFF401BA042FAD321
:1005AC0038BD00BF00000020074AD36823F4E06385
:1005BC001B041B0C000200F4E060184340F0BF6009
:1005CC0040F40030D060704700ED00E030B4174BC1
:1005DC00DB68C3F30223C3F10704042C28BF0424F3
:1005EC001D1D062D18D9033B4FF0FF3505FA04F4F9
:1005FC0021EA0401994005FA03F322EA03031943A3
:10060C0000280BDB0901C9B200F1604000F5614024
:10061C0080F8001330BC70470023E5E700F00F00B2
:10062C000901C9B2024B1954F4E700BF00ED00E018
:10063C0014ED00E00138B0F1807F0AD2064B58600F
:10064C00064AF02182F823100020986007221A60D5
:10065C0070470120704700BF10E000E000ED00E0A3
:10066C00042805D0054A136823F00403136070476F
:10067C00024A136843F004031360704710E000E073
:10068C00704708B5FFF7FCFF08BD000000230F2BD7
:10069C0000F2E380F0B482B039E0092200E00022DD
:1006AC00B2403A4302346D4E46F824206C4A14682A
:1006BC00EA4302EA04064F6817F4803F01D045EA8A
:1006CC000406674C2660646802EA04064F6817F457
:1006DC00003F01D045EA0406614C6660A46802EA5A
:1006EC0004064F6817F4801F01D045EA04065C4CE1
:1006FC00A660E46822404E6816F4001F01D045EA5B
:10070C000402574CE26001330F2B00F2A38001224C
:10071C009A400C6804EA0205AA42F4D14C68022CF7
:10072C0001D0122C10D1DE08083650F826C003F088
:10073C000704A7000F24BC402CEA040C0C69BC4035
:10074C0044EA0C0440F8264004685F000326BE40CF
:10075C00F64306EA040C4C6804F00304BC4044EA7B
:10076C000C0404604C6804F1FF3CBCF1010F03D98C
:10077C00112C01D0122C10D1846806EA040CCC6820
:10078C00BC4044EA0C048460446824EA02024C68CD
:10079C00C4F300149C4014434460C26816408A6839
:1007AC00BA403243C2604A6812F0805FABD000227C
:1007BC0001922C4A546C44F480445464526C02F4FC
:1007CC0080420192019A9C08A61C244A52F8267079
:1007DC0003F0030296000F22B24027EA0207224AD6
:1007EC0090423FF45CAF02F58062904222D002F559
:1007FC008062904220D002F5806290421ED002F5B9
:10080C00806290421CD002F5806290421AD002F5B0
:10081C008062904218D002F58062904216D002F5A8
:10082C008062904214D002F5806290423FF435AF62
:10083C000A2235E7012233E7022231E703222FE7B0
:10084C0004222DE705222BE7062229E7072227E7BA
:10085C00082225E702B0F0BC704770470038014011
:10086C00003C0140003802400000024012B909046B
:10087C008161704781617047002800F0BB8170B5C1
:10088C0082B00446036813F0010F3BD0A74B9B6862
:10089C0003F00C03042B2CD0A44B9B6803F00C032B
:1008AC00082B21D06368B3F5803F4FD0B3F5A02F50
:1008BC0052D09E4B1A6822F480321A601A6822F4C5
:1008CC0080221A606368002B50D0FFF753FE054658
:1008DC00964B1B6813F4003F14D1FFF74BFE401BE3
:1008EC006428F5D903208AE1904B5B6813F4800FE0
:1008FC00D8D08E4B1B6813F4003F03D06368002BD9
:10090C0000F07A81236813F0020F55D0874B9B6857
:10091C0013F00C0F3ED0854B9B6803F00C03082B97
:10092C0033D0E368002B68D0814B01221A60FFF7AB
:10093C0021FE05467D4B1B6813F0020F54D1FFF7C7
:10094C0019FE401B0228F5D9032058E1774A136899
:10095C0043F480331360B5E7744B1A6842F4802279
:10096C001A601A6842F480321A60ABE7FFF702FE95
:10097C0005466E4B1B6813F4003FC3D0FFF7FAFD1E
:10098C00401B6428F5D9032039E1684B5B6813F4EC
:10099C00800FC6D1654B1B6813F0020F04D0E368BF
:1009AC00012B01D001202AE1604A136823F0F803DF
:1009BC00216943EAC1031360236813F0080F40D088
:1009CC00636963B35B4B01221A60FFF7D3FD0546E5
:1009DC00564B5B6F13F0020F33D1FFF7CBFD401B6F
:1009EC000228F5D903200AE1504A136823F0F803D2
:1009FC00216943EAC1031360DEE74D4B00221A6004
:100A0C00FFF7B8FD0546494B1B6813F0020FD3D016
:100A1C00FFF7B0FD401B0228F5D90320EFE0454B52
:100A2C0000221A60FFF7A6FD0546404B5B6F13F0E2
:100A3C00020F06D0FFF79EFD401B0228F5D90320BC
:100A4C00DDE0236813F0040F79D0384B1B6C13F0E6
:100A5C00805F33D100230193344B1A6C42F08052E7
:100A6C001A641B6C03F080530193019B0125324BDC
:100A7C001B6813F4807F23D0A368012B34D0052B83
:100A8C0038D02A4B1A6F22F001021A671A6F22F023
:100A9C0004021A67A368002B36D0FFF76BFD0646DD
:100AAC00224B1B6F13F0020F48D1FFF763FD801B25
:100ABC0041F288339842F3D90320A0E00025D6E711
:100ACC001D4A136843F480731360FFF753FD064609
:100ADC00194B1B6813F4807FCED1FFF74BFD801BA5
:100AEC000228F5D903208AE0104A136F43F0010362
:100AFC001367CFE70D4B1A6F42F004021A671A6F97
:100B0C0042F001021A67C5E7FFF734FD0646074BB2
:100B1C001B6F13F0020F11D0FFF72CFD801B41F25D
:100B2C0088339842F3D9032069E000BF00380240B3
:100B3C0000004742800E474200700040E5B9A369AF
:100B4C00002B5BD0304A926802F00C02082A58D075
:100B5C00022B17D02D4B00221A60FFF70BFD044619
:100B6C00294B1B6813F0007F42D0FFF703FD001BDD
:100B7C000228F5D9032042E0234A136C23F080535A
:100B8C001364DCE7214B00221A60FFF7F3FC0546E7
:100B9C001D4B1B6813F0007F06D0FFF7EBFC401BCE
:100BAC000228F5D903202AE0E369226A1343626A1A
:100BBC0043EA8213A26A5208013A43EA0243E26A08
:100BCC0043EA0263104A5360104B01221A60FFF78C
:100BDC00D1FC04460C4B1B6813F0007F06D1FFF7C9
:100BEC00C9FC001B0228F5D9032008E0002006E010
:100BFC00002004E001207047012000E0002002B03A
:100C0C0070BD0120FBE700BF003802406000474286
:100C1C00264B9B6803F00C03042B44D0082B01D00B
:100C2C00234870472DE9F04B204B5A6802F03F02E5
:100C3C005B6813F4800F13D01C4B5968C1F38811F7
:100C4C0000231C48A1FB0001FFF7CAFA174B5B6895
:100C5C00C3F3014301335B00B0FBF3F0BDE8F08B51
:100C6C00124B5B68C3F388131E4600275C010025FA
:100C7C00E41A65EB0705A90141EA9461A001001B88
:100C8C0061EB0501CB0043EA5073C400A01943EBA0
:100C9C0007018B0243EA9053840220461946002335
:100CAC00FFF79EFAD2E70348704700BF00380240B6
:100CBC000024F40040787D01002800F09D8070B580
:100CCC0004464F4B1B6803F00F038B4209D2CBB287
:100CDC004B4A1370136803F00F038B4201D00120B1
:100CEC0070BD236813F0020F17D013F0040F04D05B
:100CFC00444A936843F4E0539360236813F0080F5D
:100D0C0004D0404A936843F4604393603D4A93682F
:100D1C0023F0F003A068034393600D46236813F09F
:100D2C00010F32D06368012B21D09A1E012A25D9DC
:100D3C00344A126812F0020F60D032498A6822F0ED
:100D4C00030213438B60FFF715FC06462D4B9B6883
:100D5C0003F00C036268B3EB820F16D0FFF70AFCAA
:100D6C00801B41F288339842F0D90320B8E7254A1A
:100D7C00126812F4003FE0D10120B1E7214A126859
:100D8C0012F0007FD9D10120AAE71D4B1B6803F09C
:100D9C000F03AB4209D9EAB2194B1A701B6803F066
:100DAC000F03AB4201D001209AE7236813F0040F24
:100DBC0006D0144A936823F4E053E1680B43936024
:100DCC00236813F0080F07D00E4A936823F460438E
:100DDC00216943EAC1039360FFF71AFF094B9B6833
:100DEC00C3F30313084AD35CD840084B18600020A7
:100DFC00FFF776FB002073E70120704701206FE7B7
:100E0C00003C02400038024078190008080000201D
:100E1C00014B1868704700BF08000020F8B5054664
:100E2C000F4616461C463BE02CB1FFF7A3FB069B76
:100E3C00C01AA04234D32A68536823F0E0035360ED
:100E4C006B68B3F5827F0BD0AB6AB3F5005F14D03F
:100E5C00012385F85130002385F85030032027E01A
:100E6C00AB68B3F5004F02D0B3F5806FECD12A68B4
:100E7C00136823F040031360E6E72A68136823F431
:100E8C0000531B041B0C13602A68136843F40053B3
:100E9C001360DDE70123B34209D0B4F1FF3FC3D1A6
:100EAC002B689B6837EA0303F4D00023F3E7002098
:100EBC00F8BD10B582B0044600920B46002280218A
:100ECC00FFF7ACFF034610B9184602B010BD636DB6
:100EDC0043F0200363650323F6E700283BD010B5ED
:100EEC0004460023836290F85130002B2ED002234D
:100EFC0084F851302268136823F040031360636850
:100F0C00A2681343E26813432269134362691343D3
:100F1C00A26902F400721343E2691343226A134379
:100F2C00A16A22680B431360638B03F00403616AAC
:100F3C0022680B4353602268D36923F40063D361A6
:100F4C0000206065012384F8513010BD80F85030CA
:100F5C0000F054FCCBE7012070472DE9F04184B040
:100F6C001E4690F85030012B00F0C88004460D4608
:100F7C009046012380F85030FFF7FCFA074694F8AE
:100F8C005130DBB2012B0AD00223012284F851200C
:100F9C00002284F85020184604B0BDE8F081002DE2
:100FAC0000F0A480B8F1000F00F0A280032384F8B5
:100FBC005130002363652563A4F83480A4F836808F
:100FCC00A363A387E38763642364A368B3F5004F2B
:100FDC001BD023681A6812F0400F03D11A6842F034
:100FEC0040021A60E368B3F5006F14D063681BB15C
:100FFC00E38E9BB2012B3ED1236815F8012B1A739B
:10100C00E38E013B9BB2E38635E02268136843F420
:10101C0080431360DDE763681BB1E38E9BB2012B49
:10102C000DD1236835F8022BDA60E38E013B9BB2BD
:10103C00E38604E0002E5DD0B6F1FF3F0FD1E38EC6
:10104C009BB27BB323689A6812F0020FF2D035F88A
:10105C00022BDA60E38E013B9BB2E386EFE7FFF7EE
:10106C0089FAC01BB042EAD303238EE7002E43D08B
:10107C00B6F1FF3F0FD1E38E9BB29BB123689A6808
:10108C0012F0020FF2D015F8012B1A73E38E013B0C
:10109C009BB2E386EFE7FFF76DFAC01BB042EAD3D1
:1010AC00032372E700973346012202212046FFF703
:1010BC00B5FE08B1032368E73A4631462046FFF7F0
:1010CC00F8FE034618B12023636501235DE7A2688F
:1010DC0032B903922268D168039192680392039A01
:1010EC00626D002A3FF451AF01234EE701234CE718
:1010FC0001234AE7032348E7032346E702234AE791
:10110C002DE9F04385B099460C9D90F85030012B99
:10111C0000F0108104460F461646012380F850302B
:10112C00FFF728FA804694F85130DBB26268012B45
:10113C0015D0B2F5827F0AD00223012284F8512007
:10114C00002284F85020184605B0BDE8F083A26850
:10115C00002A40F0E780042B01D00223EDE7002F9A
:10116C0000F0E280002E00F0E180B9F1000F00F0F9
:10117C00DF8094F85130DBB2012B2BD00023636558
:10118C00A663A4F83E90A4F83C902763A4F836908C
:10119C00A4F834902364636423681A6812F0400F37
:1011AC0003D11A6842F040021A60E368B3F5006F8D
:1011BC0014D063681BB1E38E9BB2012B07D123685B
:1011CC0017F8012B1A73E38E013B9BB2E3864FF0A9
:1011DC00010961E0052384F85130CFE763681BB146
:1011EC00E38E9BB2012B07D1236837F8022BDA6010
:1011FC00E38E013B9BB2E3864FF0010913E0E38FD2
:10120C009BB26BB123689A6812F0010F08D0DB68AF
:10121C0026F8023BE38F013B9BB2E3874FF00109B9
:10122C00B5F1FF3F1CD1E38E9BB21BB9E38F9BB290
:10123C00002B55D0B9F1000FE1D0E38E9BB2002BFF
:10124C00DDD023689A6812F0020FD8D037F8022B41
:10125C00DA60E38E013B9BB2E3864FF00009CEE7E8
:10126C00FFF788F9A0EB0800A842DCD3032364E75E
:10127C00E38F9BB26BB123689A6812F0010F08D010
:10128C00DB683370E38F013B9BB2E38701364FF091
:10129C000109B5F1FF3F1BD1E38E9BB213B9E38F6C
:1012AC009BB2EBB1B9F1000FE2D0E38E9BB2002BF5
:1012BC00DED023689A6812F0020FD9D03A781A73EC
:1012CC00E38E013B9BB2E38601374FF00009CFE779
:1012DC00FFF750F9A0EB0800A842DDD303232CE75D
:1012EC00CDF800802B46012202212046FFF796FD07
:1012FC0008B1032321E7424629462046FFF7D9FDD2
:10130C00034618B120236365012316E7A268002A5F
:10131C007FF413AF03922268D16803919268039211
:10132C00039A0AE7022308E7012306E7012304E7EF
:10133C00012302E7022306E72DE9F04182B00446BF
:10134C000D4617461E464368B3F5827F19D094F8B4
:10135C005030012B00F0A280012384F85030FFF7AD
:10136C0009F9804694F85130DBB2012B15D00220DC
:10137C00012384F85130002384F8503002B0BDE8CA
:10138C00F0818368002BE2D1042380F85130009661
:10139C0013460A46FFF7B4FEF0E7002D74D0002F79
:1013AC0074D0042384F8513000236365A563A787A8
:1013BC00E7872363A386E38623646364A368B3F59A
:1013CC00004F0BD023681A6812F0400F03D11A6833
:1013DC0042F040021A60E3685BB128E022681368AF
:1013EC0023F480431360EDE7002E51D0B6F1FF3F9C
:1013FC0010D1E38F9BB2002B31D023689A6812F086
:10140C00010FF1D01B7B05F8013BE38F013B9BB235
:10141C00E387EEE7FFF7AEF8A0EB0800B042E8D3A5
:10142C000320A5E7002E35D0B6F1FF3F0FD1E38F97
:10143C009BB2A3B123689A6812F0010FF2D0DB685B
:10144C0025F8023BE38F013B9BB2E387EFE7FFF705
:10145C0091F8A0EB0800B042E9D3032088E7636859
:10146C00B3F5827F03D0636DB3B9002080E7A36826
:10147C00B3F5004F02D0B3F5806FF4D12268136836
:10148C0023F040031360EEE7012071E701206FE7C2
:10149C0003206DE703206BE7012069E702206DE76D
:1014AC0030B589B000240194134B1A6B42F0200222
:1014BC001A631A6B02F020020192019A02941A6BC1
:1014CC0042F004021A631B6B03F004030293029BA9
:1014DC000A4D224602212846FFF7C8F9022303933E
:1014EC000123049305940323069303A92846FFF7CD
:1014FC00CDF809B030BD00BF0038024000080240F2
:10150C00FEE7000008B51048104B03604FF48273DF
:10151C00436000238360C3600222026101224261A6
:10152C004FF4007282613822C261036243628362AB
:10153C000A23C362FFF7D1FC00B908BD40F23F118A
:10154C000348FFF7DDFF00BF3C00002000500140C6
:10155C009019000800B595B000220192274B196C28
:10156C0041F0805119641B6C03F080530193019B73
:10157C00029223490B6823F4404343F480430B60ED
:10158C000B6803F440430293029B0223089301234C
:10159C000B9310230C930E9208A8FFF76DF910BB58
:1015AC000F2303930021049105914FF4A05306934C
:1015BC004FF48053079303A8FFF77EFBC0B9FFF7E6
:1015CC0027FC104BA3FB00308009FFF733F80420F5
:1015DC00FFF746F8002211464FF0FF30FEF7F6FFFA
:1015EC0015B05DF804FB40F20F110748FFF788FFB8
:1015FC0040F21D110448FFF783FF00BF0038024082
:10160C0000700040D34D62109019000870B584B082
:10161C00FEF78AFFFFF79EFFFFF742FFFFF772FF0F
:10162C004D4C012202212046FFF720F96420FEF7E1
:10163C00A7FF20238DF80C300F238DF80D300022DE
:10164C0002212046FFF712F9444D6423012203A91D
:10165C002846FFF782FC642301220DF10D01284678
:10166C00FFF77BFC012202212046FFF7FFF84FF425
:10167C00FA70FEF785FF04AE8F2306F8083D0022B2
:10168C0002212046FFF7F2F8642301223146284656
:10169C00FFF763FC642301220DF109012846FFF7D3
:1016AC004BFE012202212046FFF7E0F8A7238DF81C
:1016BC000430E8238DF8033001242BE0264D002262
:1016CC0002212846FFF7D2F8244E3223012201A929
:1016DC003046FFF742FC322301220DF10501304662
:1016EC00FFF72AFE012202212846FFF7BFF89DF8DA
:1016FC00053013F0080F2CD119494B781B021BB283
:10170C00184A1380CB781B021BB253804B791B02F7
:10171C001BB29380012CD1D0022CEDD10E4C0022A7
:10172C0002212046FFF7A2F80C4D322301220DF1C5
:10173C0003012846FFF711FC6423062208492846BA
:10174C00FFF7FAFD012202212046FFF78FF8012452
:10175C00D2E70224D0E700BF000802403C00002082
:10176C00340000202800002010B582B00024009422
:10177C00214B5A6C42F480425A645A6C02F48042F7
:10178C000092009A01941A6C42F080521A641B6CFD
:10179C0003F080530193019B0320FEF705FF2246C3
:1017AC0021466FF00B00FEF711FF224621466FF029
:1017BC000A00FEF70BFF224621466FF00900FEF7E8
:1017CC0005FF224621466FF00400FEF7FFFE22467D
:1017DC0021466FF00300FEF7F9FE224621466FF01A
:1017EC000100FEF7F3FE224621464FF0FF30FEF7D4
:1017FC00EDFE02B010BD00BF003802400268124B73
:10180C009A4200D0704700B587B00021009103F5D3
:10181C0068435A6C42F480125A645B6C03F4801374
:10182C000093009B4FF46073019302230293039186
:10183C00032304930523059301A90448FEF726FF0F
:10184C0007B05DF804FB00BF0050014000140240DB
:10185C007047FEE7FEE7FEE7FEE77047704770470C
:10186C0008B5FEF77BFEFEF70CFF08BD0F49D1F85B
:10187C00883043F47003C1F888300D4B1A6842F07D
:10188C0001021A60002098601A6822F0847222F417
:10189C0080321A60074A5A601A6822F480221A6051
:1018AC00D8604FF000638B60704700BF00ED00E024
:1018BC000038024010300024DFF834D0002103E05F
:1018CC000C4B5B58435004310B480C4B42189A425A
:1018DC00F6D30B4A02E0002342F8043B094B9A4230
:1018EC00F9D3FFF7C3FF00F011F8FFF78FFE704735
:1018FC0000000320B0190008000000200C0000209C
:10190C000C000020A4000020FEE7000070B50D4E76
:10191C000D4CA41BA4100025A54209D10B4E0C4C58
:10192C0000F018F8A41BA4100025A54205D170BD29
:10193C0056F8253098470135EEE756F8253098478C
:10194C000135F2E7A8190008A8190008A819000821
:10195C00AC190008F8B500BFF8BC08BC9E4670472F
:0C196C00F8B500BFF8BC08BC9E467047F0
:101978000000000000000000010203040607080937
:1019880000000000010203042E2E2F5372632F6DF6
:0819980061696E2E630000007E
:0819A0007CE8FF7F010000005C
:0419A800D101000861
:0419AC00AD01000881
:0C19B00001000000100000000024F40002
:04000005080018C512
:00000001FF
